{
	"JERC20.sol": {
		"MyToken": {
			"abi": [
				{
					"inputs": [
						{
							"internalType": "string",
							"name": "name_",
							"type": "string"
						},
						{
							"internalType": "string",
							"name": "symbol_",
							"type": "string"
						}
					],
					"stateMutability": "nonpayable",
					"type": "constructor"
				},
				{
					"anonymous": false,
					"inputs": [
						{
							"indexed": true,
							"internalType": "address",
							"name": "owner",
							"type": "address"
						},
						{
							"indexed": true,
							"internalType": "address",
							"name": "spender",
							"type": "address"
						},
						{
							"indexed": false,
							"internalType": "uint256",
							"name": "value",
							"type": "uint256"
						}
					],
					"name": "Approval",
					"type": "event"
				},
				{
					"anonymous": false,
					"inputs": [
						{
							"indexed": true,
							"internalType": "address",
							"name": "from",
							"type": "address"
						},
						{
							"indexed": true,
							"internalType": "address",
							"name": "to",
							"type": "address"
						},
						{
							"indexed": false,
							"internalType": "uint256",
							"name": "value",
							"type": "uint256"
						}
					],
					"name": "Transfer",
					"type": "event"
				},
				{
					"inputs": [
						{
							"internalType": "address",
							"name": "owner",
							"type": "address"
						},
						{
							"internalType": "address",
							"name": "spender",
							"type": "address"
						}
					],
					"name": "allowance",
					"outputs": [
						{
							"internalType": "uint256",
							"name": "",
							"type": "uint256"
						}
					],
					"stateMutability": "view",
					"type": "function"
				},
				{
					"inputs": [
						{
							"internalType": "address",
							"name": "spender",
							"type": "address"
						},
						{
							"internalType": "uint256",
							"name": "amount",
							"type": "uint256"
						}
					],
					"name": "approve",
					"outputs": [
						{
							"internalType": "bool",
							"name": "",
							"type": "bool"
						}
					],
					"stateMutability": "nonpayable",
					"type": "function"
				},
				{
					"inputs": [
						{
							"internalType": "address",
							"name": "account",
							"type": "address"
						}
					],
					"name": "balanceOf",
					"outputs": [
						{
							"internalType": "uint256",
							"name": "",
							"type": "uint256"
						}
					],
					"stateMutability": "view",
					"type": "function"
				},
				{
					"inputs": [],
					"name": "decimals",
					"outputs": [
						{
							"internalType": "uint8",
							"name": "",
							"type": "uint8"
						}
					],
					"stateMutability": "view",
					"type": "function"
				},
				{
					"inputs": [
						{
							"internalType": "address[]",
							"name": "recipients",
							"type": "address[]"
						},
						{
							"internalType": "uint256",
							"name": "amount",
							"type": "uint256"
						}
					],
					"name": "distributeTokens",
					"outputs": [],
					"stateMutability": "nonpayable",
					"type": "function"
				},
				{
					"inputs": [],
					"name": "name",
					"outputs": [
						{
							"internalType": "string",
							"name": "",
							"type": "string"
						}
					],
					"stateMutability": "view",
					"type": "function"
				},
				{
					"inputs": [],
					"name": "symbol",
					"outputs": [
						{
							"internalType": "string",
							"name": "",
							"type": "string"
						}
					],
					"stateMutability": "view",
					"type": "function"
				},
				{
					"inputs": [],
					"name": "totalSupply",
					"outputs": [
						{
							"internalType": "uint256",
							"name": "",
							"type": "uint256"
						}
					],
					"stateMutability": "view",
					"type": "function"
				},
				{
					"inputs": [
						{
							"internalType": "address",
							"name": "to",
							"type": "address"
						},
						{
							"internalType": "uint256",
							"name": "amount",
							"type": "uint256"
						}
					],
					"name": "transfer",
					"outputs": [
						{
							"internalType": "bool",
							"name": "",
							"type": "bool"
						}
					],
					"stateMutability": "nonpayable",
					"type": "function"
				},
				{
					"inputs": [
						{
							"internalType": "address",
							"name": "from",
							"type": "address"
						},
						{
							"internalType": "address",
							"name": "to",
							"type": "address"
						},
						{
							"internalType": "uint256",
							"name": "amount",
							"type": "uint256"
						}
					],
					"name": "transferFrom",
					"outputs": [
						{
							"internalType": "bool",
							"name": "",
							"type": "bool"
						}
					],
					"stateMutability": "nonpayable",
					"type": "function"
				}
			],
			"devdoc": {
				"events": {
					"Approval(address,address,uint256)": {
						"details": "Emitted when the allowance of a `spender` for an `owner` is set by a call to {approve}. `value` is the new allowance."
					},
					"Transfer(address,address,uint256)": {
						"details": "Emitted when `value` tokens are moved from one account (`from`) to another (`to`). Note that `value` may be zero."
					}
				},
				"kind": "dev",
				"methods": {
					"allowance(address,address)": {
						"params": {
							"owner": "owner token address",
							"spender": "spender address"
						},
						"returns": {
							"_0": "remaining allowance"
						}
					},
					"approve(address,uint256)": {
						"details": "_approve emits the {Approval} event",
						"params": {
							"amount": "tokens amount to allow.",
							"spender": "spender address"
						},
						"returns": {
							"_0": "A ~ succesful boolean value"
						}
					},
					"balanceOf(address)": {
						"params": {
							"account": "account address"
						},
						"returns": {
							"_0": "account balance of tokens"
						}
					},
					"constructor": {
						"params": {
							"name_": "token name",
							"symbol_": "token symbol"
						}
					},
					"decimals()": {
						"returns": {
							"_0": "decimals"
						}
					},
					"distributeTokens(address[],uint256)": {
						"details": "mint tokens _mint emits Transfer event",
						"params": {
							"amount": "tokens amount to distribute",
							"recipients": "addresses array"
						}
					},
					"name()": {
						"returns": {
							"_0": "token name"
						}
					},
					"symbol()": {
						"returns": {
							"_0": "token symbol"
						}
					},
					"totalSupply()": {
						"returns": {
							"_0": "total supply of tokens"
						}
					},
					"transfer(address,uint256)": {
						"details": "_transfer emits a {Transfer} event",
						"params": {
							"amount": "tokens amount to transfer",
							"to": "recipient address"
						},
						"returns": {
							"_0": "A maybe successful ~ boolean value "
						}
					},
					"transferFrom(address,address,uint256)": {
						"details": "_transfer emits a {Transfer} event",
						"params": {
							"amount": "tokens amount to transfer",
							"from": "msg sender address",
							"to": "recipient address"
						},
						"returns": {
							"_0": "A ~succesful boolean value"
						}
					}
				},
				"version": 1
			},
			"evm": {
				"assembly": "    /* \"JERC20.sol\":2379:9549  contract MyToken is IJERC20 {... */\n  mstore(0x40, 0x80)\n    /* \"JERC20.sol\":2777:2925  constructor(string memory name_, string memory symbol_) {... */\n  callvalue\n  dup1\n  iszero\n  tag_1\n  jumpi\n  0x00\n  dup1\n  revert\ntag_1:\n  pop\n  mload(0x40)\n  sub(codesize, bytecodeSize)\n  dup1\n  bytecodeSize\n  dup4\n  codecopy\n  dup2\n  dup2\n  add\n  0x40\n  mstore\n  dup2\n  add\n  swap1\n  tag_2\n  swap2\n  swap1\n  tag_3\n  jump\t// in\ntag_2:\n    /* \"JERC20.sol\":2848:2853  name_ */\n  dup2\n    /* \"JERC20.sol\":2840:2845  _name */\n  0x03\n    /* \"JERC20.sol\":2840:2853  _name = name_ */\n  swap1\n  dup2\n  tag_6\n  swap2\n  swap1\n  tag_7\n  jump\t// in\ntag_6:\n  pop\n    /* \"JERC20.sol\":2870:2877  symbol_ */\n  dup1\n    /* \"JERC20.sol\":2860:2867  _symbol */\n  0x04\n    /* \"JERC20.sol\":2860:2877  _symbol = symbol_ */\n  swap1\n  dup2\n  tag_8\n  swap2\n  swap1\n  tag_7\n  jump\t// in\ntag_8:\n  pop\n    /* \"JERC20.sol\":2884:2921  _mint(msg.sender, 1000000 * 10 ** 18) */\n  tag_9\n    /* \"JERC20.sol\":2890:2900  msg.sender */\n  caller\n    /* \"JERC20.sol\":2902:2920  1000000 * 10 ** 18 */\n  0xd3c21bcecceda1000000\n    /* \"JERC20.sol\":2884:2889  _mint */\n  shl(0x20, tag_10)\n    /* \"JERC20.sol\":2884:2921  _mint(msg.sender, 1000000 * 10 ** 18) */\n  0x20\n  shr\n  jump\t// in\ntag_9:\n    /* \"JERC20.sol\":2777:2925  constructor(string memory name_, string memory symbol_) {... */\n  pop\n  pop\n    /* \"JERC20.sol\":2379:9549  contract MyToken is IJERC20 {... */\n  jump(tag_11)\n    /* \"JERC20.sol\":7810:8225  function _mint(address account, uint256 amount) internal virtual {... */\ntag_10:\n    /* \"JERC20.sol\":7913:7914  0 */\n  0x00\n    /* \"JERC20.sol\":7894:7915  account != address(0) */\n  0xffffffffffffffffffffffffffffffffffffffff\n  and\n    /* \"JERC20.sol\":7894:7901  account */\n  dup3\n    /* \"JERC20.sol\":7894:7915  account != address(0) */\n  0xffffffffffffffffffffffffffffffffffffffff\n  and\n  sub\n    /* \"JERC20.sol\":7886:7941  require(account != address(0), \"mint to the 0 address\") */\n  tag_13\n  jumpi\n  mload(0x40)\n  0x08c379a000000000000000000000000000000000000000000000000000000000\n  dup2\n  mstore\n  0x04\n  add\n  tag_14\n  swap1\n  tag_15\n  jump\t// in\ntag_14:\n  mload(0x40)\n  dup1\n  swap2\n  sub\n  swap1\n  revert\ntag_13:\n    /* \"JERC20.sol\":7970:7976  amount */\n  dup1\n    /* \"JERC20.sol\":7954:7966  _totalSupply */\n  0x02\n  0x00\n    /* \"JERC20.sol\":7954:7976  _totalSupply += amount */\n  dup3\n  dup3\n  sload\n  tag_16\n  swap2\n  swap1\n  tag_17\n  jump\t// in\ntag_16:\n  swap3\n  pop\n  pop\n  dup2\n  swap1\n  sstore\n  pop\n    /* \"JERC20.sol\":8147:8153  amount */\n  dup1\n    /* \"JERC20.sol\":8125:8134  _balances */\n  0x00\n    /* \"JERC20.sol\":8125:8143  _balances[account] */\n  dup1\n    /* \"JERC20.sol\":8135:8142  account */\n  dup5\n    /* \"JERC20.sol\":8125:8143  _balances[account] */\n  0xffffffffffffffffffffffffffffffffffffffff\n  and\n  0xffffffffffffffffffffffffffffffffffffffff\n  and\n  dup2\n  mstore\n  0x20\n  add\n  swap1\n  dup2\n  mstore\n  0x20\n  add\n  0x00\n  keccak256\n  0x00\n    /* \"JERC20.sol\":8125:8153  _balances[account] += amount */\n  dup3\n  dup3\n  sload\n  add\n  swap3\n  pop\n  pop\n  dup2\n  swap1\n  sstore\n  pop\n    /* \"JERC20.sol\":8201:8208  account */\n  dup2\n    /* \"JERC20.sol\":8180:8217  Transfer(address(0), account, amount) */\n  0xffffffffffffffffffffffffffffffffffffffff\n  and\n    /* \"JERC20.sol\":8197:8198  0 */\n  0x00\n    /* \"JERC20.sol\":8180:8217  Transfer(address(0), account, amount) */\n  0xffffffffffffffffffffffffffffffffffffffff\n  and\n  0xddf252ad1be2c89b69c2b068fc378daa952ba7f163c4a11628f55a4df523b3ef\n    /* \"JERC20.sol\":8210:8216  amount */\n  dup4\n    /* \"JERC20.sol\":8180:8217  Transfer(address(0), account, amount) */\n  mload(0x40)\n  tag_18\n  swap2\n  swap1\n  tag_19\n  jump\t// in\ntag_18:\n  mload(0x40)\n  dup1\n  swap2\n  sub\n  swap1\n  log3\n    /* \"JERC20.sol\":7810:8225  function _mint(address account, uint256 amount) internal virtual {... */\n  pop\n  pop\n  jump\t// out\n    /* \"#utility.yul\":7:82   */\ntag_20:\n    /* \"#utility.yul\":40:46   */\n  0x00\n    /* \"#utility.yul\":73:75   */\n  0x40\n    /* \"#utility.yul\":67:76   */\n  mload\n    /* \"#utility.yul\":57:76   */\n  swap1\n  pop\n    /* \"#utility.yul\":7:82   */\n  swap1\n  jump\t// out\n    /* \"#utility.yul\":88:205   */\ntag_21:\n    /* \"#utility.yul\":197:198   */\n  0x00\n    /* \"#utility.yul\":194:195   */\n  dup1\n    /* \"#utility.yul\":187:199   */\n  revert\n    /* \"#utility.yul\":211:328   */\ntag_22:\n    /* \"#utility.yul\":320:321   */\n  0x00\n    /* \"#utility.yul\":317:318   */\n  dup1\n    /* \"#utility.yul\":310:322   */\n  revert\n    /* \"#utility.yul\":334:451   */\ntag_23:\n    /* \"#utility.yul\":443:444   */\n  0x00\n    /* \"#utility.yul\":440:441   */\n  dup1\n    /* \"#utility.yul\":433:445   */\n  revert\n    /* \"#utility.yul\":457:574   */\ntag_24:\n    /* \"#utility.yul\":566:567   */\n  0x00\n    /* \"#utility.yul\":563:564   */\n  dup1\n    /* \"#utility.yul\":556:568   */\n  revert\n    /* \"#utility.yul\":580:682   */\ntag_25:\n    /* \"#utility.yul\":621:627   */\n  0x00\n    /* \"#utility.yul\":672:674   */\n  0x1f\n    /* \"#utility.yul\":668:675   */\n  not\n    /* \"#utility.yul\":663:665   */\n  0x1f\n    /* \"#utility.yul\":656:661   */\n  dup4\n    /* \"#utility.yul\":652:666   */\n  add\n    /* \"#utility.yul\":648:676   */\n  and\n    /* \"#utility.yul\":638:676   */\n  swap1\n  pop\n    /* \"#utility.yul\":580:682   */\n  swap2\n  swap1\n  pop\n  jump\t// out\n    /* \"#utility.yul\":688:868   */\ntag_26:\n    /* \"#utility.yul\":736:813   */\n  0x4e487b7100000000000000000000000000000000000000000000000000000000\n    /* \"#utility.yul\":733:734   */\n  0x00\n    /* \"#utility.yul\":726:814   */\n  mstore\n    /* \"#utility.yul\":833:837   */\n  0x41\n    /* \"#utility.yul\":830:831   */\n  0x04\n    /* \"#utility.yul\":823:838   */\n  mstore\n    /* \"#utility.yul\":857:861   */\n  0x24\n    /* \"#utility.yul\":854:855   */\n  0x00\n    /* \"#utility.yul\":847:862   */\n  revert\n    /* \"#utility.yul\":874:1155   */\ntag_27:\n    /* \"#utility.yul\":957:984   */\n  tag_66\n    /* \"#utility.yul\":979:983   */\n  dup3\n    /* \"#utility.yul\":957:984   */\n  tag_25\n  jump\t// in\ntag_66:\n    /* \"#utility.yul\":949:955   */\n  dup2\n    /* \"#utility.yul\":945:985   */\n  add\n    /* \"#utility.yul\":1087:1093   */\n  dup2\n    /* \"#utility.yul\":1075:1085   */\n  dup2\n    /* \"#utility.yul\":1072:1094   */\n  lt\n    /* \"#utility.yul\":1051:1069   */\n  0xffffffffffffffff\n    /* \"#utility.yul\":1039:1049   */\n  dup3\n    /* \"#utility.yul\":1036:1070   */\n  gt\n    /* \"#utility.yul\":1033:1095   */\n  or\n    /* \"#utility.yul\":1030:1118   */\n  iszero\n  tag_67\n  jumpi\n    /* \"#utility.yul\":1098:1116   */\n  tag_68\n  tag_26\n  jump\t// in\ntag_68:\n    /* \"#utility.yul\":1030:1118   */\ntag_67:\n    /* \"#utility.yul\":1138:1148   */\n  dup1\n    /* \"#utility.yul\":1134:1136   */\n  0x40\n    /* \"#utility.yul\":1127:1149   */\n  mstore\n    /* \"#utility.yul\":917:1155   */\n  pop\n    /* \"#utility.yul\":874:1155   */\n  pop\n  pop\n  jump\t// out\n    /* \"#utility.yul\":1161:1290   */\ntag_28:\n    /* \"#utility.yul\":1195:1201   */\n  0x00\n    /* \"#utility.yul\":1222:1242   */\n  tag_70\n  tag_20\n  jump\t// in\ntag_70:\n    /* \"#utility.yul\":1212:1242   */\n  swap1\n  pop\n    /* \"#utility.yul\":1251:1284   */\n  tag_71\n    /* \"#utility.yul\":1279:1283   */\n  dup3\n    /* \"#utility.yul\":1271:1277   */\n  dup3\n    /* \"#utility.yul\":1251:1284   */\n  tag_27\n  jump\t// in\ntag_71:\n    /* \"#utility.yul\":1161:1290   */\n  swap2\n  swap1\n  pop\n  jump\t// out\n    /* \"#utility.yul\":1296:1604   */\ntag_29:\n    /* \"#utility.yul\":1358:1362   */\n  0x00\n    /* \"#utility.yul\":1448:1466   */\n  0xffffffffffffffff\n    /* \"#utility.yul\":1440:1446   */\n  dup3\n    /* \"#utility.yul\":1437:1467   */\n  gt\n    /* \"#utility.yul\":1434:1490   */\n  iszero\n  tag_73\n  jumpi\n    /* \"#utility.yul\":1470:1488   */\n  tag_74\n  tag_26\n  jump\t// in\ntag_74:\n    /* \"#utility.yul\":1434:1490   */\ntag_73:\n    /* \"#utility.yul\":1508:1537   */\n  tag_75\n    /* \"#utility.yul\":1530:1536   */\n  dup3\n    /* \"#utility.yul\":1508:1537   */\n  tag_25\n  jump\t// in\ntag_75:\n    /* \"#utility.yul\":1500:1537   */\n  swap1\n  pop\n    /* \"#utility.yul\":1592:1596   */\n  0x20\n    /* \"#utility.yul\":1586:1590   */\n  dup2\n    /* \"#utility.yul\":1582:1597   */\n  add\n    /* \"#utility.yul\":1574:1597   */\n  swap1\n  pop\n    /* \"#utility.yul\":1296:1604   */\n  swap2\n  swap1\n  pop\n  jump\t// out\n    /* \"#utility.yul\":1610:1749   */\ntag_30:\n    /* \"#utility.yul\":1699:1705   */\n  dup3\n    /* \"#utility.yul\":1694:1697   */\n  dup2\n    /* \"#utility.yul\":1689:1692   */\n  dup4\n    /* \"#utility.yul\":1683:1706   */\n  mcopy\n    /* \"#utility.yul\":1740:1741   */\n  0x00\n    /* \"#utility.yul\":1731:1737   */\n  dup4\n    /* \"#utility.yul\":1726:1729   */\n  dup4\n    /* \"#utility.yul\":1722:1738   */\n  add\n    /* \"#utility.yul\":1715:1742   */\n  mstore\n    /* \"#utility.yul\":1610:1749   */\n  pop\n  pop\n  pop\n  jump\t// out\n    /* \"#utility.yul\":1755:2189   */\ntag_31:\n    /* \"#utility.yul\":1844:1849   */\n  0x00\n    /* \"#utility.yul\":1869:1935   */\n  tag_78\n    /* \"#utility.yul\":1885:1934   */\n  tag_79\n    /* \"#utility.yul\":1927:1933   */\n  dup5\n    /* \"#utility.yul\":1885:1934   */\n  tag_29\n  jump\t// in\ntag_79:\n    /* \"#utility.yul\":1869:1935   */\n  tag_28\n  jump\t// in\ntag_78:\n    /* \"#utility.yul\":1860:1935   */\n  swap1\n  pop\n    /* \"#utility.yul\":1958:1964   */\n  dup3\n    /* \"#utility.yul\":1951:1956   */\n  dup2\n    /* \"#utility.yul\":1944:1965   */\n  mstore\n    /* \"#utility.yul\":1996:2000   */\n  0x20\n    /* \"#utility.yul\":1989:1994   */\n  dup2\n    /* \"#utility.yul\":1985:2001   */\n  add\n    /* \"#utility.yul\":2034:2037   */\n  dup5\n    /* \"#utility.yul\":2025:2031   */\n  dup5\n    /* \"#utility.yul\":2020:2023   */\n  dup5\n    /* \"#utility.yul\":2016:2032   */\n  add\n    /* \"#utility.yul\":2013:2038   */\n  gt\n    /* \"#utility.yul\":2010:2122   */\n  iszero\n  tag_80\n  jumpi\n    /* \"#utility.yul\":2041:2120   */\n  tag_81\n  tag_24\n  jump\t// in\ntag_81:\n    /* \"#utility.yul\":2010:2122   */\ntag_80:\n    /* \"#utility.yul\":2131:2183   */\n  tag_82\n    /* \"#utility.yul\":2176:2182   */\n  dup5\n    /* \"#utility.yul\":2171:2174   */\n  dup3\n    /* \"#utility.yul\":2166:2169   */\n  dup6\n    /* \"#utility.yul\":2131:2183   */\n  tag_30\n  jump\t// in\ntag_82:\n    /* \"#utility.yul\":1850:2189   */\n  pop\n    /* \"#utility.yul\":1755:2189   */\n  swap4\n  swap3\n  pop\n  pop\n  pop\n  jump\t// out\n    /* \"#utility.yul\":2209:2564   */\ntag_32:\n    /* \"#utility.yul\":2276:2281   */\n  0x00\n    /* \"#utility.yul\":2325:2328   */\n  dup3\n    /* \"#utility.yul\":2318:2322   */\n  0x1f\n    /* \"#utility.yul\":2310:2316   */\n  dup4\n    /* \"#utility.yul\":2306:2323   */\n  add\n    /* \"#utility.yul\":2302:2329   */\n  slt\n    /* \"#utility.yul\":2292:2414   */\n  tag_84\n  jumpi\n    /* \"#utility.yul\":2333:2412   */\n  tag_85\n  tag_23\n  jump\t// in\ntag_85:\n    /* \"#utility.yul\":2292:2414   */\ntag_84:\n    /* \"#utility.yul\":2443:2449   */\n  dup2\n    /* \"#utility.yul\":2437:2450   */\n  mload\n    /* \"#utility.yul\":2468:2558   */\n  tag_86\n    /* \"#utility.yul\":2554:2557   */\n  dup5\n    /* \"#utility.yul\":2546:2552   */\n  dup3\n    /* \"#utility.yul\":2539:2543   */\n  0x20\n    /* \"#utility.yul\":2531:2537   */\n  dup7\n    /* \"#utility.yul\":2527:2544   */\n  add\n    /* \"#utility.yul\":2468:2558   */\n  tag_31\n  jump\t// in\ntag_86:\n    /* \"#utility.yul\":2459:2558   */\n  swap2\n  pop\n    /* \"#utility.yul\":2282:2564   */\n  pop\n    /* \"#utility.yul\":2209:2564   */\n  swap3\n  swap2\n  pop\n  pop\n  jump\t// out\n    /* \"#utility.yul\":2570:3423   */\ntag_3:\n    /* \"#utility.yul\":2669:2675   */\n  0x00\n    /* \"#utility.yul\":2677:2683   */\n  dup1\n    /* \"#utility.yul\":2726:2728   */\n  0x40\n    /* \"#utility.yul\":2714:2723   */\n  dup4\n    /* \"#utility.yul\":2705:2712   */\n  dup6\n    /* \"#utility.yul\":2701:2724   */\n  sub\n    /* \"#utility.yul\":2697:2729   */\n  slt\n    /* \"#utility.yul\":2694:2813   */\n  iszero\n  tag_88\n  jumpi\n    /* \"#utility.yul\":2732:2811   */\n  tag_89\n  tag_21\n  jump\t// in\ntag_89:\n    /* \"#utility.yul\":2694:2813   */\ntag_88:\n    /* \"#utility.yul\":2873:2874   */\n  0x00\n    /* \"#utility.yul\":2862:2871   */\n  dup4\n    /* \"#utility.yul\":2858:2875   */\n  add\n    /* \"#utility.yul\":2852:2876   */\n  mload\n    /* \"#utility.yul\":2903:2921   */\n  0xffffffffffffffff\n    /* \"#utility.yul\":2895:2901   */\n  dup2\n    /* \"#utility.yul\":2892:2922   */\n  gt\n    /* \"#utility.yul\":2889:3006   */\n  iszero\n  tag_90\n  jumpi\n    /* \"#utility.yul\":2925:3004   */\n  tag_91\n  tag_22\n  jump\t// in\ntag_91:\n    /* \"#utility.yul\":2889:3006   */\ntag_90:\n    /* \"#utility.yul\":3030:3104   */\n  tag_92\n    /* \"#utility.yul\":3096:3103   */\n  dup6\n    /* \"#utility.yul\":3087:3093   */\n  dup3\n    /* \"#utility.yul\":3076:3085   */\n  dup7\n    /* \"#utility.yul\":3072:3094   */\n  add\n    /* \"#utility.yul\":3030:3104   */\n  tag_32\n  jump\t// in\ntag_92:\n    /* \"#utility.yul\":3020:3104   */\n  swap3\n  pop\n    /* \"#utility.yul\":2823:3114   */\n  pop\n    /* \"#utility.yul\":3174:3176   */\n  0x20\n    /* \"#utility.yul\":3163:3172   */\n  dup4\n    /* \"#utility.yul\":3159:3177   */\n  add\n    /* \"#utility.yul\":3153:3178   */\n  mload\n    /* \"#utility.yul\":3205:3223   */\n  0xffffffffffffffff\n    /* \"#utility.yul\":3197:3203   */\n  dup2\n    /* \"#utility.yul\":3194:3224   */\n  gt\n    /* \"#utility.yul\":3191:3308   */\n  iszero\n  tag_93\n  jumpi\n    /* \"#utility.yul\":3227:3306   */\n  tag_94\n  tag_22\n  jump\t// in\ntag_94:\n    /* \"#utility.yul\":3191:3308   */\ntag_93:\n    /* \"#utility.yul\":3332:3406   */\n  tag_95\n    /* \"#utility.yul\":3398:3405   */\n  dup6\n    /* \"#utility.yul\":3389:3395   */\n  dup3\n    /* \"#utility.yul\":3378:3387   */\n  dup7\n    /* \"#utility.yul\":3374:3396   */\n  add\n    /* \"#utility.yul\":3332:3406   */\n  tag_32\n  jump\t// in\ntag_95:\n    /* \"#utility.yul\":3322:3406   */\n  swap2\n  pop\n    /* \"#utility.yul\":3124:3416   */\n  pop\n    /* \"#utility.yul\":2570:3423   */\n  swap3\n  pop\n  swap3\n  swap1\n  pop\n  jump\t// out\n    /* \"#utility.yul\":3429:3528   */\ntag_33:\n    /* \"#utility.yul\":3481:3487   */\n  0x00\n    /* \"#utility.yul\":3515:3520   */\n  dup2\n    /* \"#utility.yul\":3509:3521   */\n  mload\n    /* \"#utility.yul\":3499:3521   */\n  swap1\n  pop\n    /* \"#utility.yul\":3429:3528   */\n  swap2\n  swap1\n  pop\n  jump\t// out\n    /* \"#utility.yul\":3534:3714   */\ntag_34:\n    /* \"#utility.yul\":3582:3659   */\n  0x4e487b7100000000000000000000000000000000000000000000000000000000\n    /* \"#utility.yul\":3579:3580   */\n  0x00\n    /* \"#utility.yul\":3572:3660   */\n  mstore\n    /* \"#utility.yul\":3679:3683   */\n  0x22\n    /* \"#utility.yul\":3676:3677   */\n  0x04\n    /* \"#utility.yul\":3669:3684   */\n  mstore\n    /* \"#utility.yul\":3703:3707   */\n  0x24\n    /* \"#utility.yul\":3700:3701   */\n  0x00\n    /* \"#utility.yul\":3693:3708   */\n  revert\n    /* \"#utility.yul\":3720:4040   */\ntag_35:\n    /* \"#utility.yul\":3764:3770   */\n  0x00\n    /* \"#utility.yul\":3801:3802   */\n  0x02\n    /* \"#utility.yul\":3795:3799   */\n  dup3\n    /* \"#utility.yul\":3791:3803   */\n  div\n    /* \"#utility.yul\":3781:3803   */\n  swap1\n  pop\n    /* \"#utility.yul\":3848:3849   */\n  0x01\n    /* \"#utility.yul\":3842:3846   */\n  dup3\n    /* \"#utility.yul\":3838:3850   */\n  and\n    /* \"#utility.yul\":3869:3887   */\n  dup1\n    /* \"#utility.yul\":3859:3940   */\n  tag_99\n  jumpi\n    /* \"#utility.yul\":3925:3929   */\n  0x7f\n    /* \"#utility.yul\":3917:3923   */\n  dup3\n    /* \"#utility.yul\":3913:3930   */\n  and\n    /* \"#utility.yul\":3903:3930   */\n  swap2\n  pop\n    /* \"#utility.yul\":3859:3940   */\ntag_99:\n    /* \"#utility.yul\":3987:3989   */\n  0x20\n    /* \"#utility.yul\":3979:3985   */\n  dup3\n    /* \"#utility.yul\":3976:3990   */\n  lt\n    /* \"#utility.yul\":3956:3974   */\n  dup2\n    /* \"#utility.yul\":3953:3991   */\n  sub\n    /* \"#utility.yul\":3950:4034   */\n  tag_100\n  jumpi\n    /* \"#utility.yul\":4006:4024   */\n  tag_101\n  tag_34\n  jump\t// in\ntag_101:\n    /* \"#utility.yul\":3950:4034   */\ntag_100:\n    /* \"#utility.yul\":3771:4040   */\n  pop\n    /* \"#utility.yul\":3720:4040   */\n  swap2\n  swap1\n  pop\n  jump\t// out\n    /* \"#utility.yul\":4046:4187   */\ntag_36:\n    /* \"#utility.yul\":4095:4099   */\n  0x00\n    /* \"#utility.yul\":4118:4121   */\n  dup2\n    /* \"#utility.yul\":4110:4121   */\n  swap1\n  pop\n    /* \"#utility.yul\":4141:4144   */\n  dup2\n    /* \"#utility.yul\":4138:4139   */\n  0x00\n    /* \"#utility.yul\":4131:4145   */\n  mstore\n    /* \"#utility.yul\":4175:4179   */\n  0x20\n    /* \"#utility.yul\":4172:4173   */\n  0x00\n    /* \"#utility.yul\":4162:4180   */\n  keccak256\n    /* \"#utility.yul\":4154:4180   */\n  swap1\n  pop\n    /* \"#utility.yul\":4046:4187   */\n  swap2\n  swap1\n  pop\n  jump\t// out\n    /* \"#utility.yul\":4193:4286   */\ntag_37:\n    /* \"#utility.yul\":4230:4236   */\n  0x00\n    /* \"#utility.yul\":4277:4279   */\n  0x20\n    /* \"#utility.yul\":4272:4274   */\n  0x1f\n    /* \"#utility.yul\":4265:4270   */\n  dup4\n    /* \"#utility.yul\":4261:4275   */\n  add\n    /* \"#utility.yul\":4257:4280   */\n  div\n    /* \"#utility.yul\":4247:4280   */\n  swap1\n  pop\n    /* \"#utility.yul\":4193:4286   */\n  swap2\n  swap1\n  pop\n  jump\t// out\n    /* \"#utility.yul\":4292:4399   */\ntag_38:\n    /* \"#utility.yul\":4336:4344   */\n  0x00\n    /* \"#utility.yul\":4386:4391   */\n  dup3\n    /* \"#utility.yul\":4380:4384   */\n  dup3\n    /* \"#utility.yul\":4376:4392   */\n  shl\n    /* \"#utility.yul\":4355:4392   */\n  swap1\n  pop\n    /* \"#utility.yul\":4292:4399   */\n  swap3\n  swap2\n  pop\n  pop\n  jump\t// out\n    /* \"#utility.yul\":4405:4798   */\ntag_39:\n    /* \"#utility.yul\":4474:4480   */\n  0x00\n    /* \"#utility.yul\":4524:4525   */\n  0x08\n    /* \"#utility.yul\":4512:4522   */\n  dup4\n    /* \"#utility.yul\":4508:4526   */\n  mul\n    /* \"#utility.yul\":4547:4644   */\n  tag_106\n    /* \"#utility.yul\":4577:4643   */\n  0xffffffffffffffffffffffffffffffffffffffffffffffffffffffffffffffff\n    /* \"#utility.yul\":4566:4575   */\n  dup3\n    /* \"#utility.yul\":4547:4644   */\n  tag_38\n  jump\t// in\ntag_106:\n    /* \"#utility.yul\":4665:4704   */\n  tag_107\n    /* \"#utility.yul\":4695:4703   */\n  dup7\n    /* \"#utility.yul\":4684:4693   */\n  dup4\n    /* \"#utility.yul\":4665:4704   */\n  tag_38\n  jump\t// in\ntag_107:\n    /* \"#utility.yul\":4653:4704   */\n  swap6\n  pop\n    /* \"#utility.yul\":4737:4741   */\n  dup1\n    /* \"#utility.yul\":4733:4742   */\n  not\n    /* \"#utility.yul\":4726:4731   */\n  dup5\n    /* \"#utility.yul\":4722:4743   */\n  and\n    /* \"#utility.yul\":4713:4743   */\n  swap4\n  pop\n    /* \"#utility.yul\":4786:4790   */\n  dup1\n    /* \"#utility.yul\":4776:4784   */\n  dup7\n    /* \"#utility.yul\":4772:4791   */\n  and\n    /* \"#utility.yul\":4765:4770   */\n  dup5\n    /* \"#utility.yul\":4762:4792   */\n  or\n    /* \"#utility.yul\":4752:4792   */\n  swap3\n  pop\n    /* \"#utility.yul\":4481:4798   */\n  pop\n  pop\n    /* \"#utility.yul\":4405:4798   */\n  swap4\n  swap3\n  pop\n  pop\n  pop\n  jump\t// out\n    /* \"#utility.yul\":4804:4881   */\ntag_40:\n    /* \"#utility.yul\":4841:4848   */\n  0x00\n    /* \"#utility.yul\":4870:4875   */\n  dup2\n    /* \"#utility.yul\":4859:4875   */\n  swap1\n  pop\n    /* \"#utility.yul\":4804:4881   */\n  swap2\n  swap1\n  pop\n  jump\t// out\n    /* \"#utility.yul\":4887:4947   */\ntag_41:\n    /* \"#utility.yul\":4915:4918   */\n  0x00\n    /* \"#utility.yul\":4936:4941   */\n  dup2\n    /* \"#utility.yul\":4929:4941   */\n  swap1\n  pop\n    /* \"#utility.yul\":4887:4947   */\n  swap2\n  swap1\n  pop\n  jump\t// out\n    /* \"#utility.yul\":4953:5095   */\ntag_42:\n    /* \"#utility.yul\":5003:5012   */\n  0x00\n    /* \"#utility.yul\":5036:5089   */\n  tag_111\n    /* \"#utility.yul\":5054:5088   */\n  tag_112\n    /* \"#utility.yul\":5063:5087   */\n  tag_113\n    /* \"#utility.yul\":5081:5086   */\n  dup5\n    /* \"#utility.yul\":5063:5087   */\n  tag_40\n  jump\t// in\ntag_113:\n    /* \"#utility.yul\":5054:5088   */\n  tag_41\n  jump\t// in\ntag_112:\n    /* \"#utility.yul\":5036:5089   */\n  tag_40\n  jump\t// in\ntag_111:\n    /* \"#utility.yul\":5023:5089   */\n  swap1\n  pop\n    /* \"#utility.yul\":4953:5095   */\n  swap2\n  swap1\n  pop\n  jump\t// out\n    /* \"#utility.yul\":5101:5176   */\ntag_43:\n    /* \"#utility.yul\":5144:5147   */\n  0x00\n    /* \"#utility.yul\":5165:5170   */\n  dup2\n    /* \"#utility.yul\":5158:5170   */\n  swap1\n  pop\n    /* \"#utility.yul\":5101:5176   */\n  swap2\n  swap1\n  pop\n  jump\t// out\n    /* \"#utility.yul\":5182:5451   */\ntag_44:\n    /* \"#utility.yul\":5292:5331   */\n  tag_116\n    /* \"#utility.yul\":5323:5330   */\n  dup4\n    /* \"#utility.yul\":5292:5331   */\n  tag_42\n  jump\t// in\ntag_116:\n    /* \"#utility.yul\":5353:5444   */\n  tag_117\n    /* \"#utility.yul\":5402:5443   */\n  tag_118\n    /* \"#utility.yul\":5426:5442   */\n  dup3\n    /* \"#utility.yul\":5402:5443   */\n  tag_43\n  jump\t// in\ntag_118:\n    /* \"#utility.yul\":5394:5400   */\n  dup5\n    /* \"#utility.yul\":5387:5391   */\n  dup5\n    /* \"#utility.yul\":5381:5392   */\n  sload\n    /* \"#utility.yul\":5353:5444   */\n  tag_39\n  jump\t// in\ntag_117:\n    /* \"#utility.yul\":5347:5351   */\n  dup3\n    /* \"#utility.yul\":5340:5445   */\n  sstore\n    /* \"#utility.yul\":5258:5451   */\n  pop\n    /* \"#utility.yul\":5182:5451   */\n  pop\n  pop\n  pop\n  jump\t// out\n    /* \"#utility.yul\":5457:5530   */\ntag_45:\n    /* \"#utility.yul\":5502:5505   */\n  0x00\n    /* \"#utility.yul\":5457:5530   */\n  swap1\n  jump\t// out\n    /* \"#utility.yul\":5536:5725   */\ntag_46:\n    /* \"#utility.yul\":5613:5645   */\n  tag_121\n  tag_45\n  jump\t// in\ntag_121:\n    /* \"#utility.yul\":5654:5719   */\n  tag_122\n    /* \"#utility.yul\":5712:5718   */\n  dup2\n    /* \"#utility.yul\":5704:5710   */\n  dup5\n    /* \"#utility.yul\":5698:5702   */\n  dup5\n    /* \"#utility.yul\":5654:5719   */\n  tag_44\n  jump\t// in\ntag_122:\n    /* \"#utility.yul\":5589:5725   */\n  pop\n    /* \"#utility.yul\":5536:5725   */\n  pop\n  pop\n  jump\t// out\n    /* \"#utility.yul\":5731:5917   */\ntag_47:\n    /* \"#utility.yul\":5791:5911   */\ntag_124:\n    /* \"#utility.yul\":5808:5811   */\n  dup2\n    /* \"#utility.yul\":5801:5806   */\n  dup2\n    /* \"#utility.yul\":5798:5812   */\n  lt\n    /* \"#utility.yul\":5791:5911   */\n  iszero\n  tag_126\n  jumpi\n    /* \"#utility.yul\":5862:5901   */\n  tag_127\n    /* \"#utility.yul\":5899:5900   */\n  0x00\n    /* \"#utility.yul\":5892:5897   */\n  dup3\n    /* \"#utility.yul\":5862:5901   */\n  tag_46\n  jump\t// in\ntag_127:\n    /* \"#utility.yul\":5835:5836   */\n  0x01\n    /* \"#utility.yul\":5828:5833   */\n  dup2\n    /* \"#utility.yul\":5824:5837   */\n  add\n    /* \"#utility.yul\":5815:5837   */\n  swap1\n  pop\n    /* \"#utility.yul\":5791:5911   */\n  jump(tag_124)\ntag_126:\n    /* \"#utility.yul\":5731:5917   */\n  pop\n  pop\n  jump\t// out\n    /* \"#utility.yul\":5923:6466   */\ntag_48:\n    /* \"#utility.yul\":6024:6026   */\n  0x1f\n    /* \"#utility.yul\":6019:6022   */\n  dup3\n    /* \"#utility.yul\":6016:6027   */\n  gt\n    /* \"#utility.yul\":6013:6459   */\n  iszero\n  tag_129\n  jumpi\n    /* \"#utility.yul\":6058:6096   */\n  tag_130\n    /* \"#utility.yul\":6090:6095   */\n  dup2\n    /* \"#utility.yul\":6058:6096   */\n  tag_36\n  jump\t// in\ntag_130:\n    /* \"#utility.yul\":6142:6171   */\n  tag_131\n    /* \"#utility.yul\":6160:6170   */\n  dup5\n    /* \"#utility.yul\":6142:6171   */\n  tag_37\n  jump\t// in\ntag_131:\n    /* \"#utility.yul\":6132:6140   */\n  dup2\n    /* \"#utility.yul\":6128:6172   */\n  add\n    /* \"#utility.yul\":6325:6327   */\n  0x20\n    /* \"#utility.yul\":6313:6323   */\n  dup6\n    /* \"#utility.yul\":6310:6328   */\n  lt\n    /* \"#utility.yul\":6307:6356   */\n  iszero\n  tag_132\n  jumpi\n    /* \"#utility.yul\":6346:6354   */\n  dup2\n    /* \"#utility.yul\":6331:6354   */\n  swap1\n  pop\n    /* \"#utility.yul\":6307:6356   */\ntag_132:\n    /* \"#utility.yul\":6369:6449   */\n  tag_133\n    /* \"#utility.yul\":6425:6447   */\n  tag_134\n    /* \"#utility.yul\":6443:6446   */\n  dup6\n    /* \"#utility.yul\":6425:6447   */\n  tag_37\n  jump\t// in\ntag_134:\n    /* \"#utility.yul\":6415:6423   */\n  dup4\n    /* \"#utility.yul\":6411:6448   */\n  add\n    /* \"#utility.yul\":6398:6409   */\n  dup3\n    /* \"#utility.yul\":6369:6449   */\n  tag_47\n  jump\t// in\ntag_133:\n    /* \"#utility.yul\":6028:6459   */\n  pop\n  pop\n    /* \"#utility.yul\":6013:6459   */\ntag_129:\n    /* \"#utility.yul\":5923:6466   */\n  pop\n  pop\n  pop\n  jump\t// out\n    /* \"#utility.yul\":6472:6589   */\ntag_49:\n    /* \"#utility.yul\":6526:6534   */\n  0x00\n    /* \"#utility.yul\":6576:6581   */\n  dup3\n    /* \"#utility.yul\":6570:6574   */\n  dup3\n    /* \"#utility.yul\":6566:6582   */\n  shr\n    /* \"#utility.yul\":6545:6582   */\n  swap1\n  pop\n    /* \"#utility.yul\":6472:6589   */\n  swap3\n  swap2\n  pop\n  pop\n  jump\t// out\n    /* \"#utility.yul\":6595:6764   */\ntag_50:\n    /* \"#utility.yul\":6639:6645   */\n  0x00\n    /* \"#utility.yul\":6672:6723   */\n  tag_137\n    /* \"#utility.yul\":6720:6721   */\n  0x00\n    /* \"#utility.yul\":6716:6722   */\n  not\n    /* \"#utility.yul\":6708:6713   */\n  dup5\n    /* \"#utility.yul\":6705:6706   */\n  0x08\n    /* \"#utility.yul\":6701:6714   */\n  mul\n    /* \"#utility.yul\":6672:6723   */\n  tag_49\n  jump\t// in\ntag_137:\n    /* \"#utility.yul\":6668:6724   */\n  not\n    /* \"#utility.yul\":6753:6757   */\n  dup1\n    /* \"#utility.yul\":6747:6751   */\n  dup4\n    /* \"#utility.yul\":6743:6758   */\n  and\n    /* \"#utility.yul\":6733:6758   */\n  swap2\n  pop\n    /* \"#utility.yul\":6646:6764   */\n  pop\n    /* \"#utility.yul\":6595:6764   */\n  swap3\n  swap2\n  pop\n  pop\n  jump\t// out\n    /* \"#utility.yul\":6769:7064   */\ntag_51:\n    /* \"#utility.yul\":6845:6849   */\n  0x00\n    /* \"#utility.yul\":6991:7020   */\n  tag_139\n    /* \"#utility.yul\":7016:7019   */\n  dup4\n    /* \"#utility.yul\":7010:7014   */\n  dup4\n    /* \"#utility.yul\":6991:7020   */\n  tag_50\n  jump\t// in\ntag_139:\n    /* \"#utility.yul\":6983:7020   */\n  swap2\n  pop\n    /* \"#utility.yul\":7053:7056   */\n  dup3\n    /* \"#utility.yul\":7050:7051   */\n  0x02\n    /* \"#utility.yul\":7046:7057   */\n  mul\n    /* \"#utility.yul\":7040:7044   */\n  dup3\n    /* \"#utility.yul\":7037:7058   */\n  or\n    /* \"#utility.yul\":7029:7058   */\n  swap1\n  pop\n    /* \"#utility.yul\":6769:7064   */\n  swap3\n  swap2\n  pop\n  pop\n  jump\t// out\n    /* \"#utility.yul\":7069:8464   */\ntag_7:\n    /* \"#utility.yul\":7186:7223   */\n  tag_141\n    /* \"#utility.yul\":7219:7222   */\n  dup3\n    /* \"#utility.yul\":7186:7223   */\n  tag_33\n  jump\t// in\ntag_141:\n    /* \"#utility.yul\":7288:7306   */\n  0xffffffffffffffff\n    /* \"#utility.yul\":7280:7286   */\n  dup2\n    /* \"#utility.yul\":7277:7307   */\n  gt\n    /* \"#utility.yul\":7274:7330   */\n  iszero\n  tag_142\n  jumpi\n    /* \"#utility.yul\":7310:7328   */\n  tag_143\n  tag_26\n  jump\t// in\ntag_143:\n    /* \"#utility.yul\":7274:7330   */\ntag_142:\n    /* \"#utility.yul\":7354:7392   */\n  tag_144\n    /* \"#utility.yul\":7386:7390   */\n  dup3\n    /* \"#utility.yul\":7380:7391   */\n  sload\n    /* \"#utility.yul\":7354:7392   */\n  tag_35\n  jump\t// in\ntag_144:\n    /* \"#utility.yul\":7439:7506   */\n  tag_145\n    /* \"#utility.yul\":7499:7505   */\n  dup3\n    /* \"#utility.yul\":7491:7497   */\n  dup3\n    /* \"#utility.yul\":7485:7489   */\n  dup6\n    /* \"#utility.yul\":7439:7506   */\n  tag_48\n  jump\t// in\ntag_145:\n    /* \"#utility.yul\":7533:7534   */\n  0x00\n    /* \"#utility.yul\":7557:7561   */\n  0x20\n    /* \"#utility.yul\":7544:7561   */\n  swap1\n  pop\n    /* \"#utility.yul\":7589:7591   */\n  0x1f\n    /* \"#utility.yul\":7581:7587   */\n  dup4\n    /* \"#utility.yul\":7578:7592   */\n  gt\n    /* \"#utility.yul\":7606:7607   */\n  0x01\n    /* \"#utility.yul\":7601:8219   */\n  dup2\n  eq\n  tag_147\n  jumpi\n    /* \"#utility.yul\":8263:8264   */\n  0x00\n    /* \"#utility.yul\":8280:8286   */\n  dup5\n    /* \"#utility.yul\":8277:8354   */\n  iszero\n  tag_148\n  jumpi\n    /* \"#utility.yul\":8329:8338   */\n  dup3\n    /* \"#utility.yul\":8324:8327   */\n  dup8\n    /* \"#utility.yul\":8320:8339   */\n  add\n    /* \"#utility.yul\":8314:8340   */\n  mload\n    /* \"#utility.yul\":8305:8340   */\n  swap1\n  pop\n    /* \"#utility.yul\":8277:8354   */\ntag_148:\n    /* \"#utility.yul\":8380:8447   */\n  tag_149\n    /* \"#utility.yul\":8440:8446   */\n  dup6\n    /* \"#utility.yul\":8433:8438   */\n  dup3\n    /* \"#utility.yul\":8380:8447   */\n  tag_51\n  jump\t// in\ntag_149:\n    /* \"#utility.yul\":8374:8378   */\n  dup7\n    /* \"#utility.yul\":8367:8448   */\n  sstore\n    /* \"#utility.yul\":8236:8458   */\n  pop\n    /* \"#utility.yul\":7571:8458   */\n  jump(tag_146)\n    /* \"#utility.yul\":7601:8219   */\ntag_147:\n    /* \"#utility.yul\":7653:7657   */\n  0x1f\n    /* \"#utility.yul\":7649:7658   */\n  not\n    /* \"#utility.yul\":7641:7647   */\n  dup5\n    /* \"#utility.yul\":7637:7659   */\n  and\n    /* \"#utility.yul\":7687:7724   */\n  tag_150\n    /* \"#utility.yul\":7719:7723   */\n  dup7\n    /* \"#utility.yul\":7687:7724   */\n  tag_36\n  jump\t// in\ntag_150:\n    /* \"#utility.yul\":7746:7747   */\n  0x00\n    /* \"#utility.yul\":7760:7968   */\ntag_151:\n    /* \"#utility.yul\":7774:7781   */\n  dup3\n    /* \"#utility.yul\":7771:7772   */\n  dup2\n    /* \"#utility.yul\":7768:7782   */\n  lt\n    /* \"#utility.yul\":7760:7968   */\n  iszero\n  tag_153\n  jumpi\n    /* \"#utility.yul\":7853:7862   */\n  dup5\n    /* \"#utility.yul\":7848:7851   */\n  dup10\n    /* \"#utility.yul\":7844:7863   */\n  add\n    /* \"#utility.yul\":7838:7864   */\n  mload\n    /* \"#utility.yul\":7830:7836   */\n  dup3\n    /* \"#utility.yul\":7823:7865   */\n  sstore\n    /* \"#utility.yul\":7904:7905   */\n  0x01\n    /* \"#utility.yul\":7896:7902   */\n  dup3\n    /* \"#utility.yul\":7892:7906   */\n  add\n    /* \"#utility.yul\":7882:7906   */\n  swap2\n  pop\n    /* \"#utility.yul\":7951:7953   */\n  0x20\n    /* \"#utility.yul\":7940:7949   */\n  dup6\n    /* \"#utility.yul\":7936:7954   */\n  add\n    /* \"#utility.yul\":7923:7954   */\n  swap5\n  pop\n    /* \"#utility.yul\":7797:7801   */\n  0x20\n    /* \"#utility.yul\":7794:7795   */\n  dup2\n    /* \"#utility.yul\":7790:7802   */\n  add\n    /* \"#utility.yul\":7785:7802   */\n  swap1\n  pop\n    /* \"#utility.yul\":7760:7968   */\n  jump(tag_151)\ntag_153:\n    /* \"#utility.yul\":7996:8002   */\n  dup7\n    /* \"#utility.yul\":7987:7994   */\n  dup4\n    /* \"#utility.yul\":7984:8003   */\n  lt\n    /* \"#utility.yul\":7981:8160   */\n  iszero\n  tag_154\n  jumpi\n    /* \"#utility.yul\":8054:8063   */\n  dup5\n    /* \"#utility.yul\":8049:8052   */\n  dup10\n    /* \"#utility.yul\":8045:8064   */\n  add\n    /* \"#utility.yul\":8039:8065   */\n  mload\n    /* \"#utility.yul\":8097:8145   */\n  tag_155\n    /* \"#utility.yul\":8139:8143   */\n  0x1f\n    /* \"#utility.yul\":8131:8137   */\n  dup10\n    /* \"#utility.yul\":8127:8144   */\n  and\n    /* \"#utility.yul\":8116:8125   */\n  dup3\n    /* \"#utility.yul\":8097:8145   */\n  tag_50\n  jump\t// in\ntag_155:\n    /* \"#utility.yul\":8089:8095   */\n  dup4\n    /* \"#utility.yul\":8082:8146   */\n  sstore\n    /* \"#utility.yul\":8004:8160   */\n  pop\n    /* \"#utility.yul\":7981:8160   */\ntag_154:\n    /* \"#utility.yul\":8206:8207   */\n  0x01\n    /* \"#utility.yul\":8202:8203   */\n  0x02\n    /* \"#utility.yul\":8194:8200   */\n  dup9\n    /* \"#utility.yul\":8190:8204   */\n  mul\n    /* \"#utility.yul\":8186:8208   */\n  add\n    /* \"#utility.yul\":8180:8184   */\n  dup9\n    /* \"#utility.yul\":8173:8209   */\n  sstore\n    /* \"#utility.yul\":7608:8219   */\n  pop\n  pop\n  pop\n    /* \"#utility.yul\":7571:8458   */\ntag_146:\n  pop\n    /* \"#utility.yul\":7161:8464   */\n  pop\n  pop\n  pop\n    /* \"#utility.yul\":7069:8464   */\n  pop\n  pop\n  jump\t// out\n    /* \"#utility.yul\":8470:8639   */\ntag_52:\n    /* \"#utility.yul\":8554:8565   */\n  0x00\n    /* \"#utility.yul\":8588:8594   */\n  dup3\n    /* \"#utility.yul\":8583:8586   */\n  dup3\n    /* \"#utility.yul\":8576:8595   */\n  mstore\n    /* \"#utility.yul\":8628:8632   */\n  0x20\n    /* \"#utility.yul\":8623:8626   */\n  dup3\n    /* \"#utility.yul\":8619:8633   */\n  add\n    /* \"#utility.yul\":8604:8633   */\n  swap1\n  pop\n    /* \"#utility.yul\":8470:8639   */\n  swap3\n  swap2\n  pop\n  pop\n  jump\t// out\n    /* \"#utility.yul\":8645:8816   */\ntag_53:\n    /* \"#utility.yul\":8785:8808   */\n  0x6d696e7420746f20746865203020616464726573730000000000000000000000\n    /* \"#utility.yul\":8781:8782   */\n  0x00\n    /* \"#utility.yul\":8773:8779   */\n  dup3\n    /* \"#utility.yul\":8769:8783   */\n  add\n    /* \"#utility.yul\":8762:8809   */\n  mstore\n    /* \"#utility.yul\":8645:8816   */\n  pop\n  jump\t// out\n    /* \"#utility.yul\":8822:9188   */\ntag_54:\n    /* \"#utility.yul\":8964:8967   */\n  0x00\n    /* \"#utility.yul\":8985:9052   */\n  tag_159\n    /* \"#utility.yul\":9049:9051   */\n  0x15\n    /* \"#utility.yul\":9044:9047   */\n  dup4\n    /* \"#utility.yul\":8985:9052   */\n  tag_52\n  jump\t// in\ntag_159:\n    /* \"#utility.yul\":8978:9052   */\n  swap2\n  pop\n    /* \"#utility.yul\":9061:9154   */\n  tag_160\n    /* \"#utility.yul\":9150:9153   */\n  dup3\n    /* \"#utility.yul\":9061:9154   */\n  tag_53\n  jump\t// in\ntag_160:\n    /* \"#utility.yul\":9179:9181   */\n  0x20\n    /* \"#utility.yul\":9174:9177   */\n  dup3\n    /* \"#utility.yul\":9170:9182   */\n  add\n    /* \"#utility.yul\":9163:9182   */\n  swap1\n  pop\n    /* \"#utility.yul\":8822:9188   */\n  swap2\n  swap1\n  pop\n  jump\t// out\n    /* \"#utility.yul\":9194:9613   */\ntag_15:\n    /* \"#utility.yul\":9360:9364   */\n  0x00\n    /* \"#utility.yul\":9398:9400   */\n  0x20\n    /* \"#utility.yul\":9387:9396   */\n  dup3\n    /* \"#utility.yul\":9383:9401   */\n  add\n    /* \"#utility.yul\":9375:9401   */\n  swap1\n  pop\n    /* \"#utility.yul\":9447:9456   */\n  dup2\n    /* \"#utility.yul\":9441:9445   */\n  dup2\n    /* \"#utility.yul\":9437:9457   */\n  sub\n    /* \"#utility.yul\":9433:9434   */\n  0x00\n    /* \"#utility.yul\":9422:9431   */\n  dup4\n    /* \"#utility.yul\":9418:9435   */\n  add\n    /* \"#utility.yul\":9411:9458   */\n  mstore\n    /* \"#utility.yul\":9475:9606   */\n  tag_162\n    /* \"#utility.yul\":9601:9605   */\n  dup2\n    /* \"#utility.yul\":9475:9606   */\n  tag_54\n  jump\t// in\ntag_162:\n    /* \"#utility.yul\":9467:9606   */\n  swap1\n  pop\n    /* \"#utility.yul\":9194:9613   */\n  swap2\n  swap1\n  pop\n  jump\t// out\n    /* \"#utility.yul\":9619:9799   */\ntag_55:\n    /* \"#utility.yul\":9667:9744   */\n  0x4e487b7100000000000000000000000000000000000000000000000000000000\n    /* \"#utility.yul\":9664:9665   */\n  0x00\n    /* \"#utility.yul\":9657:9745   */\n  mstore\n    /* \"#utility.yul\":9764:9768   */\n  0x11\n    /* \"#utility.yul\":9761:9762   */\n  0x04\n    /* \"#utility.yul\":9754:9769   */\n  mstore\n    /* \"#utility.yul\":9788:9792   */\n  0x24\n    /* \"#utility.yul\":9785:9786   */\n  0x00\n    /* \"#utility.yul\":9778:9793   */\n  revert\n    /* \"#utility.yul\":9805:9996   */\ntag_17:\n    /* \"#utility.yul\":9845:9848   */\n  0x00\n    /* \"#utility.yul\":9864:9884   */\n  tag_165\n    /* \"#utility.yul\":9882:9883   */\n  dup3\n    /* \"#utility.yul\":9864:9884   */\n  tag_40\n  jump\t// in\ntag_165:\n    /* \"#utility.yul\":9859:9884   */\n  swap2\n  pop\n    /* \"#utility.yul\":9898:9918   */\n  tag_166\n    /* \"#utility.yul\":9916:9917   */\n  dup4\n    /* \"#utility.yul\":9898:9918   */\n  tag_40\n  jump\t// in\ntag_166:\n    /* \"#utility.yul\":9893:9918   */\n  swap3\n  pop\n    /* \"#utility.yul\":9941:9942   */\n  dup3\n    /* \"#utility.yul\":9938:9939   */\n  dup3\n    /* \"#utility.yul\":9934:9943   */\n  add\n    /* \"#utility.yul\":9927:9943   */\n  swap1\n  pop\n    /* \"#utility.yul\":9962:9965   */\n  dup1\n    /* \"#utility.yul\":9959:9960   */\n  dup3\n    /* \"#utility.yul\":9956:9966   */\n  gt\n    /* \"#utility.yul\":9953:9989   */\n  iszero\n  tag_167\n  jumpi\n    /* \"#utility.yul\":9969:9987   */\n  tag_168\n  tag_55\n  jump\t// in\ntag_168:\n    /* \"#utility.yul\":9953:9989   */\ntag_167:\n    /* \"#utility.yul\":9805:9996   */\n  swap3\n  swap2\n  pop\n  pop\n  jump\t// out\n    /* \"#utility.yul\":10002:10120   */\ntag_56:\n    /* \"#utility.yul\":10089:10113   */\n  tag_170\n    /* \"#utility.yul\":10107:10112   */\n  dup2\n    /* \"#utility.yul\":10089:10113   */\n  tag_40\n  jump\t// in\ntag_170:\n    /* \"#utility.yul\":10084:10087   */\n  dup3\n    /* \"#utility.yul\":10077:10114   */\n  mstore\n    /* \"#utility.yul\":10002:10120   */\n  pop\n  pop\n  jump\t// out\n    /* \"#utility.yul\":10126:10348   */\ntag_19:\n    /* \"#utility.yul\":10219:10223   */\n  0x00\n    /* \"#utility.yul\":10257:10259   */\n  0x20\n    /* \"#utility.yul\":10246:10255   */\n  dup3\n    /* \"#utility.yul\":10242:10260   */\n  add\n    /* \"#utility.yul\":10234:10260   */\n  swap1\n  pop\n    /* \"#utility.yul\":10270:10341   */\n  tag_172\n    /* \"#utility.yul\":10338:10339   */\n  0x00\n    /* \"#utility.yul\":10327:10336   */\n  dup4\n    /* \"#utility.yul\":10323:10340   */\n  add\n    /* \"#utility.yul\":10314:10320   */\n  dup5\n    /* \"#utility.yul\":10270:10341   */\n  tag_56\n  jump\t// in\ntag_172:\n    /* \"#utility.yul\":10126:10348   */\n  swap3\n  swap2\n  pop\n  pop\n  jump\t// out\n    /* \"JERC20.sol\":2379:9549  contract MyToken is IJERC20 {... */\ntag_11:\n  dataSize(sub_0)\n  dup1\n  dataOffset(sub_0)\n  0x00\n  codecopy\n  0x00\n  return\nstop\n\nsub_0: assembly {\n        /* \"JERC20.sol\":2379:9549  contract MyToken is IJERC20 {... */\n      mstore(0x40, 0x80)\n      callvalue\n      dup1\n      iszero\n      tag_1\n      jumpi\n      0x00\n      dup1\n      revert\n    tag_1:\n      pop\n      jumpi(tag_2, lt(calldatasize, 0x04))\n      shr(0xe0, calldataload(0x00))\n      dup1\n      0x313ce567\n      gt\n      tag_13\n      jumpi\n      dup1\n      0x313ce567\n      eq\n      tag_8\n      jumpi\n      dup1\n      0x70a08231\n      eq\n      tag_9\n      jumpi\n      dup1\n      0x95d89b41\n      eq\n      tag_10\n      jumpi\n      dup1\n      0xa9059cbb\n      eq\n      tag_11\n      jumpi\n      dup1\n      0xdd62ed3e\n      eq\n      tag_12\n      jumpi\n      jump(tag_2)\n    tag_13:\n      dup1\n      0x06fdde03\n      eq\n      tag_3\n      jumpi\n      dup1\n      0x095ea7b3\n      eq\n      tag_4\n      jumpi\n      dup1\n      0x18160ddd\n      eq\n      tag_5\n      jumpi\n      dup1\n      0x23b872dd\n      eq\n      tag_6\n      jumpi\n      dup1\n      0x256fa241\n      eq\n      tag_7\n      jumpi\n    tag_2:\n      0x00\n      dup1\n      revert\n        /* \"JERC20.sol\":3014:3105  function name() public view virtual returns (string memory) {... */\n    tag_3:\n      tag_14\n      tag_15\n      jump\t// in\n    tag_14:\n      mload(0x40)\n      tag_16\n      swap2\n      swap1\n      tag_17\n      jump\t// in\n    tag_16:\n      mload(0x40)\n      dup1\n      swap2\n      sub\n      swap1\n      return\n        /* \"JERC20.sol\":5103:5302  function approve(address spender, uint256 amount) public virtual override returns (bool) {... */\n    tag_4:\n      tag_18\n      0x04\n      dup1\n      calldatasize\n      sub\n      dup2\n      add\n      swap1\n      tag_19\n      swap2\n      swap1\n      tag_20\n      jump\t// in\n    tag_19:\n      tag_21\n      jump\t// in\n    tag_18:\n      mload(0x40)\n      tag_22\n      swap2\n      swap1\n      tag_23\n      jump\t// in\n    tag_22:\n      mload(0x40)\n      dup1\n      swap2\n      sub\n      swap1\n      return\n        /* \"JERC20.sol\":3492:3600  function totalSupply() public view virtual override returns (uint256) {... */\n    tag_5:\n      tag_24\n      tag_25\n      jump\t// in\n    tag_24:\n      mload(0x40)\n      tag_26\n      swap2\n      swap1\n      tag_27\n      jump\t// in\n    tag_26:\n      mload(0x40)\n      dup1\n      swap2\n      sub\n      swap1\n      return\n        /* \"JERC20.sol\":5701:5994  function transferFrom(... */\n    tag_6:\n      tag_28\n      0x04\n      dup1\n      calldatasize\n      sub\n      dup2\n      add\n      swap1\n      tag_29\n      swap2\n      swap1\n      tag_30\n      jump\t// in\n    tag_29:\n      tag_31\n      jump\t// in\n    tag_28:\n      mload(0x40)\n      tag_32\n      swap2\n      swap1\n      tag_23\n      jump\t// in\n    tag_32:\n      mload(0x40)\n      dup1\n      swap2\n      sub\n      swap1\n      return\n        /* \"JERC20.sol\":7323:7522  function distributeTokens(address[] memory recipients, uint256 amount) public {... */\n    tag_7:\n      tag_33\n      0x04\n      dup1\n      calldatasize\n      sub\n      dup2\n      add\n      swap1\n      tag_34\n      swap2\n      swap1\n      tag_35\n      jump\t// in\n    tag_34:\n      tag_36\n      jump\t// in\n    tag_33:\n      stop\n        /* \"JERC20.sol\":3343:3427  function decimals() public view virtual returns (uint8) {... */\n    tag_8:\n      tag_37\n      tag_38\n      jump\t// in\n    tag_37:\n      mload(0x40)\n      tag_39\n      swap2\n      swap1\n      tag_40\n      jump\t// in\n    tag_39:\n      mload(0x40)\n      dup1\n      swap2\n      sub\n      swap1\n      return\n        /* \"JERC20.sol\":3757:3884  function balanceOf(address account) public view virtual override returns (uint256) {... */\n    tag_9:\n      tag_41\n      0x04\n      dup1\n      calldatasize\n      sub\n      dup2\n      add\n      swap1\n      tag_42\n      swap2\n      swap1\n      tag_43\n      jump\t// in\n    tag_42:\n      tag_44\n      jump\t// in\n    tag_41:\n      mload(0x40)\n      tag_45\n      swap2\n      swap1\n      tag_27\n      jump\t// in\n    tag_45:\n      mload(0x40)\n      dup1\n      swap2\n      sub\n      swap1\n      return\n        /* \"JERC20.sol\":3197:3292  function symbol() public view virtual returns (string memory) {... */\n    tag_10:\n      tag_46\n      tag_47\n      jump\t// in\n    tag_46:\n      mload(0x40)\n      tag_48\n      swap2\n      swap1\n      tag_17\n      jump\t// in\n    tag_48:\n      mload(0x40)\n      dup1\n      swap2\n      sub\n      swap1\n      return\n        /* \"JERC20.sol\":4163:4354  function transfer(address to, uint256 amount) public virtual override returns (bool) {... */\n    tag_11:\n      tag_49\n      0x04\n      dup1\n      calldatasize\n      sub\n      dup2\n      add\n      swap1\n      tag_50\n      swap2\n      swap1\n      tag_20\n      jump\t// in\n    tag_50:\n      tag_51\n      jump\t// in\n    tag_49:\n      mload(0x40)\n      tag_52\n      swap2\n      swap1\n      tag_23\n      jump\t// in\n    tag_52:\n      mload(0x40)\n      dup1\n      swap2\n      sub\n      swap1\n      return\n        /* \"JERC20.sol\":4662:4813  function allowance(address owner, address spender) public view virtual override returns (uint256) {... */\n    tag_12:\n      tag_53\n      0x04\n      dup1\n      calldatasize\n      sub\n      dup2\n      add\n      swap1\n      tag_54\n      swap2\n      swap1\n      tag_55\n      jump\t// in\n    tag_54:\n      tag_56\n      jump\t// in\n    tag_53:\n      mload(0x40)\n      tag_57\n      swap2\n      swap1\n      tag_27\n      jump\t// in\n    tag_57:\n      mload(0x40)\n      dup1\n      swap2\n      sub\n      swap1\n      return\n        /* \"JERC20.sol\":3014:3105  function name() public view virtual returns (string memory) {... */\n    tag_15:\n        /* \"JERC20.sol\":3059:3072  string memory */\n      0x60\n        /* \"JERC20.sol\":3092:3097  _name */\n      0x03\n        /* \"JERC20.sol\":3085:3097  return _name */\n      dup1\n      sload\n      tag_59\n      swap1\n      tag_60\n      jump\t// in\n    tag_59:\n      dup1\n      0x1f\n      add\n      0x20\n      dup1\n      swap2\n      div\n      mul\n      0x20\n      add\n      mload(0x40)\n      swap1\n      dup2\n      add\n      0x40\n      mstore\n      dup1\n      swap3\n      swap2\n      swap1\n      dup2\n      dup2\n      mstore\n      0x20\n      add\n      dup3\n      dup1\n      sload\n      tag_61\n      swap1\n      tag_60\n      jump\t// in\n    tag_61:\n      dup1\n      iszero\n      tag_62\n      jumpi\n      dup1\n      0x1f\n      lt\n      tag_63\n      jumpi\n      0x0100\n      dup1\n      dup4\n      sload\n      div\n      mul\n      dup4\n      mstore\n      swap2\n      0x20\n      add\n      swap2\n      jump(tag_62)\n    tag_63:\n      dup3\n      add\n      swap2\n      swap1\n      0x00\n      mstore\n      keccak256(0x00, 0x20)\n      swap1\n    tag_64:\n      dup2\n      sload\n      dup2\n      mstore\n      swap1\n      0x01\n      add\n      swap1\n      0x20\n      add\n      dup1\n      dup4\n      gt\n      tag_64\n      jumpi\n      dup3\n      swap1\n      sub\n      0x1f\n      and\n      dup3\n      add\n      swap2\n    tag_62:\n      pop\n      pop\n      pop\n      pop\n      pop\n      swap1\n      pop\n        /* \"JERC20.sol\":3014:3105  function name() public view virtual returns (string memory) {... */\n      swap1\n      jump\t// out\n        /* \"JERC20.sol\":5103:5302  function approve(address spender, uint256 amount) public virtual override returns (bool) {... */\n    tag_21:\n        /* \"JERC20.sol\":5186:5190  bool */\n      0x00\n        /* \"JERC20.sol\":5203:5216  address owner */\n      dup1\n        /* \"JERC20.sol\":5219:5229  msg.sender */\n      caller\n        /* \"JERC20.sol\":5203:5229  address owner = msg.sender */\n      swap1\n      pop\n        /* \"JERC20.sol\":5240:5272  _approve(owner, spender, amount) */\n      tag_66\n        /* \"JERC20.sol\":5249:5254  owner */\n      dup2\n        /* \"JERC20.sol\":5256:5263  spender */\n      dup6\n        /* \"JERC20.sol\":5265:5271  amount */\n      dup6\n        /* \"JERC20.sol\":5240:5248  _approve */\n      tag_67\n        /* \"JERC20.sol\":5240:5272  _approve(owner, spender, amount) */\n      jump\t// in\n    tag_66:\n        /* \"JERC20.sol\":5290:5294  true */\n      0x01\n        /* \"JERC20.sol\":5283:5294  return true */\n      swap2\n      pop\n      pop\n        /* \"JERC20.sol\":5103:5302  function approve(address spender, uint256 amount) public virtual override returns (bool) {... */\n      swap3\n      swap2\n      pop\n      pop\n      jump\t// out\n        /* \"JERC20.sol\":3492:3600  function totalSupply() public view virtual override returns (uint256) {... */\n    tag_25:\n        /* \"JERC20.sol\":3553:3560  uint256 */\n      0x00\n        /* \"JERC20.sol\":3580:3592  _totalSupply */\n      sload(0x02)\n        /* \"JERC20.sol\":3573:3592  return _totalSupply */\n      swap1\n      pop\n        /* \"JERC20.sol\":3492:3600  function totalSupply() public view virtual override returns (uint256) {... */\n      swap1\n      jump\t// out\n        /* \"JERC20.sol\":5701:5994  function transferFrom(... */\n    tag_31:\n        /* \"JERC20.sol\":5832:5836  bool */\n      0x00\n        /* \"JERC20.sol\":5849:5864  address spender */\n      dup1\n        /* \"JERC20.sol\":5867:5877  msg.sender */\n      caller\n        /* \"JERC20.sol\":5849:5877  address spender = msg.sender */\n      swap1\n      pop\n        /* \"JERC20.sol\":5888:5926  _spendAllowance(from, spender, amount) */\n      tag_70\n        /* \"JERC20.sol\":5904:5908  from */\n      dup6\n        /* \"JERC20.sol\":5910:5917  spender */\n      dup3\n        /* \"JERC20.sol\":5919:5925  amount */\n      dup6\n        /* \"JERC20.sol\":5888:5903  _spendAllowance */\n      tag_71\n        /* \"JERC20.sol\":5888:5926  _spendAllowance(from, spender, amount) */\n      jump\t// in\n    tag_70:\n        /* \"JERC20.sol\":5937:5964  _transfer(from, to, amount) */\n      tag_72\n        /* \"JERC20.sol\":5947:5951  from */\n      dup6\n        /* \"JERC20.sol\":5953:5955  to */\n      dup6\n        /* \"JERC20.sol\":5957:5963  amount */\n      dup6\n        /* \"JERC20.sol\":5937:5946  _transfer */\n      tag_73\n        /* \"JERC20.sol\":5937:5964  _transfer(from, to, amount) */\n      jump\t// in\n    tag_72:\n        /* \"JERC20.sol\":5982:5986  true */\n      0x01\n        /* \"JERC20.sol\":5975:5986  return true */\n      swap2\n      pop\n      pop\n        /* \"JERC20.sol\":5701:5994  function transferFrom(... */\n      swap4\n      swap3\n      pop\n      pop\n      pop\n      jump\t// out\n        /* \"JERC20.sol\":7323:7522  function distributeTokens(address[] memory recipients, uint256 amount) public {... */\n    tag_36:\n        /* \"JERC20.sol\":7417:7426  uint256 i */\n      0x00\n        /* \"JERC20.sol\":7412:7515  for (uint256 i = 0; i < recipients.length; i++) {... */\n    tag_75:\n        /* \"JERC20.sol\":7436:7446  recipients */\n      dup3\n        /* \"JERC20.sol\":7436:7453  recipients.length */\n      mload\n        /* \"JERC20.sol\":7432:7433  i */\n      dup2\n        /* \"JERC20.sol\":7432:7453  i < recipients.length */\n      lt\n        /* \"JERC20.sol\":7412:7515  for (uint256 i = 0; i < recipients.length; i++) {... */\n      iszero\n      tag_76\n      jumpi\n        /* \"JERC20.sol\":7475:7503  _mint(recipients[i], amount) */\n      tag_78\n        /* \"JERC20.sol\":7481:7491  recipients */\n      dup4\n        /* \"JERC20.sol\":7492:7493  i */\n      dup3\n        /* \"JERC20.sol\":7481:7494  recipients[i] */\n      dup2\n      mload\n      dup2\n      lt\n      tag_79\n      jumpi\n      tag_80\n      tag_81\n      jump\t// in\n    tag_80:\n    tag_79:\n      0x20\n      mul\n      0x20\n      add\n      add\n      mload\n        /* \"JERC20.sol\":7496:7502  amount */\n      dup4\n        /* \"JERC20.sol\":7475:7480  _mint */\n      tag_82\n        /* \"JERC20.sol\":7475:7503  _mint(recipients[i], amount) */\n      jump\t// in\n    tag_78:\n        /* \"JERC20.sol\":7455:7458  i++ */\n      dup1\n      dup1\n      0x01\n      add\n      swap2\n      pop\n      pop\n        /* \"JERC20.sol\":7412:7515  for (uint256 i = 0; i < recipients.length; i++) {... */\n      jump(tag_75)\n    tag_76:\n      pop\n        /* \"JERC20.sol\":7323:7522  function distributeTokens(address[] memory recipients, uint256 amount) public {... */\n      pop\n      pop\n      jump\t// out\n        /* \"JERC20.sol\":3343:3427  function decimals() public view virtual returns (uint8) {... */\n    tag_38:\n        /* \"JERC20.sol\":3392:3397  uint8 */\n      0x00\n        /* \"JERC20.sol\":3417:3419  18 */\n      0x12\n        /* \"JERC20.sol\":3410:3419  return 18 */\n      swap1\n      pop\n        /* \"JERC20.sol\":3343:3427  function decimals() public view virtual returns (uint8) {... */\n      swap1\n      jump\t// out\n        /* \"JERC20.sol\":3757:3884  function balanceOf(address account) public view virtual override returns (uint256) {... */\n    tag_44:\n        /* \"JERC20.sol\":3831:3838  uint256 */\n      0x00\n        /* \"JERC20.sol\":3858:3867  _balances */\n      dup1\n        /* \"JERC20.sol\":3858:3876  _balances[account] */\n      0x00\n        /* \"JERC20.sol\":3868:3875  account */\n      dup4\n        /* \"JERC20.sol\":3858:3876  _balances[account] */\n      0xffffffffffffffffffffffffffffffffffffffff\n      and\n      0xffffffffffffffffffffffffffffffffffffffff\n      and\n      dup2\n      mstore\n      0x20\n      add\n      swap1\n      dup2\n      mstore\n      0x20\n      add\n      0x00\n      keccak256\n      sload\n        /* \"JERC20.sol\":3851:3876  return _balances[account] */\n      swap1\n      pop\n        /* \"JERC20.sol\":3757:3884  function balanceOf(address account) public view virtual override returns (uint256) {... */\n      swap2\n      swap1\n      pop\n      jump\t// out\n        /* \"JERC20.sol\":3197:3292  function symbol() public view virtual returns (string memory) {... */\n    tag_47:\n        /* \"JERC20.sol\":3244:3257  string memory */\n      0x60\n        /* \"JERC20.sol\":3277:3284  _symbol */\n      0x04\n        /* \"JERC20.sol\":3270:3284  return _symbol */\n      dup1\n      sload\n      tag_86\n      swap1\n      tag_60\n      jump\t// in\n    tag_86:\n      dup1\n      0x1f\n      add\n      0x20\n      dup1\n      swap2\n      div\n      mul\n      0x20\n      add\n      mload(0x40)\n      swap1\n      dup2\n      add\n      0x40\n      mstore\n      dup1\n      swap3\n      swap2\n      swap1\n      dup2\n      dup2\n      mstore\n      0x20\n      add\n      dup3\n      dup1\n      sload\n      tag_87\n      swap1\n      tag_60\n      jump\t// in\n    tag_87:\n      dup1\n      iszero\n      tag_88\n      jumpi\n      dup1\n      0x1f\n      lt\n      tag_89\n      jumpi\n      0x0100\n      dup1\n      dup4\n      sload\n      div\n      mul\n      dup4\n      mstore\n      swap2\n      0x20\n      add\n      swap2\n      jump(tag_88)\n    tag_89:\n      dup3\n      add\n      swap2\n      swap1\n      0x00\n      mstore\n      keccak256(0x00, 0x20)\n      swap1\n    tag_90:\n      dup2\n      sload\n      dup2\n      mstore\n      swap1\n      0x01\n      add\n      swap1\n      0x20\n      add\n      dup1\n      dup4\n      gt\n      tag_90\n      jumpi\n      dup3\n      swap1\n      sub\n      0x1f\n      and\n      dup3\n      add\n      swap2\n    tag_88:\n      pop\n      pop\n      pop\n      pop\n      pop\n      swap1\n      pop\n        /* \"JERC20.sol\":3197:3292  function symbol() public view virtual returns (string memory) {... */\n      swap1\n      jump\t// out\n        /* \"JERC20.sol\":4163:4354  function transfer(address to, uint256 amount) public virtual override returns (bool) {... */\n    tag_51:\n        /* \"JERC20.sol\":4242:4246  bool */\n      0x00\n        /* \"JERC20.sol\":4259:4272  address owner */\n      dup1\n        /* \"JERC20.sol\":4275:4285  msg.sender */\n      caller\n        /* \"JERC20.sol\":4259:4285  address owner = msg.sender */\n      swap1\n      pop\n        /* \"JERC20.sol\":4296:4324  _transfer(owner, to, amount) */\n      tag_92\n        /* \"JERC20.sol\":4306:4311  owner */\n      dup2\n        /* \"JERC20.sol\":4313:4315  to */\n      dup6\n        /* \"JERC20.sol\":4317:4323  amount */\n      dup6\n        /* \"JERC20.sol\":4296:4305  _transfer */\n      tag_73\n        /* \"JERC20.sol\":4296:4324  _transfer(owner, to, amount) */\n      jump\t// in\n    tag_92:\n        /* \"JERC20.sol\":4342:4346  true */\n      0x01\n        /* \"JERC20.sol\":4335:4346  return true */\n      swap2\n      pop\n      pop\n        /* \"JERC20.sol\":4163:4354  function transfer(address to, uint256 amount) public virtual override returns (bool) {... */\n      swap3\n      swap2\n      pop\n      pop\n      jump\t// out\n        /* \"JERC20.sol\":4662:4813  function allowance(address owner, address spender) public view virtual override returns (uint256) {... */\n    tag_56:\n        /* \"JERC20.sol\":4751:4758  uint256 */\n      0x00\n        /* \"JERC20.sol\":4778:4789  _allowances */\n      0x01\n        /* \"JERC20.sol\":4778:4796  _allowances[owner] */\n      0x00\n        /* \"JERC20.sol\":4790:4795  owner */\n      dup5\n        /* \"JERC20.sol\":4778:4796  _allowances[owner] */\n      0xffffffffffffffffffffffffffffffffffffffff\n      and\n      0xffffffffffffffffffffffffffffffffffffffff\n      and\n      dup2\n      mstore\n      0x20\n      add\n      swap1\n      dup2\n      mstore\n      0x20\n      add\n      0x00\n      keccak256\n        /* \"JERC20.sol\":4778:4805  _allowances[owner][spender] */\n      0x00\n        /* \"JERC20.sol\":4797:4804  spender */\n      dup4\n        /* \"JERC20.sol\":4778:4805  _allowances[owner][spender] */\n      0xffffffffffffffffffffffffffffffffffffffff\n      and\n      0xffffffffffffffffffffffffffffffffffffffff\n      and\n      dup2\n      mstore\n      0x20\n      add\n      swap1\n      dup2\n      mstore\n      0x20\n      add\n      0x00\n      keccak256\n      sload\n        /* \"JERC20.sol\":4771:4805  return _allowances[owner][spender] */\n      swap1\n      pop\n        /* \"JERC20.sol\":4662:4813  function allowance(address owner, address spender) public view virtual override returns (uint256) {... */\n      swap3\n      swap2\n      pop\n      pop\n      jump\t// out\n        /* \"JERC20.sol\":8535:8895  function _approve(... */\n    tag_67:\n        /* \"JERC20.sol\":8688:8689  0 */\n      0x00\n        /* \"JERC20.sol\":8671:8690  owner != address(0) */\n      0xffffffffffffffffffffffffffffffffffffffff\n      and\n        /* \"JERC20.sol\":8671:8676  owner */\n      dup4\n        /* \"JERC20.sol\":8671:8690  owner != address(0) */\n      0xffffffffffffffffffffffffffffffffffffffff\n      and\n      sub\n        /* \"JERC20.sol\":8663:8721  require(owner != address(0), \"approve from the 0 address\") */\n      tag_95\n      jumpi\n      mload(0x40)\n      0x08c379a000000000000000000000000000000000000000000000000000000000\n      dup2\n      mstore\n      0x04\n      add\n      tag_96\n      swap1\n      tag_97\n      jump\t// in\n    tag_96:\n      mload(0x40)\n      dup1\n      swap2\n      sub\n      swap1\n      revert\n    tag_95:\n        /* \"JERC20.sol\":8759:8760  0 */\n      0x00\n        /* \"JERC20.sol\":8740:8761  spender != address(0) */\n      0xffffffffffffffffffffffffffffffffffffffff\n      and\n        /* \"JERC20.sol\":8740:8747  spender */\n      dup3\n        /* \"JERC20.sol\":8740:8761  spender != address(0) */\n      0xffffffffffffffffffffffffffffffffffffffff\n      and\n      sub\n        /* \"JERC20.sol\":8732:8790  require(spender != address(0), \"approve to the 0 address\") */\n      tag_98\n      jumpi\n      mload(0x40)\n      0x08c379a000000000000000000000000000000000000000000000000000000000\n      dup2\n      mstore\n      0x04\n      add\n      tag_99\n      swap1\n      tag_100\n      jump\t// in\n    tag_99:\n      mload(0x40)\n      dup1\n      swap2\n      sub\n      swap1\n      revert\n    tag_98:\n        /* \"JERC20.sol\":8833:8839  amount */\n      dup1\n        /* \"JERC20.sol\":8803:8814  _allowances */\n      0x01\n        /* \"JERC20.sol\":8803:8821  _allowances[owner] */\n      0x00\n        /* \"JERC20.sol\":8815:8820  owner */\n      dup6\n        /* \"JERC20.sol\":8803:8821  _allowances[owner] */\n      0xffffffffffffffffffffffffffffffffffffffff\n      and\n      0xffffffffffffffffffffffffffffffffffffffff\n      and\n      dup2\n      mstore\n      0x20\n      add\n      swap1\n      dup2\n      mstore\n      0x20\n      add\n      0x00\n      keccak256\n        /* \"JERC20.sol\":8803:8830  _allowances[owner][spender] */\n      0x00\n        /* \"JERC20.sol\":8822:8829  spender */\n      dup5\n        /* \"JERC20.sol\":8803:8830  _allowances[owner][spender] */\n      0xffffffffffffffffffffffffffffffffffffffff\n      and\n      0xffffffffffffffffffffffffffffffffffffffff\n      and\n      dup2\n      mstore\n      0x20\n      add\n      swap1\n      dup2\n      mstore\n      0x20\n      add\n      0x00\n      keccak256\n        /* \"JERC20.sol\":8803:8839  _allowances[owner][spender] = amount */\n      dup2\n      swap1\n      sstore\n      pop\n        /* \"JERC20.sol\":8871:8878  spender */\n      dup2\n        /* \"JERC20.sol\":8855:8887  Approval(owner, spender, amount) */\n      0xffffffffffffffffffffffffffffffffffffffff\n      and\n        /* \"JERC20.sol\":8864:8869  owner */\n      dup4\n        /* \"JERC20.sol\":8855:8887  Approval(owner, spender, amount) */\n      0xffffffffffffffffffffffffffffffffffffffff\n      and\n      0x8c5be1e5ebec7d5bd14f71427d1e84f3dd0314c0f7b2291e5b200ac8c7c3b925\n        /* \"JERC20.sol\":8880:8886  amount */\n      dup4\n        /* \"JERC20.sol\":8855:8887  Approval(owner, spender, amount) */\n      mload(0x40)\n      tag_101\n      swap2\n      swap1\n      tag_27\n      jump\t// in\n    tag_101:\n      mload(0x40)\n      dup1\n      swap2\n      sub\n      swap1\n      log3\n        /* \"JERC20.sol\":8535:8895  function _approve(... */\n      pop\n      pop\n      pop\n      jump\t// out\n        /* \"JERC20.sol\":9100:9546  function _spendAllowance(... */\n    tag_71:\n        /* \"JERC20.sol\":9235:9259  uint256 currentAllowance */\n      0x00\n        /* \"JERC20.sol\":9262:9287  allowance(owner, spender) */\n      tag_103\n        /* \"JERC20.sol\":9272:9277  owner */\n      dup5\n        /* \"JERC20.sol\":9279:9286  spender */\n      dup5\n        /* \"JERC20.sol\":9262:9271  allowance */\n      tag_56\n        /* \"JERC20.sol\":9262:9287  allowance(owner, spender) */\n      jump\t// in\n    tag_103:\n        /* \"JERC20.sol\":9235:9287  uint256 currentAllowance = allowance(owner, spender) */\n      swap1\n      pop\n        /* \"JERC20.sol\":9322:9339  type(uint256).max */\n      0xffffffffffffffffffffffffffffffffffffffffffffffffffffffffffffffff\n        /* \"JERC20.sol\":9302:9318  currentAllowance */\n      dup2\n        /* \"JERC20.sol\":9302:9339  currentAllowance != type(uint256).max */\n      eq\n        /* \"JERC20.sol\":9298:9539  if (currentAllowance != type(uint256).max) {... */\n      tag_104\n      jumpi\n        /* \"JERC20.sol\":9384:9390  amount */\n      dup2\n        /* \"JERC20.sol\":9364:9380  currentAllowance */\n      dup2\n        /* \"JERC20.sol\":9364:9390  currentAllowance >= amount */\n      lt\n      iszero\n        /* \"JERC20.sol\":9356:9417  require(currentAllowance >= amount, \"insufficient allowance\") */\n      tag_105\n      jumpi\n      mload(0x40)\n      0x08c379a000000000000000000000000000000000000000000000000000000000\n      dup2\n      mstore\n      0x04\n      add\n      tag_106\n      swap1\n      tag_107\n      jump\t// in\n    tag_106:\n      mload(0x40)\n      dup1\n      swap2\n      sub\n      swap1\n      revert\n    tag_105:\n        /* \"JERC20.sol\":9461:9512  _approve(owner, spender, currentAllowance - amount) */\n      tag_108\n        /* \"JERC20.sol\":9470:9475  owner */\n      dup5\n        /* \"JERC20.sol\":9477:9484  spender */\n      dup5\n        /* \"JERC20.sol\":9505:9511  amount */\n      dup5\n        /* \"JERC20.sol\":9486:9502  currentAllowance */\n      dup5\n        /* \"JERC20.sol\":9486:9511  currentAllowance - amount */\n      sub\n        /* \"JERC20.sol\":9461:9469  _approve */\n      tag_67\n        /* \"JERC20.sol\":9461:9512  _approve(owner, spender, currentAllowance - amount) */\n      jump\t// in\n    tag_108:\n        /* \"JERC20.sol\":9298:9539  if (currentAllowance != type(uint256).max) {... */\n    tag_104:\n        /* \"JERC20.sol\":9224:9546  {... */\n      pop\n        /* \"JERC20.sol\":9100:9546  function _spendAllowance(... */\n      pop\n      pop\n      pop\n      jump\t// out\n        /* \"JERC20.sol\":6399:7088  function _transfer(... */\n    tag_73:\n        /* \"JERC20.sol\":6546:6547  0 */\n      0x00\n        /* \"JERC20.sol\":6530:6548  from != address(0) */\n      0xffffffffffffffffffffffffffffffffffffffff\n      and\n        /* \"JERC20.sol\":6530:6534  from */\n      dup4\n        /* \"JERC20.sol\":6530:6548  from != address(0) */\n      0xffffffffffffffffffffffffffffffffffffffff\n      and\n      sub\n        /* \"JERC20.sol\":6522:6576  require(from != address(0), \"Transfer from address 0\") */\n      tag_110\n      jumpi\n      mload(0x40)\n      0x08c379a000000000000000000000000000000000000000000000000000000000\n      dup2\n      mstore\n      0x04\n      add\n      tag_111\n      swap1\n      tag_112\n      jump\t// in\n    tag_111:\n      mload(0x40)\n      dup1\n      swap2\n      sub\n      swap1\n      revert\n    tag_110:\n        /* \"JERC20.sol\":6609:6610  0 */\n      0x00\n        /* \"JERC20.sol\":6595:6611  to != address(0) */\n      0xffffffffffffffffffffffffffffffffffffffff\n      and\n        /* \"JERC20.sol\":6595:6597  to */\n      dup3\n        /* \"JERC20.sol\":6595:6611  to != address(0) */\n      0xffffffffffffffffffffffffffffffffffffffff\n      and\n      sub\n        /* \"JERC20.sol\":6587:6637  require(to != address(0), \"Transfer to address 0\") */\n      tag_113\n      jumpi\n      mload(0x40)\n      0x08c379a000000000000000000000000000000000000000000000000000000000\n      dup2\n      mstore\n      0x04\n      add\n      tag_114\n      swap1\n      tag_115\n      jump\t// in\n    tag_114:\n      mload(0x40)\n      dup1\n      swap2\n      sub\n      swap1\n      revert\n    tag_113:\n        /* \"JERC20.sol\":6650:6669  uint256 fromBalance */\n      0x00\n        /* \"JERC20.sol\":6672:6681  _balances */\n      dup1\n        /* \"JERC20.sol\":6672:6687  _balances[from] */\n      0x00\n        /* \"JERC20.sol\":6682:6686  from */\n      dup6\n        /* \"JERC20.sol\":6672:6687  _balances[from] */\n      0xffffffffffffffffffffffffffffffffffffffff\n      and\n      0xffffffffffffffffffffffffffffffffffffffff\n      and\n      dup2\n      mstore\n      0x20\n      add\n      swap1\n      dup2\n      mstore\n      0x20\n      add\n      0x00\n      keccak256\n      sload\n        /* \"JERC20.sol\":6650:6687  uint256 fromBalance = _balances[from] */\n      swap1\n      pop\n        /* \"JERC20.sol\":6721:6727  amount */\n      dup2\n        /* \"JERC20.sol\":6706:6717  fromBalance */\n      dup2\n        /* \"JERC20.sol\":6706:6727  fromBalance >= amount */\n      lt\n      iszero\n        /* \"JERC20.sol\":6698:6748  require(fromBalance >= amount, \"Balance exceeded\") */\n      tag_116\n      jumpi\n      mload(0x40)\n      0x08c379a000000000000000000000000000000000000000000000000000000000\n      dup2\n      mstore\n      0x04\n      add\n      tag_117\n      swap1\n      tag_118\n      jump\t// in\n    tag_117:\n      mload(0x40)\n      dup1\n      swap2\n      sub\n      swap1\n      revert\n    tag_116:\n        /* \"JERC20.sol\":6816:6822  amount */\n      dup2\n        /* \"JERC20.sol\":6802:6813  fromBalance */\n      dup2\n        /* \"JERC20.sol\":6802:6822  fromBalance - amount */\n      sub\n        /* \"JERC20.sol\":6784:6793  _balances */\n      0x00\n        /* \"JERC20.sol\":6784:6799  _balances[from] */\n      dup1\n        /* \"JERC20.sol\":6794:6798  from */\n      dup7\n        /* \"JERC20.sol\":6784:6799  _balances[from] */\n      0xffffffffffffffffffffffffffffffffffffffff\n      and\n      0xffffffffffffffffffffffffffffffffffffffff\n      and\n      dup2\n      mstore\n      0x20\n      add\n      swap1\n      dup2\n      mstore\n      0x20\n      add\n      0x00\n      keccak256\n        /* \"JERC20.sol\":6784:6822  _balances[from] = fromBalance - amount */\n      dup2\n      swap1\n      sstore\n      pop\n        /* \"JERC20.sol\":7019:7025  amount */\n      dup2\n        /* \"JERC20.sol\":7002:7011  _balances */\n      0x00\n        /* \"JERC20.sol\":7002:7015  _balances[to] */\n      dup1\n        /* \"JERC20.sol\":7012:7014  to */\n      dup6\n        /* \"JERC20.sol\":7002:7015  _balances[to] */\n      0xffffffffffffffffffffffffffffffffffffffff\n      and\n      0xffffffffffffffffffffffffffffffffffffffff\n      and\n      dup2\n      mstore\n      0x20\n      add\n      swap1\n      dup2\n      mstore\n      0x20\n      add\n      0x00\n      keccak256\n      0x00\n        /* \"JERC20.sol\":7002:7025  _balances[to] += amount */\n      dup3\n      dup3\n      sload\n      add\n      swap3\n      pop\n      pop\n      dup2\n      swap1\n      sstore\n      pop\n        /* \"JERC20.sol\":7069:7071  to */\n      dup3\n        /* \"JERC20.sol\":7054:7080  Transfer(from, to, amount) */\n      0xffffffffffffffffffffffffffffffffffffffff\n      and\n        /* \"JERC20.sol\":7063:7067  from */\n      dup5\n        /* \"JERC20.sol\":7054:7080  Transfer(from, to, amount) */\n      0xffffffffffffffffffffffffffffffffffffffff\n      and\n      0xddf252ad1be2c89b69c2b068fc378daa952ba7f163c4a11628f55a4df523b3ef\n        /* \"JERC20.sol\":7073:7079  amount */\n      dup5\n        /* \"JERC20.sol\":7054:7080  Transfer(from, to, amount) */\n      mload(0x40)\n      tag_119\n      swap2\n      swap1\n      tag_27\n      jump\t// in\n    tag_119:\n      mload(0x40)\n      dup1\n      swap2\n      sub\n      swap1\n      log3\n        /* \"JERC20.sol\":6511:7088  {... */\n      pop\n        /* \"JERC20.sol\":6399:7088  function _transfer(... */\n      pop\n      pop\n      pop\n      jump\t// out\n        /* \"JERC20.sol\":7810:8225  function _mint(address account, uint256 amount) internal virtual {... */\n    tag_82:\n        /* \"JERC20.sol\":7913:7914  0 */\n      0x00\n        /* \"JERC20.sol\":7894:7915  account != address(0) */\n      0xffffffffffffffffffffffffffffffffffffffff\n      and\n        /* \"JERC20.sol\":7894:7901  account */\n      dup3\n        /* \"JERC20.sol\":7894:7915  account != address(0) */\n      0xffffffffffffffffffffffffffffffffffffffff\n      and\n      sub\n        /* \"JERC20.sol\":7886:7941  require(account != address(0), \"mint to the 0 address\") */\n      tag_121\n      jumpi\n      mload(0x40)\n      0x08c379a000000000000000000000000000000000000000000000000000000000\n      dup2\n      mstore\n      0x04\n      add\n      tag_122\n      swap1\n      tag_123\n      jump\t// in\n    tag_122:\n      mload(0x40)\n      dup1\n      swap2\n      sub\n      swap1\n      revert\n    tag_121:\n        /* \"JERC20.sol\":7970:7976  amount */\n      dup1\n        /* \"JERC20.sol\":7954:7966  _totalSupply */\n      0x02\n      0x00\n        /* \"JERC20.sol\":7954:7976  _totalSupply += amount */\n      dup3\n      dup3\n      sload\n      tag_124\n      swap2\n      swap1\n      tag_125\n      jump\t// in\n    tag_124:\n      swap3\n      pop\n      pop\n      dup2\n      swap1\n      sstore\n      pop\n        /* \"JERC20.sol\":8147:8153  amount */\n      dup1\n        /* \"JERC20.sol\":8125:8134  _balances */\n      0x00\n        /* \"JERC20.sol\":8125:8143  _balances[account] */\n      dup1\n        /* \"JERC20.sol\":8135:8142  account */\n      dup5\n        /* \"JERC20.sol\":8125:8143  _balances[account] */\n      0xffffffffffffffffffffffffffffffffffffffff\n      and\n      0xffffffffffffffffffffffffffffffffffffffff\n      and\n      dup2\n      mstore\n      0x20\n      add\n      swap1\n      dup2\n      mstore\n      0x20\n      add\n      0x00\n      keccak256\n      0x00\n        /* \"JERC20.sol\":8125:8153  _balances[account] += amount */\n      dup3\n      dup3\n      sload\n      add\n      swap3\n      pop\n      pop\n      dup2\n      swap1\n      sstore\n      pop\n        /* \"JERC20.sol\":8201:8208  account */\n      dup2\n        /* \"JERC20.sol\":8180:8217  Transfer(address(0), account, amount) */\n      0xffffffffffffffffffffffffffffffffffffffff\n      and\n        /* \"JERC20.sol\":8197:8198  0 */\n      0x00\n        /* \"JERC20.sol\":8180:8217  Transfer(address(0), account, amount) */\n      0xffffffffffffffffffffffffffffffffffffffff\n      and\n      0xddf252ad1be2c89b69c2b068fc378daa952ba7f163c4a11628f55a4df523b3ef\n        /* \"JERC20.sol\":8210:8216  amount */\n      dup4\n        /* \"JERC20.sol\":8180:8217  Transfer(address(0), account, amount) */\n      mload(0x40)\n      tag_126\n      swap2\n      swap1\n      tag_27\n      jump\t// in\n    tag_126:\n      mload(0x40)\n      dup1\n      swap2\n      sub\n      swap1\n      log3\n        /* \"JERC20.sol\":7810:8225  function _mint(address account, uint256 amount) internal virtual {... */\n      pop\n      pop\n      jump\t// out\n        /* \"#utility.yul\":7:106   */\n    tag_127:\n        /* \"#utility.yul\":59:65   */\n      0x00\n        /* \"#utility.yul\":93:98   */\n      dup2\n        /* \"#utility.yul\":87:99   */\n      mload\n        /* \"#utility.yul\":77:99   */\n      swap1\n      pop\n        /* \"#utility.yul\":7:106   */\n      swap2\n      swap1\n      pop\n      jump\t// out\n        /* \"#utility.yul\":112:281   */\n    tag_128:\n        /* \"#utility.yul\":196:207   */\n      0x00\n        /* \"#utility.yul\":230:236   */\n      dup3\n        /* \"#utility.yul\":225:228   */\n      dup3\n        /* \"#utility.yul\":218:237   */\n      mstore\n        /* \"#utility.yul\":270:274   */\n      0x20\n        /* \"#utility.yul\":265:268   */\n      dup3\n        /* \"#utility.yul\":261:275   */\n      add\n        /* \"#utility.yul\":246:275   */\n      swap1\n      pop\n        /* \"#utility.yul\":112:281   */\n      swap3\n      swap2\n      pop\n      pop\n      jump\t// out\n        /* \"#utility.yul\":287:426   */\n    tag_129:\n        /* \"#utility.yul\":376:382   */\n      dup3\n        /* \"#utility.yul\":371:374   */\n      dup2\n        /* \"#utility.yul\":366:369   */\n      dup4\n        /* \"#utility.yul\":360:383   */\n      mcopy\n        /* \"#utility.yul\":417:418   */\n      0x00\n        /* \"#utility.yul\":408:414   */\n      dup4\n        /* \"#utility.yul\":403:406   */\n      dup4\n        /* \"#utility.yul\":399:415   */\n      add\n        /* \"#utility.yul\":392:419   */\n      mstore\n        /* \"#utility.yul\":287:426   */\n      pop\n      pop\n      pop\n      jump\t// out\n        /* \"#utility.yul\":432:534   */\n    tag_130:\n        /* \"#utility.yul\":473:479   */\n      0x00\n        /* \"#utility.yul\":524:526   */\n      0x1f\n        /* \"#utility.yul\":520:527   */\n      not\n        /* \"#utility.yul\":515:517   */\n      0x1f\n        /* \"#utility.yul\":508:513   */\n      dup4\n        /* \"#utility.yul\":504:518   */\n      add\n        /* \"#utility.yul\":500:528   */\n      and\n        /* \"#utility.yul\":490:528   */\n      swap1\n      pop\n        /* \"#utility.yul\":432:534   */\n      swap2\n      swap1\n      pop\n      jump\t// out\n        /* \"#utility.yul\":540:917   */\n    tag_131:\n        /* \"#utility.yul\":628:631   */\n      0x00\n        /* \"#utility.yul\":656:695   */\n      tag_177\n        /* \"#utility.yul\":689:694   */\n      dup3\n        /* \"#utility.yul\":656:695   */\n      tag_127\n      jump\t// in\n    tag_177:\n        /* \"#utility.yul\":711:782   */\n      tag_178\n        /* \"#utility.yul\":775:781   */\n      dup2\n        /* \"#utility.yul\":770:773   */\n      dup6\n        /* \"#utility.yul\":711:782   */\n      tag_128\n      jump\t// in\n    tag_178:\n        /* \"#utility.yul\":704:782   */\n      swap4\n      pop\n        /* \"#utility.yul\":791:856   */\n      tag_179\n        /* \"#utility.yul\":849:855   */\n      dup2\n        /* \"#utility.yul\":844:847   */\n      dup6\n        /* \"#utility.yul\":837:841   */\n      0x20\n        /* \"#utility.yul\":830:835   */\n      dup7\n        /* \"#utility.yul\":826:842   */\n      add\n        /* \"#utility.yul\":791:856   */\n      tag_129\n      jump\t// in\n    tag_179:\n        /* \"#utility.yul\":881:910   */\n      tag_180\n        /* \"#utility.yul\":903:909   */\n      dup2\n        /* \"#utility.yul\":881:910   */\n      tag_130\n      jump\t// in\n    tag_180:\n        /* \"#utility.yul\":876:879   */\n      dup5\n        /* \"#utility.yul\":872:911   */\n      add\n        /* \"#utility.yul\":865:911   */\n      swap2\n      pop\n        /* \"#utility.yul\":632:917   */\n      pop\n        /* \"#utility.yul\":540:917   */\n      swap3\n      swap2\n      pop\n      pop\n      jump\t// out\n        /* \"#utility.yul\":923:1236   */\n    tag_17:\n        /* \"#utility.yul\":1036:1040   */\n      0x00\n        /* \"#utility.yul\":1074:1076   */\n      0x20\n        /* \"#utility.yul\":1063:1072   */\n      dup3\n        /* \"#utility.yul\":1059:1077   */\n      add\n        /* \"#utility.yul\":1051:1077   */\n      swap1\n      pop\n        /* \"#utility.yul\":1123:1132   */\n      dup2\n        /* \"#utility.yul\":1117:1121   */\n      dup2\n        /* \"#utility.yul\":1113:1133   */\n      sub\n        /* \"#utility.yul\":1109:1110   */\n      0x00\n        /* \"#utility.yul\":1098:1107   */\n      dup4\n        /* \"#utility.yul\":1094:1111   */\n      add\n        /* \"#utility.yul\":1087:1134   */\n      mstore\n        /* \"#utility.yul\":1151:1229   */\n      tag_182\n        /* \"#utility.yul\":1224:1228   */\n      dup2\n        /* \"#utility.yul\":1215:1221   */\n      dup5\n        /* \"#utility.yul\":1151:1229   */\n      tag_131\n      jump\t// in\n    tag_182:\n        /* \"#utility.yul\":1143:1229   */\n      swap1\n      pop\n        /* \"#utility.yul\":923:1236   */\n      swap3\n      swap2\n      pop\n      pop\n      jump\t// out\n        /* \"#utility.yul\":1242:1317   */\n    tag_132:\n        /* \"#utility.yul\":1275:1281   */\n      0x00\n        /* \"#utility.yul\":1308:1310   */\n      0x40\n        /* \"#utility.yul\":1302:1311   */\n      mload\n        /* \"#utility.yul\":1292:1311   */\n      swap1\n      pop\n        /* \"#utility.yul\":1242:1317   */\n      swap1\n      jump\t// out\n        /* \"#utility.yul\":1323:1440   */\n    tag_133:\n        /* \"#utility.yul\":1432:1433   */\n      0x00\n        /* \"#utility.yul\":1429:1430   */\n      dup1\n        /* \"#utility.yul\":1422:1434   */\n      revert\n        /* \"#utility.yul\":1446:1563   */\n    tag_134:\n        /* \"#utility.yul\":1555:1556   */\n      0x00\n        /* \"#utility.yul\":1552:1553   */\n      dup1\n        /* \"#utility.yul\":1545:1557   */\n      revert\n        /* \"#utility.yul\":1569:1695   */\n    tag_135:\n        /* \"#utility.yul\":1606:1613   */\n      0x00\n        /* \"#utility.yul\":1646:1688   */\n      0xffffffffffffffffffffffffffffffffffffffff\n        /* \"#utility.yul\":1639:1644   */\n      dup3\n        /* \"#utility.yul\":1635:1689   */\n      and\n        /* \"#utility.yul\":1624:1689   */\n      swap1\n      pop\n        /* \"#utility.yul\":1569:1695   */\n      swap2\n      swap1\n      pop\n      jump\t// out\n        /* \"#utility.yul\":1701:1797   */\n    tag_136:\n        /* \"#utility.yul\":1738:1745   */\n      0x00\n        /* \"#utility.yul\":1767:1791   */\n      tag_188\n        /* \"#utility.yul\":1785:1790   */\n      dup3\n        /* \"#utility.yul\":1767:1791   */\n      tag_135\n      jump\t// in\n    tag_188:\n        /* \"#utility.yul\":1756:1791   */\n      swap1\n      pop\n        /* \"#utility.yul\":1701:1797   */\n      swap2\n      swap1\n      pop\n      jump\t// out\n        /* \"#utility.yul\":1803:1925   */\n    tag_137:\n        /* \"#utility.yul\":1876:1900   */\n      tag_190\n        /* \"#utility.yul\":1894:1899   */\n      dup2\n        /* \"#utility.yul\":1876:1900   */\n      tag_136\n      jump\t// in\n    tag_190:\n        /* \"#utility.yul\":1869:1874   */\n      dup2\n        /* \"#utility.yul\":1866:1901   */\n      eq\n        /* \"#utility.yul\":1856:1919   */\n      tag_191\n      jumpi\n        /* \"#utility.yul\":1915:1916   */\n      0x00\n        /* \"#utility.yul\":1912:1913   */\n      dup1\n        /* \"#utility.yul\":1905:1917   */\n      revert\n        /* \"#utility.yul\":1856:1919   */\n    tag_191:\n        /* \"#utility.yul\":1803:1925   */\n      pop\n      jump\t// out\n        /* \"#utility.yul\":1931:2070   */\n    tag_138:\n        /* \"#utility.yul\":1977:1982   */\n      0x00\n        /* \"#utility.yul\":2015:2021   */\n      dup2\n        /* \"#utility.yul\":2002:2022   */\n      calldataload\n        /* \"#utility.yul\":1993:2022   */\n      swap1\n      pop\n        /* \"#utility.yul\":2031:2064   */\n      tag_193\n        /* \"#utility.yul\":2058:2063   */\n      dup2\n        /* \"#utility.yul\":2031:2064   */\n      tag_137\n      jump\t// in\n    tag_193:\n        /* \"#utility.yul\":1931:2070   */\n      swap3\n      swap2\n      pop\n      pop\n      jump\t// out\n        /* \"#utility.yul\":2076:2153   */\n    tag_139:\n        /* \"#utility.yul\":2113:2120   */\n      0x00\n        /* \"#utility.yul\":2142:2147   */\n      dup2\n        /* \"#utility.yul\":2131:2147   */\n      swap1\n      pop\n        /* \"#utility.yul\":2076:2153   */\n      swap2\n      swap1\n      pop\n      jump\t// out\n        /* \"#utility.yul\":2159:2281   */\n    tag_140:\n        /* \"#utility.yul\":2232:2256   */\n      tag_196\n        /* \"#utility.yul\":2250:2255   */\n      dup2\n        /* \"#utility.yul\":2232:2256   */\n      tag_139\n      jump\t// in\n    tag_196:\n        /* \"#utility.yul\":2225:2230   */\n      dup2\n        /* \"#utility.yul\":2222:2257   */\n      eq\n        /* \"#utility.yul\":2212:2275   */\n      tag_197\n      jumpi\n        /* \"#utility.yul\":2271:2272   */\n      0x00\n        /* \"#utility.yul\":2268:2269   */\n      dup1\n        /* \"#utility.yul\":2261:2273   */\n      revert\n        /* \"#utility.yul\":2212:2275   */\n    tag_197:\n        /* \"#utility.yul\":2159:2281   */\n      pop\n      jump\t// out\n        /* \"#utility.yul\":2287:2426   */\n    tag_141:\n        /* \"#utility.yul\":2333:2338   */\n      0x00\n        /* \"#utility.yul\":2371:2377   */\n      dup2\n        /* \"#utility.yul\":2358:2378   */\n      calldataload\n        /* \"#utility.yul\":2349:2378   */\n      swap1\n      pop\n        /* \"#utility.yul\":2387:2420   */\n      tag_199\n        /* \"#utility.yul\":2414:2419   */\n      dup2\n        /* \"#utility.yul\":2387:2420   */\n      tag_140\n      jump\t// in\n    tag_199:\n        /* \"#utility.yul\":2287:2426   */\n      swap3\n      swap2\n      pop\n      pop\n      jump\t// out\n        /* \"#utility.yul\":2432:2906   */\n    tag_20:\n        /* \"#utility.yul\":2500:2506   */\n      0x00\n        /* \"#utility.yul\":2508:2514   */\n      dup1\n        /* \"#utility.yul\":2557:2559   */\n      0x40\n        /* \"#utility.yul\":2545:2554   */\n      dup4\n        /* \"#utility.yul\":2536:2543   */\n      dup6\n        /* \"#utility.yul\":2532:2555   */\n      sub\n        /* \"#utility.yul\":2528:2560   */\n      slt\n        /* \"#utility.yul\":2525:2644   */\n      iszero\n      tag_201\n      jumpi\n        /* \"#utility.yul\":2563:2642   */\n      tag_202\n      tag_133\n      jump\t// in\n    tag_202:\n        /* \"#utility.yul\":2525:2644   */\n    tag_201:\n        /* \"#utility.yul\":2683:2684   */\n      0x00\n        /* \"#utility.yul\":2708:2761   */\n      tag_203\n        /* \"#utility.yul\":2753:2760   */\n      dup6\n        /* \"#utility.yul\":2744:2750   */\n      dup3\n        /* \"#utility.yul\":2733:2742   */\n      dup7\n        /* \"#utility.yul\":2729:2751   */\n      add\n        /* \"#utility.yul\":2708:2761   */\n      tag_138\n      jump\t// in\n    tag_203:\n        /* \"#utility.yul\":2698:2761   */\n      swap3\n      pop\n        /* \"#utility.yul\":2654:2771   */\n      pop\n        /* \"#utility.yul\":2810:2812   */\n      0x20\n        /* \"#utility.yul\":2836:2889   */\n      tag_204\n        /* \"#utility.yul\":2881:2888   */\n      dup6\n        /* \"#utility.yul\":2872:2878   */\n      dup3\n        /* \"#utility.yul\":2861:2870   */\n      dup7\n        /* \"#utility.yul\":2857:2879   */\n      add\n        /* \"#utility.yul\":2836:2889   */\n      tag_141\n      jump\t// in\n    tag_204:\n        /* \"#utility.yul\":2826:2889   */\n      swap2\n      pop\n        /* \"#utility.yul\":2781:2899   */\n      pop\n        /* \"#utility.yul\":2432:2906   */\n      swap3\n      pop\n      swap3\n      swap1\n      pop\n      jump\t// out\n        /* \"#utility.yul\":2912:3002   */\n    tag_142:\n        /* \"#utility.yul\":2946:2953   */\n      0x00\n        /* \"#utility.yul\":2989:2994   */\n      dup2\n        /* \"#utility.yul\":2982:2995   */\n      iszero\n        /* \"#utility.yul\":2975:2996   */\n      iszero\n        /* \"#utility.yul\":2964:2996   */\n      swap1\n      pop\n        /* \"#utility.yul\":2912:3002   */\n      swap2\n      swap1\n      pop\n      jump\t// out\n        /* \"#utility.yul\":3008:3117   */\n    tag_143:\n        /* \"#utility.yul\":3089:3110   */\n      tag_207\n        /* \"#utility.yul\":3104:3109   */\n      dup2\n        /* \"#utility.yul\":3089:3110   */\n      tag_142\n      jump\t// in\n    tag_207:\n        /* \"#utility.yul\":3084:3087   */\n      dup3\n        /* \"#utility.yul\":3077:3111   */\n      mstore\n        /* \"#utility.yul\":3008:3117   */\n      pop\n      pop\n      jump\t// out\n        /* \"#utility.yul\":3123:3333   */\n    tag_23:\n        /* \"#utility.yul\":3210:3214   */\n      0x00\n        /* \"#utility.yul\":3248:3250   */\n      0x20\n        /* \"#utility.yul\":3237:3246   */\n      dup3\n        /* \"#utility.yul\":3233:3251   */\n      add\n        /* \"#utility.yul\":3225:3251   */\n      swap1\n      pop\n        /* \"#utility.yul\":3261:3326   */\n      tag_209\n        /* \"#utility.yul\":3323:3324   */\n      0x00\n        /* \"#utility.yul\":3312:3321   */\n      dup4\n        /* \"#utility.yul\":3308:3325   */\n      add\n        /* \"#utility.yul\":3299:3305   */\n      dup5\n        /* \"#utility.yul\":3261:3326   */\n      tag_143\n      jump\t// in\n    tag_209:\n        /* \"#utility.yul\":3123:3333   */\n      swap3\n      swap2\n      pop\n      pop\n      jump\t// out\n        /* \"#utility.yul\":3339:3457   */\n    tag_144:\n        /* \"#utility.yul\":3426:3450   */\n      tag_211\n        /* \"#utility.yul\":3444:3449   */\n      dup2\n        /* \"#utility.yul\":3426:3450   */\n      tag_139\n      jump\t// in\n    tag_211:\n        /* \"#utility.yul\":3421:3424   */\n      dup3\n        /* \"#utility.yul\":3414:3451   */\n      mstore\n        /* \"#utility.yul\":3339:3457   */\n      pop\n      pop\n      jump\t// out\n        /* \"#utility.yul\":3463:3685   */\n    tag_27:\n        /* \"#utility.yul\":3556:3560   */\n      0x00\n        /* \"#utility.yul\":3594:3596   */\n      0x20\n        /* \"#utility.yul\":3583:3592   */\n      dup3\n        /* \"#utility.yul\":3579:3597   */\n      add\n        /* \"#utility.yul\":3571:3597   */\n      swap1\n      pop\n        /* \"#utility.yul\":3607:3678   */\n      tag_213\n        /* \"#utility.yul\":3675:3676   */\n      0x00\n        /* \"#utility.yul\":3664:3673   */\n      dup4\n        /* \"#utility.yul\":3660:3677   */\n      add\n        /* \"#utility.yul\":3651:3657   */\n      dup5\n        /* \"#utility.yul\":3607:3678   */\n      tag_144\n      jump\t// in\n    tag_213:\n        /* \"#utility.yul\":3463:3685   */\n      swap3\n      swap2\n      pop\n      pop\n      jump\t// out\n        /* \"#utility.yul\":3691:4310   */\n    tag_30:\n        /* \"#utility.yul\":3768:3774   */\n      0x00\n        /* \"#utility.yul\":3776:3782   */\n      dup1\n        /* \"#utility.yul\":3784:3790   */\n      0x00\n        /* \"#utility.yul\":3833:3835   */\n      0x60\n        /* \"#utility.yul\":3821:3830   */\n      dup5\n        /* \"#utility.yul\":3812:3819   */\n      dup7\n        /* \"#utility.yul\":3808:3831   */\n      sub\n        /* \"#utility.yul\":3804:3836   */\n      slt\n        /* \"#utility.yul\":3801:3920   */\n      iszero\n      tag_215\n      jumpi\n        /* \"#utility.yul\":3839:3918   */\n      tag_216\n      tag_133\n      jump\t// in\n    tag_216:\n        /* \"#utility.yul\":3801:3920   */\n    tag_215:\n        /* \"#utility.yul\":3959:3960   */\n      0x00\n        /* \"#utility.yul\":3984:4037   */\n      tag_217\n        /* \"#utility.yul\":4029:4036   */\n      dup7\n        /* \"#utility.yul\":4020:4026   */\n      dup3\n        /* \"#utility.yul\":4009:4018   */\n      dup8\n        /* \"#utility.yul\":4005:4027   */\n      add\n        /* \"#utility.yul\":3984:4037   */\n      tag_138\n      jump\t// in\n    tag_217:\n        /* \"#utility.yul\":3974:4037   */\n      swap4\n      pop\n        /* \"#utility.yul\":3930:4047   */\n      pop\n        /* \"#utility.yul\":4086:4088   */\n      0x20\n        /* \"#utility.yul\":4112:4165   */\n      tag_218\n        /* \"#utility.yul\":4157:4164   */\n      dup7\n        /* \"#utility.yul\":4148:4154   */\n      dup3\n        /* \"#utility.yul\":4137:4146   */\n      dup8\n        /* \"#utility.yul\":4133:4155   */\n      add\n        /* \"#utility.yul\":4112:4165   */\n      tag_138\n      jump\t// in\n    tag_218:\n        /* \"#utility.yul\":4102:4165   */\n      swap3\n      pop\n        /* \"#utility.yul\":4057:4175   */\n      pop\n        /* \"#utility.yul\":4214:4216   */\n      0x40\n        /* \"#utility.yul\":4240:4293   */\n      tag_219\n        /* \"#utility.yul\":4285:4292   */\n      dup7\n        /* \"#utility.yul\":4276:4282   */\n      dup3\n        /* \"#utility.yul\":4265:4274   */\n      dup8\n        /* \"#utility.yul\":4261:4283   */\n      add\n        /* \"#utility.yul\":4240:4293   */\n      tag_141\n      jump\t// in\n    tag_219:\n        /* \"#utility.yul\":4230:4293   */\n      swap2\n      pop\n        /* \"#utility.yul\":4185:4303   */\n      pop\n        /* \"#utility.yul\":3691:4310   */\n      swap3\n      pop\n      swap3\n      pop\n      swap3\n      jump\t// out\n        /* \"#utility.yul\":4316:4433   */\n    tag_145:\n        /* \"#utility.yul\":4425:4426   */\n      0x00\n        /* \"#utility.yul\":4422:4423   */\n      dup1\n        /* \"#utility.yul\":4415:4427   */\n      revert\n        /* \"#utility.yul\":4439:4619   */\n    tag_146:\n        /* \"#utility.yul\":4487:4564   */\n      0x4e487b7100000000000000000000000000000000000000000000000000000000\n        /* \"#utility.yul\":4484:4485   */\n      0x00\n        /* \"#utility.yul\":4477:4565   */\n      mstore\n        /* \"#utility.yul\":4584:4588   */\n      0x41\n        /* \"#utility.yul\":4581:4582   */\n      0x04\n        /* \"#utility.yul\":4574:4589   */\n      mstore\n        /* \"#utility.yul\":4608:4612   */\n      0x24\n        /* \"#utility.yul\":4605:4606   */\n      0x00\n        /* \"#utility.yul\":4598:4613   */\n      revert\n        /* \"#utility.yul\":4625:4906   */\n    tag_147:\n        /* \"#utility.yul\":4708:4735   */\n      tag_223\n        /* \"#utility.yul\":4730:4734   */\n      dup3\n        /* \"#utility.yul\":4708:4735   */\n      tag_130\n      jump\t// in\n    tag_223:\n        /* \"#utility.yul\":4700:4706   */\n      dup2\n        /* \"#utility.yul\":4696:4736   */\n      add\n        /* \"#utility.yul\":4838:4844   */\n      dup2\n        /* \"#utility.yul\":4826:4836   */\n      dup2\n        /* \"#utility.yul\":4823:4845   */\n      lt\n        /* \"#utility.yul\":4802:4820   */\n      0xffffffffffffffff\n        /* \"#utility.yul\":4790:4800   */\n      dup3\n        /* \"#utility.yul\":4787:4821   */\n      gt\n        /* \"#utility.yul\":4784:4846   */\n      or\n        /* \"#utility.yul\":4781:4869   */\n      iszero\n      tag_224\n      jumpi\n        /* \"#utility.yul\":4849:4867   */\n      tag_225\n      tag_146\n      jump\t// in\n    tag_225:\n        /* \"#utility.yul\":4781:4869   */\n    tag_224:\n        /* \"#utility.yul\":4889:4899   */\n      dup1\n        /* \"#utility.yul\":4885:4887   */\n      0x40\n        /* \"#utility.yul\":4878:4900   */\n      mstore\n        /* \"#utility.yul\":4668:4906   */\n      pop\n        /* \"#utility.yul\":4625:4906   */\n      pop\n      pop\n      jump\t// out\n        /* \"#utility.yul\":4912:5041   */\n    tag_148:\n        /* \"#utility.yul\":4946:4952   */\n      0x00\n        /* \"#utility.yul\":4973:4993   */\n      tag_227\n      tag_132\n      jump\t// in\n    tag_227:\n        /* \"#utility.yul\":4963:4993   */\n      swap1\n      pop\n        /* \"#utility.yul\":5002:5035   */\n      tag_228\n        /* \"#utility.yul\":5030:5034   */\n      dup3\n        /* \"#utility.yul\":5022:5028   */\n      dup3\n        /* \"#utility.yul\":5002:5035   */\n      tag_147\n      jump\t// in\n    tag_228:\n        /* \"#utility.yul\":4912:5041   */\n      swap2\n      swap1\n      pop\n      jump\t// out\n        /* \"#utility.yul\":5047:5358   */\n    tag_149:\n        /* \"#utility.yul\":5124:5128   */\n      0x00\n        /* \"#utility.yul\":5214:5232   */\n      0xffffffffffffffff\n        /* \"#utility.yul\":5206:5212   */\n      dup3\n        /* \"#utility.yul\":5203:5233   */\n      gt\n        /* \"#utility.yul\":5200:5256   */\n      iszero\n      tag_230\n      jumpi\n        /* \"#utility.yul\":5236:5254   */\n      tag_231\n      tag_146\n      jump\t// in\n    tag_231:\n        /* \"#utility.yul\":5200:5256   */\n    tag_230:\n        /* \"#utility.yul\":5286:5290   */\n      0x20\n        /* \"#utility.yul\":5278:5284   */\n      dup3\n        /* \"#utility.yul\":5274:5291   */\n      mul\n        /* \"#utility.yul\":5266:5291   */\n      swap1\n      pop\n        /* \"#utility.yul\":5346:5350   */\n      0x20\n        /* \"#utility.yul\":5340:5344   */\n      dup2\n        /* \"#utility.yul\":5336:5351   */\n      add\n        /* \"#utility.yul\":5328:5351   */\n      swap1\n      pop\n        /* \"#utility.yul\":5047:5358   */\n      swap2\n      swap1\n      pop\n      jump\t// out\n        /* \"#utility.yul\":5364:5481   */\n    tag_150:\n        /* \"#utility.yul\":5473:5474   */\n      0x00\n        /* \"#utility.yul\":5470:5471   */\n      dup1\n        /* \"#utility.yul\":5463:5475   */\n      revert\n        /* \"#utility.yul\":5504:6214   */\n    tag_151:\n        /* \"#utility.yul\":5600:5605   */\n      0x00\n        /* \"#utility.yul\":5625:5706   */\n      tag_234\n        /* \"#utility.yul\":5641:5705   */\n      tag_235\n        /* \"#utility.yul\":5698:5704   */\n      dup5\n        /* \"#utility.yul\":5641:5705   */\n      tag_149\n      jump\t// in\n    tag_235:\n        /* \"#utility.yul\":5625:5706   */\n      tag_148\n      jump\t// in\n    tag_234:\n        /* \"#utility.yul\":5616:5706   */\n      swap1\n      pop\n        /* \"#utility.yul\":5726:5731   */\n      dup1\n        /* \"#utility.yul\":5755:5761   */\n      dup4\n        /* \"#utility.yul\":5748:5753   */\n      dup3\n        /* \"#utility.yul\":5741:5762   */\n      mstore\n        /* \"#utility.yul\":5789:5793   */\n      0x20\n        /* \"#utility.yul\":5782:5787   */\n      dup3\n        /* \"#utility.yul\":5778:5794   */\n      add\n        /* \"#utility.yul\":5771:5794   */\n      swap1\n      pop\n        /* \"#utility.yul\":5842:5846   */\n      0x20\n        /* \"#utility.yul\":5834:5840   */\n      dup5\n        /* \"#utility.yul\":5830:5847   */\n      mul\n        /* \"#utility.yul\":5822:5828   */\n      dup4\n        /* \"#utility.yul\":5818:5848   */\n      add\n        /* \"#utility.yul\":5871:5874   */\n      dup6\n        /* \"#utility.yul\":5863:5869   */\n      dup2\n        /* \"#utility.yul\":5860:5875   */\n      gt\n        /* \"#utility.yul\":5857:5979   */\n      iszero\n      tag_236\n      jumpi\n        /* \"#utility.yul\":5890:5969   */\n      tag_237\n      tag_150\n      jump\t// in\n    tag_237:\n        /* \"#utility.yul\":5857:5979   */\n    tag_236:\n        /* \"#utility.yul\":6005:6011   */\n      dup4\n        /* \"#utility.yul\":5988:6208   */\n    tag_238:\n        /* \"#utility.yul\":6022:6028   */\n      dup2\n        /* \"#utility.yul\":6017:6020   */\n      dup2\n        /* \"#utility.yul\":6014:6029   */\n      lt\n        /* \"#utility.yul\":5988:6208   */\n      iszero\n      tag_240\n      jumpi\n        /* \"#utility.yul\":6097:6100   */\n      dup1\n        /* \"#utility.yul\":6126:6163   */\n      tag_241\n        /* \"#utility.yul\":6159:6162   */\n      dup9\n        /* \"#utility.yul\":6147:6157   */\n      dup3\n        /* \"#utility.yul\":6126:6163   */\n      tag_138\n      jump\t// in\n    tag_241:\n        /* \"#utility.yul\":6121:6124   */\n      dup5\n        /* \"#utility.yul\":6114:6164   */\n      mstore\n        /* \"#utility.yul\":6193:6197   */\n      0x20\n        /* \"#utility.yul\":6188:6191   */\n      dup5\n        /* \"#utility.yul\":6184:6198   */\n      add\n        /* \"#utility.yul\":6177:6198   */\n      swap4\n      pop\n        /* \"#utility.yul\":6064:6208   */\n      pop\n        /* \"#utility.yul\":6048:6052   */\n      0x20\n        /* \"#utility.yul\":6043:6046   */\n      dup2\n        /* \"#utility.yul\":6039:6053   */\n      add\n        /* \"#utility.yul\":6032:6053   */\n      swap1\n      pop\n        /* \"#utility.yul\":5988:6208   */\n      jump(tag_238)\n    tag_240:\n        /* \"#utility.yul\":5992:6013   */\n      pop\n        /* \"#utility.yul\":5606:6214   */\n      pop\n      pop\n        /* \"#utility.yul\":5504:6214   */\n      swap4\n      swap3\n      pop\n      pop\n      pop\n      jump\t// out\n        /* \"#utility.yul\":6237:6607   */\n    tag_152:\n        /* \"#utility.yul\":6308:6313   */\n      0x00\n        /* \"#utility.yul\":6357:6360   */\n      dup3\n        /* \"#utility.yul\":6350:6354   */\n      0x1f\n        /* \"#utility.yul\":6342:6348   */\n      dup4\n        /* \"#utility.yul\":6338:6355   */\n      add\n        /* \"#utility.yul\":6334:6361   */\n      slt\n        /* \"#utility.yul\":6324:6446   */\n      tag_243\n      jumpi\n        /* \"#utility.yul\":6365:6444   */\n      tag_244\n      tag_145\n      jump\t// in\n    tag_244:\n        /* \"#utility.yul\":6324:6446   */\n    tag_243:\n        /* \"#utility.yul\":6482:6488   */\n      dup2\n        /* \"#utility.yul\":6469:6489   */\n      calldataload\n        /* \"#utility.yul\":6507:6601   */\n      tag_245\n        /* \"#utility.yul\":6597:6600   */\n      dup5\n        /* \"#utility.yul\":6589:6595   */\n      dup3\n        /* \"#utility.yul\":6582:6586   */\n      0x20\n        /* \"#utility.yul\":6574:6580   */\n      dup7\n        /* \"#utility.yul\":6570:6587   */\n      add\n        /* \"#utility.yul\":6507:6601   */\n      tag_151\n      jump\t// in\n    tag_245:\n        /* \"#utility.yul\":6498:6601   */\n      swap2\n      pop\n        /* \"#utility.yul\":6314:6607   */\n      pop\n        /* \"#utility.yul\":6237:6607   */\n      swap3\n      swap2\n      pop\n      pop\n      jump\t// out\n        /* \"#utility.yul\":6613:7297   */\n    tag_35:\n        /* \"#utility.yul\":6706:6712   */\n      0x00\n        /* \"#utility.yul\":6714:6720   */\n      dup1\n        /* \"#utility.yul\":6763:6765   */\n      0x40\n        /* \"#utility.yul\":6751:6760   */\n      dup4\n        /* \"#utility.yul\":6742:6749   */\n      dup6\n        /* \"#utility.yul\":6738:6761   */\n      sub\n        /* \"#utility.yul\":6734:6766   */\n      slt\n        /* \"#utility.yul\":6731:6850   */\n      iszero\n      tag_247\n      jumpi\n        /* \"#utility.yul\":6769:6848   */\n      tag_248\n      tag_133\n      jump\t// in\n    tag_248:\n        /* \"#utility.yul\":6731:6850   */\n    tag_247:\n        /* \"#utility.yul\":6917:6918   */\n      0x00\n        /* \"#utility.yul\":6906:6915   */\n      dup4\n        /* \"#utility.yul\":6902:6919   */\n      add\n        /* \"#utility.yul\":6889:6920   */\n      calldataload\n        /* \"#utility.yul\":6947:6965   */\n      0xffffffffffffffff\n        /* \"#utility.yul\":6939:6945   */\n      dup2\n        /* \"#utility.yul\":6936:6966   */\n      gt\n        /* \"#utility.yul\":6933:7050   */\n      iszero\n      tag_249\n      jumpi\n        /* \"#utility.yul\":6969:7048   */\n      tag_250\n      tag_134\n      jump\t// in\n    tag_250:\n        /* \"#utility.yul\":6933:7050   */\n    tag_249:\n        /* \"#utility.yul\":7074:7152   */\n      tag_251\n        /* \"#utility.yul\":7144:7151   */\n      dup6\n        /* \"#utility.yul\":7135:7141   */\n      dup3\n        /* \"#utility.yul\":7124:7133   */\n      dup7\n        /* \"#utility.yul\":7120:7142   */\n      add\n        /* \"#utility.yul\":7074:7152   */\n      tag_152\n      jump\t// in\n    tag_251:\n        /* \"#utility.yul\":7064:7152   */\n      swap3\n      pop\n        /* \"#utility.yul\":6860:7162   */\n      pop\n        /* \"#utility.yul\":7201:7203   */\n      0x20\n        /* \"#utility.yul\":7227:7280   */\n      tag_252\n        /* \"#utility.yul\":7272:7279   */\n      dup6\n        /* \"#utility.yul\":7263:7269   */\n      dup3\n        /* \"#utility.yul\":7252:7261   */\n      dup7\n        /* \"#utility.yul\":7248:7270   */\n      add\n        /* \"#utility.yul\":7227:7280   */\n      tag_141\n      jump\t// in\n    tag_252:\n        /* \"#utility.yul\":7217:7280   */\n      swap2\n      pop\n        /* \"#utility.yul\":7172:7290   */\n      pop\n        /* \"#utility.yul\":6613:7297   */\n      swap3\n      pop\n      swap3\n      swap1\n      pop\n      jump\t// out\n        /* \"#utility.yul\":7303:7389   */\n    tag_153:\n        /* \"#utility.yul\":7338:7345   */\n      0x00\n        /* \"#utility.yul\":7378:7382   */\n      0xff\n        /* \"#utility.yul\":7371:7376   */\n      dup3\n        /* \"#utility.yul\":7367:7383   */\n      and\n        /* \"#utility.yul\":7356:7383   */\n      swap1\n      pop\n        /* \"#utility.yul\":7303:7389   */\n      swap2\n      swap1\n      pop\n      jump\t// out\n        /* \"#utility.yul\":7395:7507   */\n    tag_154:\n        /* \"#utility.yul\":7478:7500   */\n      tag_255\n        /* \"#utility.yul\":7494:7499   */\n      dup2\n        /* \"#utility.yul\":7478:7500   */\n      tag_153\n      jump\t// in\n    tag_255:\n        /* \"#utility.yul\":7473:7476   */\n      dup3\n        /* \"#utility.yul\":7466:7501   */\n      mstore\n        /* \"#utility.yul\":7395:7507   */\n      pop\n      pop\n      jump\t// out\n        /* \"#utility.yul\":7513:7727   */\n    tag_40:\n        /* \"#utility.yul\":7602:7606   */\n      0x00\n        /* \"#utility.yul\":7640:7642   */\n      0x20\n        /* \"#utility.yul\":7629:7638   */\n      dup3\n        /* \"#utility.yul\":7625:7643   */\n      add\n        /* \"#utility.yul\":7617:7643   */\n      swap1\n      pop\n        /* \"#utility.yul\":7653:7720   */\n      tag_257\n        /* \"#utility.yul\":7717:7718   */\n      0x00\n        /* \"#utility.yul\":7706:7715   */\n      dup4\n        /* \"#utility.yul\":7702:7719   */\n      add\n        /* \"#utility.yul\":7693:7699   */\n      dup5\n        /* \"#utility.yul\":7653:7720   */\n      tag_154\n      jump\t// in\n    tag_257:\n        /* \"#utility.yul\":7513:7727   */\n      swap3\n      swap2\n      pop\n      pop\n      jump\t// out\n        /* \"#utility.yul\":7733:8062   */\n    tag_43:\n        /* \"#utility.yul\":7792:7798   */\n      0x00\n        /* \"#utility.yul\":7841:7843   */\n      0x20\n        /* \"#utility.yul\":7829:7838   */\n      dup3\n        /* \"#utility.yul\":7820:7827   */\n      dup5\n        /* \"#utility.yul\":7816:7839   */\n      sub\n        /* \"#utility.yul\":7812:7844   */\n      slt\n        /* \"#utility.yul\":7809:7928   */\n      iszero\n      tag_259\n      jumpi\n        /* \"#utility.yul\":7847:7926   */\n      tag_260\n      tag_133\n      jump\t// in\n    tag_260:\n        /* \"#utility.yul\":7809:7928   */\n    tag_259:\n        /* \"#utility.yul\":7967:7968   */\n      0x00\n        /* \"#utility.yul\":7992:8045   */\n      tag_261\n        /* \"#utility.yul\":8037:8044   */\n      dup5\n        /* \"#utility.yul\":8028:8034   */\n      dup3\n        /* \"#utility.yul\":8017:8026   */\n      dup6\n        /* \"#utility.yul\":8013:8035   */\n      add\n        /* \"#utility.yul\":7992:8045   */\n      tag_138\n      jump\t// in\n    tag_261:\n        /* \"#utility.yul\":7982:8045   */\n      swap2\n      pop\n        /* \"#utility.yul\":7938:8055   */\n      pop\n        /* \"#utility.yul\":7733:8062   */\n      swap3\n      swap2\n      pop\n      pop\n      jump\t// out\n        /* \"#utility.yul\":8068:8542   */\n    tag_55:\n        /* \"#utility.yul\":8136:8142   */\n      0x00\n        /* \"#utility.yul\":8144:8150   */\n      dup1\n        /* \"#utility.yul\":8193:8195   */\n      0x40\n        /* \"#utility.yul\":8181:8190   */\n      dup4\n        /* \"#utility.yul\":8172:8179   */\n      dup6\n        /* \"#utility.yul\":8168:8191   */\n      sub\n        /* \"#utility.yul\":8164:8196   */\n      slt\n        /* \"#utility.yul\":8161:8280   */\n      iszero\n      tag_263\n      jumpi\n        /* \"#utility.yul\":8199:8278   */\n      tag_264\n      tag_133\n      jump\t// in\n    tag_264:\n        /* \"#utility.yul\":8161:8280   */\n    tag_263:\n        /* \"#utility.yul\":8319:8320   */\n      0x00\n        /* \"#utility.yul\":8344:8397   */\n      tag_265\n        /* \"#utility.yul\":8389:8396   */\n      dup6\n        /* \"#utility.yul\":8380:8386   */\n      dup3\n        /* \"#utility.yul\":8369:8378   */\n      dup7\n        /* \"#utility.yul\":8365:8387   */\n      add\n        /* \"#utility.yul\":8344:8397   */\n      tag_138\n      jump\t// in\n    tag_265:\n        /* \"#utility.yul\":8334:8397   */\n      swap3\n      pop\n        /* \"#utility.yul\":8290:8407   */\n      pop\n        /* \"#utility.yul\":8446:8448   */\n      0x20\n        /* \"#utility.yul\":8472:8525   */\n      tag_266\n        /* \"#utility.yul\":8517:8524   */\n      dup6\n        /* \"#utility.yul\":8508:8514   */\n      dup3\n        /* \"#utility.yul\":8497:8506   */\n      dup7\n        /* \"#utility.yul\":8493:8515   */\n      add\n        /* \"#utility.yul\":8472:8525   */\n      tag_138\n      jump\t// in\n    tag_266:\n        /* \"#utility.yul\":8462:8525   */\n      swap2\n      pop\n        /* \"#utility.yul\":8417:8535   */\n      pop\n        /* \"#utility.yul\":8068:8542   */\n      swap3\n      pop\n      swap3\n      swap1\n      pop\n      jump\t// out\n        /* \"#utility.yul\":8548:8728   */\n    tag_155:\n        /* \"#utility.yul\":8596:8673   */\n      0x4e487b7100000000000000000000000000000000000000000000000000000000\n        /* \"#utility.yul\":8593:8594   */\n      0x00\n        /* \"#utility.yul\":8586:8674   */\n      mstore\n        /* \"#utility.yul\":8693:8697   */\n      0x22\n        /* \"#utility.yul\":8690:8691   */\n      0x04\n        /* \"#utility.yul\":8683:8698   */\n      mstore\n        /* \"#utility.yul\":8717:8721   */\n      0x24\n        /* \"#utility.yul\":8714:8715   */\n      0x00\n        /* \"#utility.yul\":8707:8722   */\n      revert\n        /* \"#utility.yul\":8734:9054   */\n    tag_60:\n        /* \"#utility.yul\":8778:8784   */\n      0x00\n        /* \"#utility.yul\":8815:8816   */\n      0x02\n        /* \"#utility.yul\":8809:8813   */\n      dup3\n        /* \"#utility.yul\":8805:8817   */\n      div\n        /* \"#utility.yul\":8795:8817   */\n      swap1\n      pop\n        /* \"#utility.yul\":8862:8863   */\n      0x01\n        /* \"#utility.yul\":8856:8860   */\n      dup3\n        /* \"#utility.yul\":8852:8864   */\n      and\n        /* \"#utility.yul\":8883:8901   */\n      dup1\n        /* \"#utility.yul\":8873:8954   */\n      tag_269\n      jumpi\n        /* \"#utility.yul\":8939:8943   */\n      0x7f\n        /* \"#utility.yul\":8931:8937   */\n      dup3\n        /* \"#utility.yul\":8927:8944   */\n      and\n        /* \"#utility.yul\":8917:8944   */\n      swap2\n      pop\n        /* \"#utility.yul\":8873:8954   */\n    tag_269:\n        /* \"#utility.yul\":9001:9003   */\n      0x20\n        /* \"#utility.yul\":8993:8999   */\n      dup3\n        /* \"#utility.yul\":8990:9004   */\n      lt\n        /* \"#utility.yul\":8970:8988   */\n      dup2\n        /* \"#utility.yul\":8967:9005   */\n      sub\n        /* \"#utility.yul\":8964:9048   */\n      tag_270\n      jumpi\n        /* \"#utility.yul\":9020:9038   */\n      tag_271\n      tag_155\n      jump\t// in\n    tag_271:\n        /* \"#utility.yul\":8964:9048   */\n    tag_270:\n        /* \"#utility.yul\":8785:9054   */\n      pop\n        /* \"#utility.yul\":8734:9054   */\n      swap2\n      swap1\n      pop\n      jump\t// out\n        /* \"#utility.yul\":9060:9240   */\n    tag_81:\n        /* \"#utility.yul\":9108:9185   */\n      0x4e487b7100000000000000000000000000000000000000000000000000000000\n        /* \"#utility.yul\":9105:9106   */\n      0x00\n        /* \"#utility.yul\":9098:9186   */\n      mstore\n        /* \"#utility.yul\":9205:9209   */\n      0x32\n        /* \"#utility.yul\":9202:9203   */\n      0x04\n        /* \"#utility.yul\":9195:9210   */\n      mstore\n        /* \"#utility.yul\":9229:9233   */\n      0x24\n        /* \"#utility.yul\":9226:9227   */\n      0x00\n        /* \"#utility.yul\":9219:9234   */\n      revert\n        /* \"#utility.yul\":9246:9422   */\n    tag_156:\n        /* \"#utility.yul\":9386:9414   */\n      0x617070726f76652066726f6d2074686520302061646472657373000000000000\n        /* \"#utility.yul\":9382:9383   */\n      0x00\n        /* \"#utility.yul\":9374:9380   */\n      dup3\n        /* \"#utility.yul\":9370:9384   */\n      add\n        /* \"#utility.yul\":9363:9415   */\n      mstore\n        /* \"#utility.yul\":9246:9422   */\n      pop\n      jump\t// out\n        /* \"#utility.yul\":9428:9794   */\n    tag_157:\n        /* \"#utility.yul\":9570:9573   */\n      0x00\n        /* \"#utility.yul\":9591:9658   */\n      tag_275\n        /* \"#utility.yul\":9655:9657   */\n      0x1a\n        /* \"#utility.yul\":9650:9653   */\n      dup4\n        /* \"#utility.yul\":9591:9658   */\n      tag_128\n      jump\t// in\n    tag_275:\n        /* \"#utility.yul\":9584:9658   */\n      swap2\n      pop\n        /* \"#utility.yul\":9667:9760   */\n      tag_276\n        /* \"#utility.yul\":9756:9759   */\n      dup3\n        /* \"#utility.yul\":9667:9760   */\n      tag_156\n      jump\t// in\n    tag_276:\n        /* \"#utility.yul\":9785:9787   */\n      0x20\n        /* \"#utility.yul\":9780:9783   */\n      dup3\n        /* \"#utility.yul\":9776:9788   */\n      add\n        /* \"#utility.yul\":9769:9788   */\n      swap1\n      pop\n        /* \"#utility.yul\":9428:9794   */\n      swap2\n      swap1\n      pop\n      jump\t// out\n        /* \"#utility.yul\":9800:10219   */\n    tag_97:\n        /* \"#utility.yul\":9966:9970   */\n      0x00\n        /* \"#utility.yul\":10004:10006   */\n      0x20\n        /* \"#utility.yul\":9993:10002   */\n      dup3\n        /* \"#utility.yul\":9989:10007   */\n      add\n        /* \"#utility.yul\":9981:10007   */\n      swap1\n      pop\n        /* \"#utility.yul\":10053:10062   */\n      dup2\n        /* \"#utility.yul\":10047:10051   */\n      dup2\n        /* \"#utility.yul\":10043:10063   */\n      sub\n        /* \"#utility.yul\":10039:10040   */\n      0x00\n        /* \"#utility.yul\":10028:10037   */\n      dup4\n        /* \"#utility.yul\":10024:10041   */\n      add\n        /* \"#utility.yul\":10017:10064   */\n      mstore\n        /* \"#utility.yul\":10081:10212   */\n      tag_278\n        /* \"#utility.yul\":10207:10211   */\n      dup2\n        /* \"#utility.yul\":10081:10212   */\n      tag_157\n      jump\t// in\n    tag_278:\n        /* \"#utility.yul\":10073:10212   */\n      swap1\n      pop\n        /* \"#utility.yul\":9800:10219   */\n      swap2\n      swap1\n      pop\n      jump\t// out\n        /* \"#utility.yul\":10225:10399   */\n    tag_158:\n        /* \"#utility.yul\":10365:10391   */\n      0x617070726f766520746f20746865203020616464726573730000000000000000\n        /* \"#utility.yul\":10361:10362   */\n      0x00\n        /* \"#utility.yul\":10353:10359   */\n      dup3\n        /* \"#utility.yul\":10349:10363   */\n      add\n        /* \"#utility.yul\":10342:10392   */\n      mstore\n        /* \"#utility.yul\":10225:10399   */\n      pop\n      jump\t// out\n        /* \"#utility.yul\":10405:10771   */\n    tag_159:\n        /* \"#utility.yul\":10547:10550   */\n      0x00\n        /* \"#utility.yul\":10568:10635   */\n      tag_281\n        /* \"#utility.yul\":10632:10634   */\n      0x18\n        /* \"#utility.yul\":10627:10630   */\n      dup4\n        /* \"#utility.yul\":10568:10635   */\n      tag_128\n      jump\t// in\n    tag_281:\n        /* \"#utility.yul\":10561:10635   */\n      swap2\n      pop\n        /* \"#utility.yul\":10644:10737   */\n      tag_282\n        /* \"#utility.yul\":10733:10736   */\n      dup3\n        /* \"#utility.yul\":10644:10737   */\n      tag_158\n      jump\t// in\n    tag_282:\n        /* \"#utility.yul\":10762:10764   */\n      0x20\n        /* \"#utility.yul\":10757:10760   */\n      dup3\n        /* \"#utility.yul\":10753:10765   */\n      add\n        /* \"#utility.yul\":10746:10765   */\n      swap1\n      pop\n        /* \"#utility.yul\":10405:10771   */\n      swap2\n      swap1\n      pop\n      jump\t// out\n        /* \"#utility.yul\":10777:11196   */\n    tag_100:\n        /* \"#utility.yul\":10943:10947   */\n      0x00\n        /* \"#utility.yul\":10981:10983   */\n      0x20\n        /* \"#utility.yul\":10970:10979   */\n      dup3\n        /* \"#utility.yul\":10966:10984   */\n      add\n        /* \"#utility.yul\":10958:10984   */\n      swap1\n      pop\n        /* \"#utility.yul\":11030:11039   */\n      dup2\n        /* \"#utility.yul\":11024:11028   */\n      dup2\n        /* \"#utility.yul\":11020:11040   */\n      sub\n        /* \"#utility.yul\":11016:11017   */\n      0x00\n        /* \"#utility.yul\":11005:11014   */\n      dup4\n        /* \"#utility.yul\":11001:11018   */\n      add\n        /* \"#utility.yul\":10994:11041   */\n      mstore\n        /* \"#utility.yul\":11058:11189   */\n      tag_284\n        /* \"#utility.yul\":11184:11188   */\n      dup2\n        /* \"#utility.yul\":11058:11189   */\n      tag_159\n      jump\t// in\n    tag_284:\n        /* \"#utility.yul\":11050:11189   */\n      swap1\n      pop\n        /* \"#utility.yul\":10777:11196   */\n      swap2\n      swap1\n      pop\n      jump\t// out\n        /* \"#utility.yul\":11202:11374   */\n    tag_160:\n        /* \"#utility.yul\":11342:11366   */\n      0x696e73756666696369656e7420616c6c6f77616e636500000000000000000000\n        /* \"#utility.yul\":11338:11339   */\n      0x00\n        /* \"#utility.yul\":11330:11336   */\n      dup3\n        /* \"#utility.yul\":11326:11340   */\n      add\n        /* \"#utility.yul\":11319:11367   */\n      mstore\n        /* \"#utility.yul\":11202:11374   */\n      pop\n      jump\t// out\n        /* \"#utility.yul\":11380:11746   */\n    tag_161:\n        /* \"#utility.yul\":11522:11525   */\n      0x00\n        /* \"#utility.yul\":11543:11610   */\n      tag_287\n        /* \"#utility.yul\":11607:11609   */\n      0x16\n        /* \"#utility.yul\":11602:11605   */\n      dup4\n        /* \"#utility.yul\":11543:11610   */\n      tag_128\n      jump\t// in\n    tag_287:\n        /* \"#utility.yul\":11536:11610   */\n      swap2\n      pop\n        /* \"#utility.yul\":11619:11712   */\n      tag_288\n        /* \"#utility.yul\":11708:11711   */\n      dup3\n        /* \"#utility.yul\":11619:11712   */\n      tag_160\n      jump\t// in\n    tag_288:\n        /* \"#utility.yul\":11737:11739   */\n      0x20\n        /* \"#utility.yul\":11732:11735   */\n      dup3\n        /* \"#utility.yul\":11728:11740   */\n      add\n        /* \"#utility.yul\":11721:11740   */\n      swap1\n      pop\n        /* \"#utility.yul\":11380:11746   */\n      swap2\n      swap1\n      pop\n      jump\t// out\n        /* \"#utility.yul\":11752:12171   */\n    tag_107:\n        /* \"#utility.yul\":11918:11922   */\n      0x00\n        /* \"#utility.yul\":11956:11958   */\n      0x20\n        /* \"#utility.yul\":11945:11954   */\n      dup3\n        /* \"#utility.yul\":11941:11959   */\n      add\n        /* \"#utility.yul\":11933:11959   */\n      swap1\n      pop\n        /* \"#utility.yul\":12005:12014   */\n      dup2\n        /* \"#utility.yul\":11999:12003   */\n      dup2\n        /* \"#utility.yul\":11995:12015   */\n      sub\n        /* \"#utility.yul\":11991:11992   */\n      0x00\n        /* \"#utility.yul\":11980:11989   */\n      dup4\n        /* \"#utility.yul\":11976:11993   */\n      add\n        /* \"#utility.yul\":11969:12016   */\n      mstore\n        /* \"#utility.yul\":12033:12164   */\n      tag_290\n        /* \"#utility.yul\":12159:12163   */\n      dup2\n        /* \"#utility.yul\":12033:12164   */\n      tag_161\n      jump\t// in\n    tag_290:\n        /* \"#utility.yul\":12025:12164   */\n      swap1\n      pop\n        /* \"#utility.yul\":11752:12171   */\n      swap2\n      swap1\n      pop\n      jump\t// out\n        /* \"#utility.yul\":12177:12350   */\n    tag_162:\n        /* \"#utility.yul\":12317:12342   */\n      0x5472616e736665722066726f6d20616464726573732030000000000000000000\n        /* \"#utility.yul\":12313:12314   */\n      0x00\n        /* \"#utility.yul\":12305:12311   */\n      dup3\n        /* \"#utility.yul\":12301:12315   */\n      add\n        /* \"#utility.yul\":12294:12343   */\n      mstore\n        /* \"#utility.yul\":12177:12350   */\n      pop\n      jump\t// out\n        /* \"#utility.yul\":12356:12722   */\n    tag_163:\n        /* \"#utility.yul\":12498:12501   */\n      0x00\n        /* \"#utility.yul\":12519:12586   */\n      tag_293\n        /* \"#utility.yul\":12583:12585   */\n      0x17\n        /* \"#utility.yul\":12578:12581   */\n      dup4\n        /* \"#utility.yul\":12519:12586   */\n      tag_128\n      jump\t// in\n    tag_293:\n        /* \"#utility.yul\":12512:12586   */\n      swap2\n      pop\n        /* \"#utility.yul\":12595:12688   */\n      tag_294\n        /* \"#utility.yul\":12684:12687   */\n      dup3\n        /* \"#utility.yul\":12595:12688   */\n      tag_162\n      jump\t// in\n    tag_294:\n        /* \"#utility.yul\":12713:12715   */\n      0x20\n        /* \"#utility.yul\":12708:12711   */\n      dup3\n        /* \"#utility.yul\":12704:12716   */\n      add\n        /* \"#utility.yul\":12697:12716   */\n      swap1\n      pop\n        /* \"#utility.yul\":12356:12722   */\n      swap2\n      swap1\n      pop\n      jump\t// out\n        /* \"#utility.yul\":12728:13147   */\n    tag_112:\n        /* \"#utility.yul\":12894:12898   */\n      0x00\n        /* \"#utility.yul\":12932:12934   */\n      0x20\n        /* \"#utility.yul\":12921:12930   */\n      dup3\n        /* \"#utility.yul\":12917:12935   */\n      add\n        /* \"#utility.yul\":12909:12935   */\n      swap1\n      pop\n        /* \"#utility.yul\":12981:12990   */\n      dup2\n        /* \"#utility.yul\":12975:12979   */\n      dup2\n        /* \"#utility.yul\":12971:12991   */\n      sub\n        /* \"#utility.yul\":12967:12968   */\n      0x00\n        /* \"#utility.yul\":12956:12965   */\n      dup4\n        /* \"#utility.yul\":12952:12969   */\n      add\n        /* \"#utility.yul\":12945:12992   */\n      mstore\n        /* \"#utility.yul\":13009:13140   */\n      tag_296\n        /* \"#utility.yul\":13135:13139   */\n      dup2\n        /* \"#utility.yul\":13009:13140   */\n      tag_163\n      jump\t// in\n    tag_296:\n        /* \"#utility.yul\":13001:13140   */\n      swap1\n      pop\n        /* \"#utility.yul\":12728:13147   */\n      swap2\n      swap1\n      pop\n      jump\t// out\n        /* \"#utility.yul\":13153:13324   */\n    tag_164:\n        /* \"#utility.yul\":13293:13316   */\n      0x5472616e7366657220746f206164647265737320300000000000000000000000\n        /* \"#utility.yul\":13289:13290   */\n      0x00\n        /* \"#utility.yul\":13281:13287   */\n      dup3\n        /* \"#utility.yul\":13277:13291   */\n      add\n        /* \"#utility.yul\":13270:13317   */\n      mstore\n        /* \"#utility.yul\":13153:13324   */\n      pop\n      jump\t// out\n        /* \"#utility.yul\":13330:13696   */\n    tag_165:\n        /* \"#utility.yul\":13472:13475   */\n      0x00\n        /* \"#utility.yul\":13493:13560   */\n      tag_299\n        /* \"#utility.yul\":13557:13559   */\n      0x15\n        /* \"#utility.yul\":13552:13555   */\n      dup4\n        /* \"#utility.yul\":13493:13560   */\n      tag_128\n      jump\t// in\n    tag_299:\n        /* \"#utility.yul\":13486:13560   */\n      swap2\n      pop\n        /* \"#utility.yul\":13569:13662   */\n      tag_300\n        /* \"#utility.yul\":13658:13661   */\n      dup3\n        /* \"#utility.yul\":13569:13662   */\n      tag_164\n      jump\t// in\n    tag_300:\n        /* \"#utility.yul\":13687:13689   */\n      0x20\n        /* \"#utility.yul\":13682:13685   */\n      dup3\n        /* \"#utility.yul\":13678:13690   */\n      add\n        /* \"#utility.yul\":13671:13690   */\n      swap1\n      pop\n        /* \"#utility.yul\":13330:13696   */\n      swap2\n      swap1\n      pop\n      jump\t// out\n        /* \"#utility.yul\":13702:14121   */\n    tag_115:\n        /* \"#utility.yul\":13868:13872   */\n      0x00\n        /* \"#utility.yul\":13906:13908   */\n      0x20\n        /* \"#utility.yul\":13895:13904   */\n      dup3\n        /* \"#utility.yul\":13891:13909   */\n      add\n        /* \"#utility.yul\":13883:13909   */\n      swap1\n      pop\n        /* \"#utility.yul\":13955:13964   */\n      dup2\n        /* \"#utility.yul\":13949:13953   */\n      dup2\n        /* \"#utility.yul\":13945:13965   */\n      sub\n        /* \"#utility.yul\":13941:13942   */\n      0x00\n        /* \"#utility.yul\":13930:13939   */\n      dup4\n        /* \"#utility.yul\":13926:13943   */\n      add\n        /* \"#utility.yul\":13919:13966   */\n      mstore\n        /* \"#utility.yul\":13983:14114   */\n      tag_302\n        /* \"#utility.yul\":14109:14113   */\n      dup2\n        /* \"#utility.yul\":13983:14114   */\n      tag_165\n      jump\t// in\n    tag_302:\n        /* \"#utility.yul\":13975:14114   */\n      swap1\n      pop\n        /* \"#utility.yul\":13702:14121   */\n      swap2\n      swap1\n      pop\n      jump\t// out\n        /* \"#utility.yul\":14127:14293   */\n    tag_166:\n        /* \"#utility.yul\":14267:14285   */\n      0x42616c616e636520657863656564656400000000000000000000000000000000\n        /* \"#utility.yul\":14263:14264   */\n      0x00\n        /* \"#utility.yul\":14255:14261   */\n      dup3\n        /* \"#utility.yul\":14251:14265   */\n      add\n        /* \"#utility.yul\":14244:14286   */\n      mstore\n        /* \"#utility.yul\":14127:14293   */\n      pop\n      jump\t// out\n        /* \"#utility.yul\":14299:14665   */\n    tag_167:\n        /* \"#utility.yul\":14441:14444   */\n      0x00\n        /* \"#utility.yul\":14462:14529   */\n      tag_305\n        /* \"#utility.yul\":14526:14528   */\n      0x10\n        /* \"#utility.yul\":14521:14524   */\n      dup4\n        /* \"#utility.yul\":14462:14529   */\n      tag_128\n      jump\t// in\n    tag_305:\n        /* \"#utility.yul\":14455:14529   */\n      swap2\n      pop\n        /* \"#utility.yul\":14538:14631   */\n      tag_306\n        /* \"#utility.yul\":14627:14630   */\n      dup3\n        /* \"#utility.yul\":14538:14631   */\n      tag_166\n      jump\t// in\n    tag_306:\n        /* \"#utility.yul\":14656:14658   */\n      0x20\n        /* \"#utility.yul\":14651:14654   */\n      dup3\n        /* \"#utility.yul\":14647:14659   */\n      add\n        /* \"#utility.yul\":14640:14659   */\n      swap1\n      pop\n        /* \"#utility.yul\":14299:14665   */\n      swap2\n      swap1\n      pop\n      jump\t// out\n        /* \"#utility.yul\":14671:15090   */\n    tag_118:\n        /* \"#utility.yul\":14837:14841   */\n      0x00\n        /* \"#utility.yul\":14875:14877   */\n      0x20\n        /* \"#utility.yul\":14864:14873   */\n      dup3\n        /* \"#utility.yul\":14860:14878   */\n      add\n        /* \"#utility.yul\":14852:14878   */\n      swap1\n      pop\n        /* \"#utility.yul\":14924:14933   */\n      dup2\n        /* \"#utility.yul\":14918:14922   */\n      dup2\n        /* \"#utility.yul\":14914:14934   */\n      sub\n        /* \"#utility.yul\":14910:14911   */\n      0x00\n        /* \"#utility.yul\":14899:14908   */\n      dup4\n        /* \"#utility.yul\":14895:14912   */\n      add\n        /* \"#utility.yul\":14888:14935   */\n      mstore\n        /* \"#utility.yul\":14952:15083   */\n      tag_308\n        /* \"#utility.yul\":15078:15082   */\n      dup2\n        /* \"#utility.yul\":14952:15083   */\n      tag_167\n      jump\t// in\n    tag_308:\n        /* \"#utility.yul\":14944:15083   */\n      swap1\n      pop\n        /* \"#utility.yul\":14671:15090   */\n      swap2\n      swap1\n      pop\n      jump\t// out\n        /* \"#utility.yul\":15096:15267   */\n    tag_168:\n        /* \"#utility.yul\":15236:15259   */\n      0x6d696e7420746f20746865203020616464726573730000000000000000000000\n        /* \"#utility.yul\":15232:15233   */\n      0x00\n        /* \"#utility.yul\":15224:15230   */\n      dup3\n        /* \"#utility.yul\":15220:15234   */\n      add\n        /* \"#utility.yul\":15213:15260   */\n      mstore\n        /* \"#utility.yul\":15096:15267   */\n      pop\n      jump\t// out\n        /* \"#utility.yul\":15273:15639   */\n    tag_169:\n        /* \"#utility.yul\":15415:15418   */\n      0x00\n        /* \"#utility.yul\":15436:15503   */\n      tag_311\n        /* \"#utility.yul\":15500:15502   */\n      0x15\n        /* \"#utility.yul\":15495:15498   */\n      dup4\n        /* \"#utility.yul\":15436:15503   */\n      tag_128\n      jump\t// in\n    tag_311:\n        /* \"#utility.yul\":15429:15503   */\n      swap2\n      pop\n        /* \"#utility.yul\":15512:15605   */\n      tag_312\n        /* \"#utility.yul\":15601:15604   */\n      dup3\n        /* \"#utility.yul\":15512:15605   */\n      tag_168\n      jump\t// in\n    tag_312:\n        /* \"#utility.yul\":15630:15632   */\n      0x20\n        /* \"#utility.yul\":15625:15628   */\n      dup3\n        /* \"#utility.yul\":15621:15633   */\n      add\n        /* \"#utility.yul\":15614:15633   */\n      swap1\n      pop\n        /* \"#utility.yul\":15273:15639   */\n      swap2\n      swap1\n      pop\n      jump\t// out\n        /* \"#utility.yul\":15645:16064   */\n    tag_123:\n        /* \"#utility.yul\":15811:15815   */\n      0x00\n        /* \"#utility.yul\":15849:15851   */\n      0x20\n        /* \"#utility.yul\":15838:15847   */\n      dup3\n        /* \"#utility.yul\":15834:15852   */\n      add\n        /* \"#utility.yul\":15826:15852   */\n      swap1\n      pop\n        /* \"#utility.yul\":15898:15907   */\n      dup2\n        /* \"#utility.yul\":15892:15896   */\n      dup2\n        /* \"#utility.yul\":15888:15908   */\n      sub\n        /* \"#utility.yul\":15884:15885   */\n      0x00\n        /* \"#utility.yul\":15873:15882   */\n      dup4\n        /* \"#utility.yul\":15869:15886   */\n      add\n        /* \"#utility.yul\":15862:15909   */\n      mstore\n        /* \"#utility.yul\":15926:16057   */\n      tag_314\n        /* \"#utility.yul\":16052:16056   */\n      dup2\n        /* \"#utility.yul\":15926:16057   */\n      tag_169\n      jump\t// in\n    tag_314:\n        /* \"#utility.yul\":15918:16057   */\n      swap1\n      pop\n        /* \"#utility.yul\":15645:16064   */\n      swap2\n      swap1\n      pop\n      jump\t// out\n        /* \"#utility.yul\":16070:16250   */\n    tag_170:\n        /* \"#utility.yul\":16118:16195   */\n      0x4e487b7100000000000000000000000000000000000000000000000000000000\n        /* \"#utility.yul\":16115:16116   */\n      0x00\n        /* \"#utility.yul\":16108:16196   */\n      mstore\n        /* \"#utility.yul\":16215:16219   */\n      0x11\n        /* \"#utility.yul\":16212:16213   */\n      0x04\n        /* \"#utility.yul\":16205:16220   */\n      mstore\n        /* \"#utility.yul\":16239:16243   */\n      0x24\n        /* \"#utility.yul\":16236:16237   */\n      0x00\n        /* \"#utility.yul\":16229:16244   */\n      revert\n        /* \"#utility.yul\":16256:16447   */\n    tag_125:\n        /* \"#utility.yul\":16296:16299   */\n      0x00\n        /* \"#utility.yul\":16315:16335   */\n      tag_317\n        /* \"#utility.yul\":16333:16334   */\n      dup3\n        /* \"#utility.yul\":16315:16335   */\n      tag_139\n      jump\t// in\n    tag_317:\n        /* \"#utility.yul\":16310:16335   */\n      swap2\n      pop\n        /* \"#utility.yul\":16349:16369   */\n      tag_318\n        /* \"#utility.yul\":16367:16368   */\n      dup4\n        /* \"#utility.yul\":16349:16369   */\n      tag_139\n      jump\t// in\n    tag_318:\n        /* \"#utility.yul\":16344:16369   */\n      swap3\n      pop\n        /* \"#utility.yul\":16392:16393   */\n      dup3\n        /* \"#utility.yul\":16389:16390   */\n      dup3\n        /* \"#utility.yul\":16385:16394   */\n      add\n        /* \"#utility.yul\":16378:16394   */\n      swap1\n      pop\n        /* \"#utility.yul\":16413:16416   */\n      dup1\n        /* \"#utility.yul\":16410:16411   */\n      dup3\n        /* \"#utility.yul\":16407:16417   */\n      gt\n        /* \"#utility.yul\":16404:16440   */\n      iszero\n      tag_319\n      jumpi\n        /* \"#utility.yul\":16420:16438   */\n      tag_320\n      tag_170\n      jump\t// in\n    tag_320:\n        /* \"#utility.yul\":16404:16440   */\n    tag_319:\n        /* \"#utility.yul\":16256:16447   */\n      swap3\n      swap2\n      pop\n      pop\n      jump\t// out\n\n    auxdata: 0xa264697066735822122057a0b22efca3a3071285b2aeb6d31fca6982271883b7ca508904821d53bb9d6364736f6c634300081a0033\n}\n",
				"bytecode": {
					"linkReferences": {},
					"object": "608060405234801561000f575f80fd5b50604051611a32380380611a32833981810160405281019061003191906102f7565b8160039081610040919061057a565b508060049081610050919061057a565b5061006b3369d3c21bcecceda100000061007260201b60201c565b5050610749565b5f73ffffffffffffffffffffffffffffffffffffffff168273ffffffffffffffffffffffffffffffffffffffff16036100e0576040517f08c379a00000000000000000000000000000000000000000000000000000000081526004016100d7906106a3565b60405180910390fd5b8060025f8282546100f191906106ee565b92505081905550805f808473ffffffffffffffffffffffffffffffffffffffff1673ffffffffffffffffffffffffffffffffffffffff1681526020019081526020015f205f82825401925050819055508173ffffffffffffffffffffffffffffffffffffffff165f73ffffffffffffffffffffffffffffffffffffffff167fddf252ad1be2c89b69c2b068fc378daa952ba7f163c4a11628f55a4df523b3ef8360405161019e9190610730565b60405180910390a35050565b5f604051905090565b5f80fd5b5f80fd5b5f80fd5b5f80fd5b5f601f19601f8301169050919050565b7f4e487b71000000000000000000000000000000000000000000000000000000005f52604160045260245ffd5b610209826101c3565b810181811067ffffffffffffffff82111715610228576102276101d3565b5b80604052505050565b5f61023a6101aa565b90506102468282610200565b919050565b5f67ffffffffffffffff821115610265576102646101d3565b5b61026e826101c3565b9050602081019050919050565b8281835e5f83830152505050565b5f61029b6102968461024b565b610231565b9050828152602081018484840111156102b7576102b66101bf565b5b6102c284828561027b565b509392505050565b5f82601f8301126102de576102dd6101bb565b5b81516102ee848260208601610289565b91505092915050565b5f806040838503121561030d5761030c6101b3565b5b5f83015167ffffffffffffffff81111561032a576103296101b7565b5b610336858286016102ca565b925050602083015167ffffffffffffffff811115610357576103566101b7565b5b610363858286016102ca565b9150509250929050565b5f81519050919050565b7f4e487b71000000000000000000000000000000000000000000000000000000005f52602260045260245ffd5b5f60028204905060018216806103bb57607f821691505b6020821081036103ce576103cd610377565b5b50919050565b5f819050815f5260205f209050919050565b5f6020601f8301049050919050565b5f82821b905092915050565b5f600883026104307fffffffffffffffffffffffffffffffffffffffffffffffffffffffffffffffff826103f5565b61043a86836103f5565b95508019841693508086168417925050509392505050565b5f819050919050565b5f819050919050565b5f61047e61047961047484610452565b61045b565b610452565b9050919050565b5f819050919050565b61049783610464565b6104ab6104a382610485565b848454610401565b825550505050565b5f90565b6104bf6104b3565b6104ca81848461048e565b505050565b5b818110156104ed576104e25f826104b7565b6001810190506104d0565b5050565b601f82111561053257610503816103d4565b61050c846103e6565b8101602085101561051b578190505b61052f610527856103e6565b8301826104cf565b50505b505050565b5f82821c905092915050565b5f6105525f1984600802610537565b1980831691505092915050565b5f61056a8383610543565b9150826002028217905092915050565b6105838261036d565b67ffffffffffffffff81111561059c5761059b6101d3565b5b6105a682546103a4565b6105b18282856104f1565b5f60209050601f8311600181146105e2575f84156105d0578287015190505b6105da858261055f565b865550610641565b601f1984166105f0866103d4565b5f5b82811015610617578489015182556001820191506020850194506020810190506105f2565b868310156106345784890151610630601f891682610543565b8355505b6001600288020188555050505b505050505050565b5f82825260208201905092915050565b7f6d696e7420746f207468652030206164647265737300000000000000000000005f82015250565b5f61068d601583610649565b915061069882610659565b602082019050919050565b5f6020820190508181035f8301526106ba81610681565b9050919050565b7f4e487b71000000000000000000000000000000000000000000000000000000005f52601160045260245ffd5b5f6106f882610452565b915061070383610452565b925082820190508082111561071b5761071a6106c1565b5b92915050565b61072a81610452565b82525050565b5f6020820190506107435f830184610721565b92915050565b6112dc806107565f395ff3fe608060405234801561000f575f80fd5b506004361061009c575f3560e01c8063313ce56711610064578063313ce5671461015857806370a082311461017657806395d89b41146101a6578063a9059cbb146101c4578063dd62ed3e146101f45761009c565b806306fdde03146100a0578063095ea7b3146100be57806318160ddd146100ee57806323b872dd1461010c578063256fa2411461013c575b5f80fd5b6100a8610224565b6040516100b59190610b06565b60405180910390f35b6100d860048036038101906100d39190610bc4565b6102b4565b6040516100e59190610c1c565b60405180910390f35b6100f66102cf565b6040516101039190610c44565b60405180910390f35b61012660048036038101906101219190610c5d565b6102d8565b6040516101339190610c1c565b60405180910390f35b61015660048036038101906101519190610ded565b6102ff565b005b610160610340565b60405161016d9190610e62565b60405180910390f35b610190600480360381019061018b9190610e7b565b610348565b60405161019d9190610c44565b60405180910390f35b6101ae61038d565b6040516101bb9190610b06565b60405180910390f35b6101de60048036038101906101d99190610bc4565b61041d565b6040516101eb9190610c1c565b60405180910390f35b61020e60048036038101906102099190610ea6565b610438565b60405161021b9190610c44565b60405180910390f35b60606003805461023390610f11565b80601f016020809104026020016040519081016040528092919081815260200182805461025f90610f11565b80156102aa5780601f10610281576101008083540402835291602001916102aa565b820191905f5260205f20905b81548152906001019060200180831161028d57829003601f168201915b5050505050905090565b5f803390506102c48185856104ba565b600191505092915050565b5f600254905090565b5f803390506102e885828561067d565b6102f3858585610708565b60019150509392505050565b5f5b825181101561033b5761032e8382815181106103205761031f610f41565b5b60200260200101518361095e565b8080600101915050610301565b505050565b5f6012905090565b5f805f8373ffffffffffffffffffffffffffffffffffffffff1673ffffffffffffffffffffffffffffffffffffffff1681526020019081526020015f20549050919050565b60606004805461039c90610f11565b80601f01602080910402602001604051908101604052809291908181526020018280546103c890610f11565b80156104135780601f106103ea57610100808354040283529160200191610413565b820191905f5260205f20905b8154815290600101906020018083116103f657829003601f168201915b5050505050905090565b5f8033905061042d818585610708565b600191505092915050565b5f60015f8473ffffffffffffffffffffffffffffffffffffffff1673ffffffffffffffffffffffffffffffffffffffff1681526020019081526020015f205f8373ffffffffffffffffffffffffffffffffffffffff1673ffffffffffffffffffffffffffffffffffffffff1681526020019081526020015f2054905092915050565b5f73ffffffffffffffffffffffffffffffffffffffff168373ffffffffffffffffffffffffffffffffffffffff1603610528576040517f08c379a000000000000000000000000000000000000000000000000000000000815260040161051f90610fb8565b60405180910390fd5b5f73ffffffffffffffffffffffffffffffffffffffff168273ffffffffffffffffffffffffffffffffffffffff1603610596576040517f08c379a000000000000000000000000000000000000000000000000000000000815260040161058d90611020565b60405180910390fd5b8060015f8573ffffffffffffffffffffffffffffffffffffffff1673ffffffffffffffffffffffffffffffffffffffff1681526020019081526020015f205f8473ffffffffffffffffffffffffffffffffffffffff1673ffffffffffffffffffffffffffffffffffffffff1681526020019081526020015f20819055508173ffffffffffffffffffffffffffffffffffffffff168373ffffffffffffffffffffffffffffffffffffffff167f8c5be1e5ebec7d5bd14f71427d1e84f3dd0314c0f7b2291e5b200ac8c7c3b925836040516106709190610c44565b60405180910390a3505050565b5f6106888484610438565b90507fffffffffffffffffffffffffffffffffffffffffffffffffffffffffffffffff811461070257818110156106f4576040517f08c379a00000000000000000000000000000000000000000000000000000000081526004016106eb90611088565b60405180910390fd5b61070184848484036104ba565b5b50505050565b5f73ffffffffffffffffffffffffffffffffffffffff168373ffffffffffffffffffffffffffffffffffffffff1603610776576040517f08c379a000000000000000000000000000000000000000000000000000000000815260040161076d906110f0565b60405180910390fd5b5f73ffffffffffffffffffffffffffffffffffffffff168273ffffffffffffffffffffffffffffffffffffffff16036107e4576040517f08c379a00000000000000000000000000000000000000000000000000000000081526004016107db90611158565b60405180910390fd5b5f805f8573ffffffffffffffffffffffffffffffffffffffff1673ffffffffffffffffffffffffffffffffffffffff1681526020019081526020015f2054905081811015610867576040517f08c379a000000000000000000000000000000000000000000000000000000000815260040161085e906111c0565b60405180910390fd5b8181035f808673ffffffffffffffffffffffffffffffffffffffff1673ffffffffffffffffffffffffffffffffffffffff1681526020019081526020015f2081905550815f808573ffffffffffffffffffffffffffffffffffffffff1673ffffffffffffffffffffffffffffffffffffffff1681526020019081526020015f205f82825401925050819055508273ffffffffffffffffffffffffffffffffffffffff168473ffffffffffffffffffffffffffffffffffffffff167fddf252ad1be2c89b69c2b068fc378daa952ba7f163c4a11628f55a4df523b3ef846040516109509190610c44565b60405180910390a350505050565b5f73ffffffffffffffffffffffffffffffffffffffff168273ffffffffffffffffffffffffffffffffffffffff16036109cc576040517f08c379a00000000000000000000000000000000000000000000000000000000081526004016109c390611228565b60405180910390fd5b8060025f8282546109dd9190611273565b92505081905550805f808473ffffffffffffffffffffffffffffffffffffffff1673ffffffffffffffffffffffffffffffffffffffff1681526020019081526020015f205f82825401925050819055508173ffffffffffffffffffffffffffffffffffffffff165f73ffffffffffffffffffffffffffffffffffffffff167fddf252ad1be2c89b69c2b068fc378daa952ba7f163c4a11628f55a4df523b3ef83604051610a8a9190610c44565b60405180910390a35050565b5f81519050919050565b5f82825260208201905092915050565b8281835e5f83830152505050565b5f601f19601f8301169050919050565b5f610ad882610a96565b610ae28185610aa0565b9350610af2818560208601610ab0565b610afb81610abe565b840191505092915050565b5f6020820190508181035f830152610b1e8184610ace565b905092915050565b5f604051905090565b5f80fd5b5f80fd5b5f73ffffffffffffffffffffffffffffffffffffffff82169050919050565b5f610b6082610b37565b9050919050565b610b7081610b56565b8114610b7a575f80fd5b50565b5f81359050610b8b81610b67565b92915050565b5f819050919050565b610ba381610b91565b8114610bad575f80fd5b50565b5f81359050610bbe81610b9a565b92915050565b5f8060408385031215610bda57610bd9610b2f565b5b5f610be785828601610b7d565b9250506020610bf885828601610bb0565b9150509250929050565b5f8115159050919050565b610c1681610c02565b82525050565b5f602082019050610c2f5f830184610c0d565b92915050565b610c3e81610b91565b82525050565b5f602082019050610c575f830184610c35565b92915050565b5f805f60608486031215610c7457610c73610b2f565b5b5f610c8186828701610b7d565b9350506020610c9286828701610b7d565b9250506040610ca386828701610bb0565b9150509250925092565b5f80fd5b7f4e487b71000000000000000000000000000000000000000000000000000000005f52604160045260245ffd5b610ce782610abe565b810181811067ffffffffffffffff82111715610d0657610d05610cb1565b5b80604052505050565b5f610d18610b26565b9050610d248282610cde565b919050565b5f67ffffffffffffffff821115610d4357610d42610cb1565b5b602082029050602081019050919050565b5f80fd5b5f610d6a610d6584610d29565b610d0f565b90508083825260208201905060208402830185811115610d8d57610d8c610d54565b5b835b81811015610db65780610da28882610b7d565b845260208401935050602081019050610d8f565b5050509392505050565b5f82601f830112610dd457610dd3610cad565b5b8135610de4848260208601610d58565b91505092915050565b5f8060408385031215610e0357610e02610b2f565b5b5f83013567ffffffffffffffff811115610e2057610e1f610b33565b5b610e2c85828601610dc0565b9250506020610e3d85828601610bb0565b9150509250929050565b5f60ff82169050919050565b610e5c81610e47565b82525050565b5f602082019050610e755f830184610e53565b92915050565b5f60208284031215610e9057610e8f610b2f565b5b5f610e9d84828501610b7d565b91505092915050565b5f8060408385031215610ebc57610ebb610b2f565b5b5f610ec985828601610b7d565b9250506020610eda85828601610b7d565b9150509250929050565b7f4e487b71000000000000000000000000000000000000000000000000000000005f52602260045260245ffd5b5f6002820490506001821680610f2857607f821691505b602082108103610f3b57610f3a610ee4565b5b50919050565b7f4e487b71000000000000000000000000000000000000000000000000000000005f52603260045260245ffd5b7f617070726f76652066726f6d20746865203020616464726573730000000000005f82015250565b5f610fa2601a83610aa0565b9150610fad82610f6e565b602082019050919050565b5f6020820190508181035f830152610fcf81610f96565b9050919050565b7f617070726f766520746f207468652030206164647265737300000000000000005f82015250565b5f61100a601883610aa0565b915061101582610fd6565b602082019050919050565b5f6020820190508181035f83015261103781610ffe565b9050919050565b7f696e73756666696369656e7420616c6c6f77616e6365000000000000000000005f82015250565b5f611072601683610aa0565b915061107d8261103e565b602082019050919050565b5f6020820190508181035f83015261109f81611066565b9050919050565b7f5472616e736665722066726f6d206164647265737320300000000000000000005f82015250565b5f6110da601783610aa0565b91506110e5826110a6565b602082019050919050565b5f6020820190508181035f830152611107816110ce565b9050919050565b7f5472616e7366657220746f2061646472657373203000000000000000000000005f82015250565b5f611142601583610aa0565b915061114d8261110e565b602082019050919050565b5f6020820190508181035f83015261116f81611136565b9050919050565b7f42616c616e6365206578636565646564000000000000000000000000000000005f82015250565b5f6111aa601083610aa0565b91506111b582611176565b602082019050919050565b5f6020820190508181035f8301526111d78161119e565b9050919050565b7f6d696e7420746f207468652030206164647265737300000000000000000000005f82015250565b5f611212601583610aa0565b915061121d826111de565b602082019050919050565b5f6020820190508181035f83015261123f81611206565b9050919050565b7f4e487b71000000000000000000000000000000000000000000000000000000005f52601160045260245ffd5b5f61127d82610b91565b915061128883610b91565b92508282019050808211156112a05761129f611246565b5b9291505056fea264697066735822122057a0b22efca3a3071285b2aeb6d31fca6982271883b7ca508904821d53bb9d6364736f6c634300081a0033",
					"opcodes": "PUSH1 0x80 PUSH1 0x40 MSTORE CALLVALUE DUP1 ISZERO PUSH2 0xF JUMPI PUSH0 DUP1 REVERT JUMPDEST POP PUSH1 0x40 MLOAD PUSH2 0x1A32 CODESIZE SUB DUP1 PUSH2 0x1A32 DUP4 CODECOPY DUP2 DUP2 ADD PUSH1 0x40 MSTORE DUP2 ADD SWAP1 PUSH2 0x31 SWAP2 SWAP1 PUSH2 0x2F7 JUMP JUMPDEST DUP2 PUSH1 0x3 SWAP1 DUP2 PUSH2 0x40 SWAP2 SWAP1 PUSH2 0x57A JUMP JUMPDEST POP DUP1 PUSH1 0x4 SWAP1 DUP2 PUSH2 0x50 SWAP2 SWAP1 PUSH2 0x57A JUMP JUMPDEST POP PUSH2 0x6B CALLER PUSH10 0xD3C21BCECCEDA1000000 PUSH2 0x72 PUSH1 0x20 SHL PUSH1 0x20 SHR JUMP JUMPDEST POP POP PUSH2 0x749 JUMP JUMPDEST PUSH0 PUSH20 0xFFFFFFFFFFFFFFFFFFFFFFFFFFFFFFFFFFFFFFFF AND DUP3 PUSH20 0xFFFFFFFFFFFFFFFFFFFFFFFFFFFFFFFFFFFFFFFF AND SUB PUSH2 0xE0 JUMPI PUSH1 0x40 MLOAD PUSH32 0x8C379A000000000000000000000000000000000000000000000000000000000 DUP2 MSTORE PUSH1 0x4 ADD PUSH2 0xD7 SWAP1 PUSH2 0x6A3 JUMP JUMPDEST PUSH1 0x40 MLOAD DUP1 SWAP2 SUB SWAP1 REVERT JUMPDEST DUP1 PUSH1 0x2 PUSH0 DUP3 DUP3 SLOAD PUSH2 0xF1 SWAP2 SWAP1 PUSH2 0x6EE JUMP JUMPDEST SWAP3 POP POP DUP2 SWAP1 SSTORE POP DUP1 PUSH0 DUP1 DUP5 PUSH20 0xFFFFFFFFFFFFFFFFFFFFFFFFFFFFFFFFFFFFFFFF AND PUSH20 0xFFFFFFFFFFFFFFFFFFFFFFFFFFFFFFFFFFFFFFFF AND DUP2 MSTORE PUSH1 0x20 ADD SWAP1 DUP2 MSTORE PUSH1 0x20 ADD PUSH0 KECCAK256 PUSH0 DUP3 DUP3 SLOAD ADD SWAP3 POP POP DUP2 SWAP1 SSTORE POP DUP2 PUSH20 0xFFFFFFFFFFFFFFFFFFFFFFFFFFFFFFFFFFFFFFFF AND PUSH0 PUSH20 0xFFFFFFFFFFFFFFFFFFFFFFFFFFFFFFFFFFFFFFFF AND PUSH32 0xDDF252AD1BE2C89B69C2B068FC378DAA952BA7F163C4A11628F55A4DF523B3EF DUP4 PUSH1 0x40 MLOAD PUSH2 0x19E SWAP2 SWAP1 PUSH2 0x730 JUMP JUMPDEST PUSH1 0x40 MLOAD DUP1 SWAP2 SUB SWAP1 LOG3 POP POP JUMP JUMPDEST PUSH0 PUSH1 0x40 MLOAD SWAP1 POP SWAP1 JUMP JUMPDEST PUSH0 DUP1 REVERT JUMPDEST PUSH0 DUP1 REVERT JUMPDEST PUSH0 DUP1 REVERT JUMPDEST PUSH0 DUP1 REVERT JUMPDEST PUSH0 PUSH1 0x1F NOT PUSH1 0x1F DUP4 ADD AND SWAP1 POP SWAP2 SWAP1 POP JUMP JUMPDEST PUSH32 0x4E487B7100000000000000000000000000000000000000000000000000000000 PUSH0 MSTORE PUSH1 0x41 PUSH1 0x4 MSTORE PUSH1 0x24 PUSH0 REVERT JUMPDEST PUSH2 0x209 DUP3 PUSH2 0x1C3 JUMP JUMPDEST DUP2 ADD DUP2 DUP2 LT PUSH8 0xFFFFFFFFFFFFFFFF DUP3 GT OR ISZERO PUSH2 0x228 JUMPI PUSH2 0x227 PUSH2 0x1D3 JUMP JUMPDEST JUMPDEST DUP1 PUSH1 0x40 MSTORE POP POP POP JUMP JUMPDEST PUSH0 PUSH2 0x23A PUSH2 0x1AA JUMP JUMPDEST SWAP1 POP PUSH2 0x246 DUP3 DUP3 PUSH2 0x200 JUMP JUMPDEST SWAP2 SWAP1 POP JUMP JUMPDEST PUSH0 PUSH8 0xFFFFFFFFFFFFFFFF DUP3 GT ISZERO PUSH2 0x265 JUMPI PUSH2 0x264 PUSH2 0x1D3 JUMP JUMPDEST JUMPDEST PUSH2 0x26E DUP3 PUSH2 0x1C3 JUMP JUMPDEST SWAP1 POP PUSH1 0x20 DUP2 ADD SWAP1 POP SWAP2 SWAP1 POP JUMP JUMPDEST DUP3 DUP2 DUP4 MCOPY PUSH0 DUP4 DUP4 ADD MSTORE POP POP POP JUMP JUMPDEST PUSH0 PUSH2 0x29B PUSH2 0x296 DUP5 PUSH2 0x24B JUMP JUMPDEST PUSH2 0x231 JUMP JUMPDEST SWAP1 POP DUP3 DUP2 MSTORE PUSH1 0x20 DUP2 ADD DUP5 DUP5 DUP5 ADD GT ISZERO PUSH2 0x2B7 JUMPI PUSH2 0x2B6 PUSH2 0x1BF JUMP JUMPDEST JUMPDEST PUSH2 0x2C2 DUP5 DUP3 DUP6 PUSH2 0x27B JUMP JUMPDEST POP SWAP4 SWAP3 POP POP POP JUMP JUMPDEST PUSH0 DUP3 PUSH1 0x1F DUP4 ADD SLT PUSH2 0x2DE JUMPI PUSH2 0x2DD PUSH2 0x1BB JUMP JUMPDEST JUMPDEST DUP2 MLOAD PUSH2 0x2EE DUP5 DUP3 PUSH1 0x20 DUP7 ADD PUSH2 0x289 JUMP JUMPDEST SWAP2 POP POP SWAP3 SWAP2 POP POP JUMP JUMPDEST PUSH0 DUP1 PUSH1 0x40 DUP4 DUP6 SUB SLT ISZERO PUSH2 0x30D JUMPI PUSH2 0x30C PUSH2 0x1B3 JUMP JUMPDEST JUMPDEST PUSH0 DUP4 ADD MLOAD PUSH8 0xFFFFFFFFFFFFFFFF DUP2 GT ISZERO PUSH2 0x32A JUMPI PUSH2 0x329 PUSH2 0x1B7 JUMP JUMPDEST JUMPDEST PUSH2 0x336 DUP6 DUP3 DUP7 ADD PUSH2 0x2CA JUMP JUMPDEST SWAP3 POP POP PUSH1 0x20 DUP4 ADD MLOAD PUSH8 0xFFFFFFFFFFFFFFFF DUP2 GT ISZERO PUSH2 0x357 JUMPI PUSH2 0x356 PUSH2 0x1B7 JUMP JUMPDEST JUMPDEST PUSH2 0x363 DUP6 DUP3 DUP7 ADD PUSH2 0x2CA JUMP JUMPDEST SWAP2 POP POP SWAP3 POP SWAP3 SWAP1 POP JUMP JUMPDEST PUSH0 DUP2 MLOAD SWAP1 POP SWAP2 SWAP1 POP JUMP JUMPDEST PUSH32 0x4E487B7100000000000000000000000000000000000000000000000000000000 PUSH0 MSTORE PUSH1 0x22 PUSH1 0x4 MSTORE PUSH1 0x24 PUSH0 REVERT JUMPDEST PUSH0 PUSH1 0x2 DUP3 DIV SWAP1 POP PUSH1 0x1 DUP3 AND DUP1 PUSH2 0x3BB JUMPI PUSH1 0x7F DUP3 AND SWAP2 POP JUMPDEST PUSH1 0x20 DUP3 LT DUP2 SUB PUSH2 0x3CE JUMPI PUSH2 0x3CD PUSH2 0x377 JUMP JUMPDEST JUMPDEST POP SWAP2 SWAP1 POP JUMP JUMPDEST PUSH0 DUP2 SWAP1 POP DUP2 PUSH0 MSTORE PUSH1 0x20 PUSH0 KECCAK256 SWAP1 POP SWAP2 SWAP1 POP JUMP JUMPDEST PUSH0 PUSH1 0x20 PUSH1 0x1F DUP4 ADD DIV SWAP1 POP SWAP2 SWAP1 POP JUMP JUMPDEST PUSH0 DUP3 DUP3 SHL SWAP1 POP SWAP3 SWAP2 POP POP JUMP JUMPDEST PUSH0 PUSH1 0x8 DUP4 MUL PUSH2 0x430 PUSH32 0xFFFFFFFFFFFFFFFFFFFFFFFFFFFFFFFFFFFFFFFFFFFFFFFFFFFFFFFFFFFFFFFF DUP3 PUSH2 0x3F5 JUMP JUMPDEST PUSH2 0x43A DUP7 DUP4 PUSH2 0x3F5 JUMP JUMPDEST SWAP6 POP DUP1 NOT DUP5 AND SWAP4 POP DUP1 DUP7 AND DUP5 OR SWAP3 POP POP POP SWAP4 SWAP3 POP POP POP JUMP JUMPDEST PUSH0 DUP2 SWAP1 POP SWAP2 SWAP1 POP JUMP JUMPDEST PUSH0 DUP2 SWAP1 POP SWAP2 SWAP1 POP JUMP JUMPDEST PUSH0 PUSH2 0x47E PUSH2 0x479 PUSH2 0x474 DUP5 PUSH2 0x452 JUMP JUMPDEST PUSH2 0x45B JUMP JUMPDEST PUSH2 0x452 JUMP JUMPDEST SWAP1 POP SWAP2 SWAP1 POP JUMP JUMPDEST PUSH0 DUP2 SWAP1 POP SWAP2 SWAP1 POP JUMP JUMPDEST PUSH2 0x497 DUP4 PUSH2 0x464 JUMP JUMPDEST PUSH2 0x4AB PUSH2 0x4A3 DUP3 PUSH2 0x485 JUMP JUMPDEST DUP5 DUP5 SLOAD PUSH2 0x401 JUMP JUMPDEST DUP3 SSTORE POP POP POP POP JUMP JUMPDEST PUSH0 SWAP1 JUMP JUMPDEST PUSH2 0x4BF PUSH2 0x4B3 JUMP JUMPDEST PUSH2 0x4CA DUP2 DUP5 DUP5 PUSH2 0x48E JUMP JUMPDEST POP POP POP JUMP JUMPDEST JUMPDEST DUP2 DUP2 LT ISZERO PUSH2 0x4ED JUMPI PUSH2 0x4E2 PUSH0 DUP3 PUSH2 0x4B7 JUMP JUMPDEST PUSH1 0x1 DUP2 ADD SWAP1 POP PUSH2 0x4D0 JUMP JUMPDEST POP POP JUMP JUMPDEST PUSH1 0x1F DUP3 GT ISZERO PUSH2 0x532 JUMPI PUSH2 0x503 DUP2 PUSH2 0x3D4 JUMP JUMPDEST PUSH2 0x50C DUP5 PUSH2 0x3E6 JUMP JUMPDEST DUP2 ADD PUSH1 0x20 DUP6 LT ISZERO PUSH2 0x51B JUMPI DUP2 SWAP1 POP JUMPDEST PUSH2 0x52F PUSH2 0x527 DUP6 PUSH2 0x3E6 JUMP JUMPDEST DUP4 ADD DUP3 PUSH2 0x4CF JUMP JUMPDEST POP POP JUMPDEST POP POP POP JUMP JUMPDEST PUSH0 DUP3 DUP3 SHR SWAP1 POP SWAP3 SWAP2 POP POP JUMP JUMPDEST PUSH0 PUSH2 0x552 PUSH0 NOT DUP5 PUSH1 0x8 MUL PUSH2 0x537 JUMP JUMPDEST NOT DUP1 DUP4 AND SWAP2 POP POP SWAP3 SWAP2 POP POP JUMP JUMPDEST PUSH0 PUSH2 0x56A DUP4 DUP4 PUSH2 0x543 JUMP JUMPDEST SWAP2 POP DUP3 PUSH1 0x2 MUL DUP3 OR SWAP1 POP SWAP3 SWAP2 POP POP JUMP JUMPDEST PUSH2 0x583 DUP3 PUSH2 0x36D JUMP JUMPDEST PUSH8 0xFFFFFFFFFFFFFFFF DUP2 GT ISZERO PUSH2 0x59C JUMPI PUSH2 0x59B PUSH2 0x1D3 JUMP JUMPDEST JUMPDEST PUSH2 0x5A6 DUP3 SLOAD PUSH2 0x3A4 JUMP JUMPDEST PUSH2 0x5B1 DUP3 DUP3 DUP6 PUSH2 0x4F1 JUMP JUMPDEST PUSH0 PUSH1 0x20 SWAP1 POP PUSH1 0x1F DUP4 GT PUSH1 0x1 DUP2 EQ PUSH2 0x5E2 JUMPI PUSH0 DUP5 ISZERO PUSH2 0x5D0 JUMPI DUP3 DUP8 ADD MLOAD SWAP1 POP JUMPDEST PUSH2 0x5DA DUP6 DUP3 PUSH2 0x55F JUMP JUMPDEST DUP7 SSTORE POP PUSH2 0x641 JUMP JUMPDEST PUSH1 0x1F NOT DUP5 AND PUSH2 0x5F0 DUP7 PUSH2 0x3D4 JUMP JUMPDEST PUSH0 JUMPDEST DUP3 DUP2 LT ISZERO PUSH2 0x617 JUMPI DUP5 DUP10 ADD MLOAD DUP3 SSTORE PUSH1 0x1 DUP3 ADD SWAP2 POP PUSH1 0x20 DUP6 ADD SWAP5 POP PUSH1 0x20 DUP2 ADD SWAP1 POP PUSH2 0x5F2 JUMP JUMPDEST DUP7 DUP4 LT ISZERO PUSH2 0x634 JUMPI DUP5 DUP10 ADD MLOAD PUSH2 0x630 PUSH1 0x1F DUP10 AND DUP3 PUSH2 0x543 JUMP JUMPDEST DUP4 SSTORE POP JUMPDEST PUSH1 0x1 PUSH1 0x2 DUP9 MUL ADD DUP9 SSTORE POP POP POP JUMPDEST POP POP POP POP POP POP JUMP JUMPDEST PUSH0 DUP3 DUP3 MSTORE PUSH1 0x20 DUP3 ADD SWAP1 POP SWAP3 SWAP2 POP POP JUMP JUMPDEST PUSH32 0x6D696E7420746F20746865203020616464726573730000000000000000000000 PUSH0 DUP3 ADD MSTORE POP JUMP JUMPDEST PUSH0 PUSH2 0x68D PUSH1 0x15 DUP4 PUSH2 0x649 JUMP JUMPDEST SWAP2 POP PUSH2 0x698 DUP3 PUSH2 0x659 JUMP JUMPDEST PUSH1 0x20 DUP3 ADD SWAP1 POP SWAP2 SWAP1 POP JUMP JUMPDEST PUSH0 PUSH1 0x20 DUP3 ADD SWAP1 POP DUP2 DUP2 SUB PUSH0 DUP4 ADD MSTORE PUSH2 0x6BA DUP2 PUSH2 0x681 JUMP JUMPDEST SWAP1 POP SWAP2 SWAP1 POP JUMP JUMPDEST PUSH32 0x4E487B7100000000000000000000000000000000000000000000000000000000 PUSH0 MSTORE PUSH1 0x11 PUSH1 0x4 MSTORE PUSH1 0x24 PUSH0 REVERT JUMPDEST PUSH0 PUSH2 0x6F8 DUP3 PUSH2 0x452 JUMP JUMPDEST SWAP2 POP PUSH2 0x703 DUP4 PUSH2 0x452 JUMP JUMPDEST SWAP3 POP DUP3 DUP3 ADD SWAP1 POP DUP1 DUP3 GT ISZERO PUSH2 0x71B JUMPI PUSH2 0x71A PUSH2 0x6C1 JUMP JUMPDEST JUMPDEST SWAP3 SWAP2 POP POP JUMP JUMPDEST PUSH2 0x72A DUP2 PUSH2 0x452 JUMP JUMPDEST DUP3 MSTORE POP POP JUMP JUMPDEST PUSH0 PUSH1 0x20 DUP3 ADD SWAP1 POP PUSH2 0x743 PUSH0 DUP4 ADD DUP5 PUSH2 0x721 JUMP JUMPDEST SWAP3 SWAP2 POP POP JUMP JUMPDEST PUSH2 0x12DC DUP1 PUSH2 0x756 PUSH0 CODECOPY PUSH0 RETURN INVALID PUSH1 0x80 PUSH1 0x40 MSTORE CALLVALUE DUP1 ISZERO PUSH2 0xF JUMPI PUSH0 DUP1 REVERT JUMPDEST POP PUSH1 0x4 CALLDATASIZE LT PUSH2 0x9C JUMPI PUSH0 CALLDATALOAD PUSH1 0xE0 SHR DUP1 PUSH4 0x313CE567 GT PUSH2 0x64 JUMPI DUP1 PUSH4 0x313CE567 EQ PUSH2 0x158 JUMPI DUP1 PUSH4 0x70A08231 EQ PUSH2 0x176 JUMPI DUP1 PUSH4 0x95D89B41 EQ PUSH2 0x1A6 JUMPI DUP1 PUSH4 0xA9059CBB EQ PUSH2 0x1C4 JUMPI DUP1 PUSH4 0xDD62ED3E EQ PUSH2 0x1F4 JUMPI PUSH2 0x9C JUMP JUMPDEST DUP1 PUSH4 0x6FDDE03 EQ PUSH2 0xA0 JUMPI DUP1 PUSH4 0x95EA7B3 EQ PUSH2 0xBE JUMPI DUP1 PUSH4 0x18160DDD EQ PUSH2 0xEE JUMPI DUP1 PUSH4 0x23B872DD EQ PUSH2 0x10C JUMPI DUP1 PUSH4 0x256FA241 EQ PUSH2 0x13C JUMPI JUMPDEST PUSH0 DUP1 REVERT JUMPDEST PUSH2 0xA8 PUSH2 0x224 JUMP JUMPDEST PUSH1 0x40 MLOAD PUSH2 0xB5 SWAP2 SWAP1 PUSH2 0xB06 JUMP JUMPDEST PUSH1 0x40 MLOAD DUP1 SWAP2 SUB SWAP1 RETURN JUMPDEST PUSH2 0xD8 PUSH1 0x4 DUP1 CALLDATASIZE SUB DUP2 ADD SWAP1 PUSH2 0xD3 SWAP2 SWAP1 PUSH2 0xBC4 JUMP JUMPDEST PUSH2 0x2B4 JUMP JUMPDEST PUSH1 0x40 MLOAD PUSH2 0xE5 SWAP2 SWAP1 PUSH2 0xC1C JUMP JUMPDEST PUSH1 0x40 MLOAD DUP1 SWAP2 SUB SWAP1 RETURN JUMPDEST PUSH2 0xF6 PUSH2 0x2CF JUMP JUMPDEST PUSH1 0x40 MLOAD PUSH2 0x103 SWAP2 SWAP1 PUSH2 0xC44 JUMP JUMPDEST PUSH1 0x40 MLOAD DUP1 SWAP2 SUB SWAP1 RETURN JUMPDEST PUSH2 0x126 PUSH1 0x4 DUP1 CALLDATASIZE SUB DUP2 ADD SWAP1 PUSH2 0x121 SWAP2 SWAP1 PUSH2 0xC5D JUMP JUMPDEST PUSH2 0x2D8 JUMP JUMPDEST PUSH1 0x40 MLOAD PUSH2 0x133 SWAP2 SWAP1 PUSH2 0xC1C JUMP JUMPDEST PUSH1 0x40 MLOAD DUP1 SWAP2 SUB SWAP1 RETURN JUMPDEST PUSH2 0x156 PUSH1 0x4 DUP1 CALLDATASIZE SUB DUP2 ADD SWAP1 PUSH2 0x151 SWAP2 SWAP1 PUSH2 0xDED JUMP JUMPDEST PUSH2 0x2FF JUMP JUMPDEST STOP JUMPDEST PUSH2 0x160 PUSH2 0x340 JUMP JUMPDEST PUSH1 0x40 MLOAD PUSH2 0x16D SWAP2 SWAP1 PUSH2 0xE62 JUMP JUMPDEST PUSH1 0x40 MLOAD DUP1 SWAP2 SUB SWAP1 RETURN JUMPDEST PUSH2 0x190 PUSH1 0x4 DUP1 CALLDATASIZE SUB DUP2 ADD SWAP1 PUSH2 0x18B SWAP2 SWAP1 PUSH2 0xE7B JUMP JUMPDEST PUSH2 0x348 JUMP JUMPDEST PUSH1 0x40 MLOAD PUSH2 0x19D SWAP2 SWAP1 PUSH2 0xC44 JUMP JUMPDEST PUSH1 0x40 MLOAD DUP1 SWAP2 SUB SWAP1 RETURN JUMPDEST PUSH2 0x1AE PUSH2 0x38D JUMP JUMPDEST PUSH1 0x40 MLOAD PUSH2 0x1BB SWAP2 SWAP1 PUSH2 0xB06 JUMP JUMPDEST PUSH1 0x40 MLOAD DUP1 SWAP2 SUB SWAP1 RETURN JUMPDEST PUSH2 0x1DE PUSH1 0x4 DUP1 CALLDATASIZE SUB DUP2 ADD SWAP1 PUSH2 0x1D9 SWAP2 SWAP1 PUSH2 0xBC4 JUMP JUMPDEST PUSH2 0x41D JUMP JUMPDEST PUSH1 0x40 MLOAD PUSH2 0x1EB SWAP2 SWAP1 PUSH2 0xC1C JUMP JUMPDEST PUSH1 0x40 MLOAD DUP1 SWAP2 SUB SWAP1 RETURN JUMPDEST PUSH2 0x20E PUSH1 0x4 DUP1 CALLDATASIZE SUB DUP2 ADD SWAP1 PUSH2 0x209 SWAP2 SWAP1 PUSH2 0xEA6 JUMP JUMPDEST PUSH2 0x438 JUMP JUMPDEST PUSH1 0x40 MLOAD PUSH2 0x21B SWAP2 SWAP1 PUSH2 0xC44 JUMP JUMPDEST PUSH1 0x40 MLOAD DUP1 SWAP2 SUB SWAP1 RETURN JUMPDEST PUSH1 0x60 PUSH1 0x3 DUP1 SLOAD PUSH2 0x233 SWAP1 PUSH2 0xF11 JUMP JUMPDEST DUP1 PUSH1 0x1F ADD PUSH1 0x20 DUP1 SWAP2 DIV MUL PUSH1 0x20 ADD PUSH1 0x40 MLOAD SWAP1 DUP2 ADD PUSH1 0x40 MSTORE DUP1 SWAP3 SWAP2 SWAP1 DUP2 DUP2 MSTORE PUSH1 0x20 ADD DUP3 DUP1 SLOAD PUSH2 0x25F SWAP1 PUSH2 0xF11 JUMP JUMPDEST DUP1 ISZERO PUSH2 0x2AA JUMPI DUP1 PUSH1 0x1F LT PUSH2 0x281 JUMPI PUSH2 0x100 DUP1 DUP4 SLOAD DIV MUL DUP4 MSTORE SWAP2 PUSH1 0x20 ADD SWAP2 PUSH2 0x2AA JUMP JUMPDEST DUP3 ADD SWAP2 SWAP1 PUSH0 MSTORE PUSH1 0x20 PUSH0 KECCAK256 SWAP1 JUMPDEST DUP2 SLOAD DUP2 MSTORE SWAP1 PUSH1 0x1 ADD SWAP1 PUSH1 0x20 ADD DUP1 DUP4 GT PUSH2 0x28D JUMPI DUP3 SWAP1 SUB PUSH1 0x1F AND DUP3 ADD SWAP2 JUMPDEST POP POP POP POP POP SWAP1 POP SWAP1 JUMP JUMPDEST PUSH0 DUP1 CALLER SWAP1 POP PUSH2 0x2C4 DUP2 DUP6 DUP6 PUSH2 0x4BA JUMP JUMPDEST PUSH1 0x1 SWAP2 POP POP SWAP3 SWAP2 POP POP JUMP JUMPDEST PUSH0 PUSH1 0x2 SLOAD SWAP1 POP SWAP1 JUMP JUMPDEST PUSH0 DUP1 CALLER SWAP1 POP PUSH2 0x2E8 DUP6 DUP3 DUP6 PUSH2 0x67D JUMP JUMPDEST PUSH2 0x2F3 DUP6 DUP6 DUP6 PUSH2 0x708 JUMP JUMPDEST PUSH1 0x1 SWAP2 POP POP SWAP4 SWAP3 POP POP POP JUMP JUMPDEST PUSH0 JUMPDEST DUP3 MLOAD DUP2 LT ISZERO PUSH2 0x33B JUMPI PUSH2 0x32E DUP4 DUP3 DUP2 MLOAD DUP2 LT PUSH2 0x320 JUMPI PUSH2 0x31F PUSH2 0xF41 JUMP JUMPDEST JUMPDEST PUSH1 0x20 MUL PUSH1 0x20 ADD ADD MLOAD DUP4 PUSH2 0x95E JUMP JUMPDEST DUP1 DUP1 PUSH1 0x1 ADD SWAP2 POP POP PUSH2 0x301 JUMP JUMPDEST POP POP POP JUMP JUMPDEST PUSH0 PUSH1 0x12 SWAP1 POP SWAP1 JUMP JUMPDEST PUSH0 DUP1 PUSH0 DUP4 PUSH20 0xFFFFFFFFFFFFFFFFFFFFFFFFFFFFFFFFFFFFFFFF AND PUSH20 0xFFFFFFFFFFFFFFFFFFFFFFFFFFFFFFFFFFFFFFFF AND DUP2 MSTORE PUSH1 0x20 ADD SWAP1 DUP2 MSTORE PUSH1 0x20 ADD PUSH0 KECCAK256 SLOAD SWAP1 POP SWAP2 SWAP1 POP JUMP JUMPDEST PUSH1 0x60 PUSH1 0x4 DUP1 SLOAD PUSH2 0x39C SWAP1 PUSH2 0xF11 JUMP JUMPDEST DUP1 PUSH1 0x1F ADD PUSH1 0x20 DUP1 SWAP2 DIV MUL PUSH1 0x20 ADD PUSH1 0x40 MLOAD SWAP1 DUP2 ADD PUSH1 0x40 MSTORE DUP1 SWAP3 SWAP2 SWAP1 DUP2 DUP2 MSTORE PUSH1 0x20 ADD DUP3 DUP1 SLOAD PUSH2 0x3C8 SWAP1 PUSH2 0xF11 JUMP JUMPDEST DUP1 ISZERO PUSH2 0x413 JUMPI DUP1 PUSH1 0x1F LT PUSH2 0x3EA JUMPI PUSH2 0x100 DUP1 DUP4 SLOAD DIV MUL DUP4 MSTORE SWAP2 PUSH1 0x20 ADD SWAP2 PUSH2 0x413 JUMP JUMPDEST DUP3 ADD SWAP2 SWAP1 PUSH0 MSTORE PUSH1 0x20 PUSH0 KECCAK256 SWAP1 JUMPDEST DUP2 SLOAD DUP2 MSTORE SWAP1 PUSH1 0x1 ADD SWAP1 PUSH1 0x20 ADD DUP1 DUP4 GT PUSH2 0x3F6 JUMPI DUP3 SWAP1 SUB PUSH1 0x1F AND DUP3 ADD SWAP2 JUMPDEST POP POP POP POP POP SWAP1 POP SWAP1 JUMP JUMPDEST PUSH0 DUP1 CALLER SWAP1 POP PUSH2 0x42D DUP2 DUP6 DUP6 PUSH2 0x708 JUMP JUMPDEST PUSH1 0x1 SWAP2 POP POP SWAP3 SWAP2 POP POP JUMP JUMPDEST PUSH0 PUSH1 0x1 PUSH0 DUP5 PUSH20 0xFFFFFFFFFFFFFFFFFFFFFFFFFFFFFFFFFFFFFFFF AND PUSH20 0xFFFFFFFFFFFFFFFFFFFFFFFFFFFFFFFFFFFFFFFF AND DUP2 MSTORE PUSH1 0x20 ADD SWAP1 DUP2 MSTORE PUSH1 0x20 ADD PUSH0 KECCAK256 PUSH0 DUP4 PUSH20 0xFFFFFFFFFFFFFFFFFFFFFFFFFFFFFFFFFFFFFFFF AND PUSH20 0xFFFFFFFFFFFFFFFFFFFFFFFFFFFFFFFFFFFFFFFF AND DUP2 MSTORE PUSH1 0x20 ADD SWAP1 DUP2 MSTORE PUSH1 0x20 ADD PUSH0 KECCAK256 SLOAD SWAP1 POP SWAP3 SWAP2 POP POP JUMP JUMPDEST PUSH0 PUSH20 0xFFFFFFFFFFFFFFFFFFFFFFFFFFFFFFFFFFFFFFFF AND DUP4 PUSH20 0xFFFFFFFFFFFFFFFFFFFFFFFFFFFFFFFFFFFFFFFF AND SUB PUSH2 0x528 JUMPI PUSH1 0x40 MLOAD PUSH32 0x8C379A000000000000000000000000000000000000000000000000000000000 DUP2 MSTORE PUSH1 0x4 ADD PUSH2 0x51F SWAP1 PUSH2 0xFB8 JUMP JUMPDEST PUSH1 0x40 MLOAD DUP1 SWAP2 SUB SWAP1 REVERT JUMPDEST PUSH0 PUSH20 0xFFFFFFFFFFFFFFFFFFFFFFFFFFFFFFFFFFFFFFFF AND DUP3 PUSH20 0xFFFFFFFFFFFFFFFFFFFFFFFFFFFFFFFFFFFFFFFF AND SUB PUSH2 0x596 JUMPI PUSH1 0x40 MLOAD PUSH32 0x8C379A000000000000000000000000000000000000000000000000000000000 DUP2 MSTORE PUSH1 0x4 ADD PUSH2 0x58D SWAP1 PUSH2 0x1020 JUMP JUMPDEST PUSH1 0x40 MLOAD DUP1 SWAP2 SUB SWAP1 REVERT JUMPDEST DUP1 PUSH1 0x1 PUSH0 DUP6 PUSH20 0xFFFFFFFFFFFFFFFFFFFFFFFFFFFFFFFFFFFFFFFF AND PUSH20 0xFFFFFFFFFFFFFFFFFFFFFFFFFFFFFFFFFFFFFFFF AND DUP2 MSTORE PUSH1 0x20 ADD SWAP1 DUP2 MSTORE PUSH1 0x20 ADD PUSH0 KECCAK256 PUSH0 DUP5 PUSH20 0xFFFFFFFFFFFFFFFFFFFFFFFFFFFFFFFFFFFFFFFF AND PUSH20 0xFFFFFFFFFFFFFFFFFFFFFFFFFFFFFFFFFFFFFFFF AND DUP2 MSTORE PUSH1 0x20 ADD SWAP1 DUP2 MSTORE PUSH1 0x20 ADD PUSH0 KECCAK256 DUP2 SWAP1 SSTORE POP DUP2 PUSH20 0xFFFFFFFFFFFFFFFFFFFFFFFFFFFFFFFFFFFFFFFF AND DUP4 PUSH20 0xFFFFFFFFFFFFFFFFFFFFFFFFFFFFFFFFFFFFFFFF AND PUSH32 0x8C5BE1E5EBEC7D5BD14F71427D1E84F3DD0314C0F7B2291E5B200AC8C7C3B925 DUP4 PUSH1 0x40 MLOAD PUSH2 0x670 SWAP2 SWAP1 PUSH2 0xC44 JUMP JUMPDEST PUSH1 0x40 MLOAD DUP1 SWAP2 SUB SWAP1 LOG3 POP POP POP JUMP JUMPDEST PUSH0 PUSH2 0x688 DUP5 DUP5 PUSH2 0x438 JUMP JUMPDEST SWAP1 POP PUSH32 0xFFFFFFFFFFFFFFFFFFFFFFFFFFFFFFFFFFFFFFFFFFFFFFFFFFFFFFFFFFFFFFFF DUP2 EQ PUSH2 0x702 JUMPI DUP2 DUP2 LT ISZERO PUSH2 0x6F4 JUMPI PUSH1 0x40 MLOAD PUSH32 0x8C379A000000000000000000000000000000000000000000000000000000000 DUP2 MSTORE PUSH1 0x4 ADD PUSH2 0x6EB SWAP1 PUSH2 0x1088 JUMP JUMPDEST PUSH1 0x40 MLOAD DUP1 SWAP2 SUB SWAP1 REVERT JUMPDEST PUSH2 0x701 DUP5 DUP5 DUP5 DUP5 SUB PUSH2 0x4BA JUMP JUMPDEST JUMPDEST POP POP POP POP JUMP JUMPDEST PUSH0 PUSH20 0xFFFFFFFFFFFFFFFFFFFFFFFFFFFFFFFFFFFFFFFF AND DUP4 PUSH20 0xFFFFFFFFFFFFFFFFFFFFFFFFFFFFFFFFFFFFFFFF AND SUB PUSH2 0x776 JUMPI PUSH1 0x40 MLOAD PUSH32 0x8C379A000000000000000000000000000000000000000000000000000000000 DUP2 MSTORE PUSH1 0x4 ADD PUSH2 0x76D SWAP1 PUSH2 0x10F0 JUMP JUMPDEST PUSH1 0x40 MLOAD DUP1 SWAP2 SUB SWAP1 REVERT JUMPDEST PUSH0 PUSH20 0xFFFFFFFFFFFFFFFFFFFFFFFFFFFFFFFFFFFFFFFF AND DUP3 PUSH20 0xFFFFFFFFFFFFFFFFFFFFFFFFFFFFFFFFFFFFFFFF AND SUB PUSH2 0x7E4 JUMPI PUSH1 0x40 MLOAD PUSH32 0x8C379A000000000000000000000000000000000000000000000000000000000 DUP2 MSTORE PUSH1 0x4 ADD PUSH2 0x7DB SWAP1 PUSH2 0x1158 JUMP JUMPDEST PUSH1 0x40 MLOAD DUP1 SWAP2 SUB SWAP1 REVERT JUMPDEST PUSH0 DUP1 PUSH0 DUP6 PUSH20 0xFFFFFFFFFFFFFFFFFFFFFFFFFFFFFFFFFFFFFFFF AND PUSH20 0xFFFFFFFFFFFFFFFFFFFFFFFFFFFFFFFFFFFFFFFF AND DUP2 MSTORE PUSH1 0x20 ADD SWAP1 DUP2 MSTORE PUSH1 0x20 ADD PUSH0 KECCAK256 SLOAD SWAP1 POP DUP2 DUP2 LT ISZERO PUSH2 0x867 JUMPI PUSH1 0x40 MLOAD PUSH32 0x8C379A000000000000000000000000000000000000000000000000000000000 DUP2 MSTORE PUSH1 0x4 ADD PUSH2 0x85E SWAP1 PUSH2 0x11C0 JUMP JUMPDEST PUSH1 0x40 MLOAD DUP1 SWAP2 SUB SWAP1 REVERT JUMPDEST DUP2 DUP2 SUB PUSH0 DUP1 DUP7 PUSH20 0xFFFFFFFFFFFFFFFFFFFFFFFFFFFFFFFFFFFFFFFF AND PUSH20 0xFFFFFFFFFFFFFFFFFFFFFFFFFFFFFFFFFFFFFFFF AND DUP2 MSTORE PUSH1 0x20 ADD SWAP1 DUP2 MSTORE PUSH1 0x20 ADD PUSH0 KECCAK256 DUP2 SWAP1 SSTORE POP DUP2 PUSH0 DUP1 DUP6 PUSH20 0xFFFFFFFFFFFFFFFFFFFFFFFFFFFFFFFFFFFFFFFF AND PUSH20 0xFFFFFFFFFFFFFFFFFFFFFFFFFFFFFFFFFFFFFFFF AND DUP2 MSTORE PUSH1 0x20 ADD SWAP1 DUP2 MSTORE PUSH1 0x20 ADD PUSH0 KECCAK256 PUSH0 DUP3 DUP3 SLOAD ADD SWAP3 POP POP DUP2 SWAP1 SSTORE POP DUP3 PUSH20 0xFFFFFFFFFFFFFFFFFFFFFFFFFFFFFFFFFFFFFFFF AND DUP5 PUSH20 0xFFFFFFFFFFFFFFFFFFFFFFFFFFFFFFFFFFFFFFFF AND PUSH32 0xDDF252AD1BE2C89B69C2B068FC378DAA952BA7F163C4A11628F55A4DF523B3EF DUP5 PUSH1 0x40 MLOAD PUSH2 0x950 SWAP2 SWAP1 PUSH2 0xC44 JUMP JUMPDEST PUSH1 0x40 MLOAD DUP1 SWAP2 SUB SWAP1 LOG3 POP POP POP POP JUMP JUMPDEST PUSH0 PUSH20 0xFFFFFFFFFFFFFFFFFFFFFFFFFFFFFFFFFFFFFFFF AND DUP3 PUSH20 0xFFFFFFFFFFFFFFFFFFFFFFFFFFFFFFFFFFFFFFFF AND SUB PUSH2 0x9CC JUMPI PUSH1 0x40 MLOAD PUSH32 0x8C379A000000000000000000000000000000000000000000000000000000000 DUP2 MSTORE PUSH1 0x4 ADD PUSH2 0x9C3 SWAP1 PUSH2 0x1228 JUMP JUMPDEST PUSH1 0x40 MLOAD DUP1 SWAP2 SUB SWAP1 REVERT JUMPDEST DUP1 PUSH1 0x2 PUSH0 DUP3 DUP3 SLOAD PUSH2 0x9DD SWAP2 SWAP1 PUSH2 0x1273 JUMP JUMPDEST SWAP3 POP POP DUP2 SWAP1 SSTORE POP DUP1 PUSH0 DUP1 DUP5 PUSH20 0xFFFFFFFFFFFFFFFFFFFFFFFFFFFFFFFFFFFFFFFF AND PUSH20 0xFFFFFFFFFFFFFFFFFFFFFFFFFFFFFFFFFFFFFFFF AND DUP2 MSTORE PUSH1 0x20 ADD SWAP1 DUP2 MSTORE PUSH1 0x20 ADD PUSH0 KECCAK256 PUSH0 DUP3 DUP3 SLOAD ADD SWAP3 POP POP DUP2 SWAP1 SSTORE POP DUP2 PUSH20 0xFFFFFFFFFFFFFFFFFFFFFFFFFFFFFFFFFFFFFFFF AND PUSH0 PUSH20 0xFFFFFFFFFFFFFFFFFFFFFFFFFFFFFFFFFFFFFFFF AND PUSH32 0xDDF252AD1BE2C89B69C2B068FC378DAA952BA7F163C4A11628F55A4DF523B3EF DUP4 PUSH1 0x40 MLOAD PUSH2 0xA8A SWAP2 SWAP1 PUSH2 0xC44 JUMP JUMPDEST PUSH1 0x40 MLOAD DUP1 SWAP2 SUB SWAP1 LOG3 POP POP JUMP JUMPDEST PUSH0 DUP2 MLOAD SWAP1 POP SWAP2 SWAP1 POP JUMP JUMPDEST PUSH0 DUP3 DUP3 MSTORE PUSH1 0x20 DUP3 ADD SWAP1 POP SWAP3 SWAP2 POP POP JUMP JUMPDEST DUP3 DUP2 DUP4 MCOPY PUSH0 DUP4 DUP4 ADD MSTORE POP POP POP JUMP JUMPDEST PUSH0 PUSH1 0x1F NOT PUSH1 0x1F DUP4 ADD AND SWAP1 POP SWAP2 SWAP1 POP JUMP JUMPDEST PUSH0 PUSH2 0xAD8 DUP3 PUSH2 0xA96 JUMP JUMPDEST PUSH2 0xAE2 DUP2 DUP6 PUSH2 0xAA0 JUMP JUMPDEST SWAP4 POP PUSH2 0xAF2 DUP2 DUP6 PUSH1 0x20 DUP7 ADD PUSH2 0xAB0 JUMP JUMPDEST PUSH2 0xAFB DUP2 PUSH2 0xABE JUMP JUMPDEST DUP5 ADD SWAP2 POP POP SWAP3 SWAP2 POP POP JUMP JUMPDEST PUSH0 PUSH1 0x20 DUP3 ADD SWAP1 POP DUP2 DUP2 SUB PUSH0 DUP4 ADD MSTORE PUSH2 0xB1E DUP2 DUP5 PUSH2 0xACE JUMP JUMPDEST SWAP1 POP SWAP3 SWAP2 POP POP JUMP JUMPDEST PUSH0 PUSH1 0x40 MLOAD SWAP1 POP SWAP1 JUMP JUMPDEST PUSH0 DUP1 REVERT JUMPDEST PUSH0 DUP1 REVERT JUMPDEST PUSH0 PUSH20 0xFFFFFFFFFFFFFFFFFFFFFFFFFFFFFFFFFFFFFFFF DUP3 AND SWAP1 POP SWAP2 SWAP1 POP JUMP JUMPDEST PUSH0 PUSH2 0xB60 DUP3 PUSH2 0xB37 JUMP JUMPDEST SWAP1 POP SWAP2 SWAP1 POP JUMP JUMPDEST PUSH2 0xB70 DUP2 PUSH2 0xB56 JUMP JUMPDEST DUP2 EQ PUSH2 0xB7A JUMPI PUSH0 DUP1 REVERT JUMPDEST POP JUMP JUMPDEST PUSH0 DUP2 CALLDATALOAD SWAP1 POP PUSH2 0xB8B DUP2 PUSH2 0xB67 JUMP JUMPDEST SWAP3 SWAP2 POP POP JUMP JUMPDEST PUSH0 DUP2 SWAP1 POP SWAP2 SWAP1 POP JUMP JUMPDEST PUSH2 0xBA3 DUP2 PUSH2 0xB91 JUMP JUMPDEST DUP2 EQ PUSH2 0xBAD JUMPI PUSH0 DUP1 REVERT JUMPDEST POP JUMP JUMPDEST PUSH0 DUP2 CALLDATALOAD SWAP1 POP PUSH2 0xBBE DUP2 PUSH2 0xB9A JUMP JUMPDEST SWAP3 SWAP2 POP POP JUMP JUMPDEST PUSH0 DUP1 PUSH1 0x40 DUP4 DUP6 SUB SLT ISZERO PUSH2 0xBDA JUMPI PUSH2 0xBD9 PUSH2 0xB2F JUMP JUMPDEST JUMPDEST PUSH0 PUSH2 0xBE7 DUP6 DUP3 DUP7 ADD PUSH2 0xB7D JUMP JUMPDEST SWAP3 POP POP PUSH1 0x20 PUSH2 0xBF8 DUP6 DUP3 DUP7 ADD PUSH2 0xBB0 JUMP JUMPDEST SWAP2 POP POP SWAP3 POP SWAP3 SWAP1 POP JUMP JUMPDEST PUSH0 DUP2 ISZERO ISZERO SWAP1 POP SWAP2 SWAP1 POP JUMP JUMPDEST PUSH2 0xC16 DUP2 PUSH2 0xC02 JUMP JUMPDEST DUP3 MSTORE POP POP JUMP JUMPDEST PUSH0 PUSH1 0x20 DUP3 ADD SWAP1 POP PUSH2 0xC2F PUSH0 DUP4 ADD DUP5 PUSH2 0xC0D JUMP JUMPDEST SWAP3 SWAP2 POP POP JUMP JUMPDEST PUSH2 0xC3E DUP2 PUSH2 0xB91 JUMP JUMPDEST DUP3 MSTORE POP POP JUMP JUMPDEST PUSH0 PUSH1 0x20 DUP3 ADD SWAP1 POP PUSH2 0xC57 PUSH0 DUP4 ADD DUP5 PUSH2 0xC35 JUMP JUMPDEST SWAP3 SWAP2 POP POP JUMP JUMPDEST PUSH0 DUP1 PUSH0 PUSH1 0x60 DUP5 DUP7 SUB SLT ISZERO PUSH2 0xC74 JUMPI PUSH2 0xC73 PUSH2 0xB2F JUMP JUMPDEST JUMPDEST PUSH0 PUSH2 0xC81 DUP7 DUP3 DUP8 ADD PUSH2 0xB7D JUMP JUMPDEST SWAP4 POP POP PUSH1 0x20 PUSH2 0xC92 DUP7 DUP3 DUP8 ADD PUSH2 0xB7D JUMP JUMPDEST SWAP3 POP POP PUSH1 0x40 PUSH2 0xCA3 DUP7 DUP3 DUP8 ADD PUSH2 0xBB0 JUMP JUMPDEST SWAP2 POP POP SWAP3 POP SWAP3 POP SWAP3 JUMP JUMPDEST PUSH0 DUP1 REVERT JUMPDEST PUSH32 0x4E487B7100000000000000000000000000000000000000000000000000000000 PUSH0 MSTORE PUSH1 0x41 PUSH1 0x4 MSTORE PUSH1 0x24 PUSH0 REVERT JUMPDEST PUSH2 0xCE7 DUP3 PUSH2 0xABE JUMP JUMPDEST DUP2 ADD DUP2 DUP2 LT PUSH8 0xFFFFFFFFFFFFFFFF DUP3 GT OR ISZERO PUSH2 0xD06 JUMPI PUSH2 0xD05 PUSH2 0xCB1 JUMP JUMPDEST JUMPDEST DUP1 PUSH1 0x40 MSTORE POP POP POP JUMP JUMPDEST PUSH0 PUSH2 0xD18 PUSH2 0xB26 JUMP JUMPDEST SWAP1 POP PUSH2 0xD24 DUP3 DUP3 PUSH2 0xCDE JUMP JUMPDEST SWAP2 SWAP1 POP JUMP JUMPDEST PUSH0 PUSH8 0xFFFFFFFFFFFFFFFF DUP3 GT ISZERO PUSH2 0xD43 JUMPI PUSH2 0xD42 PUSH2 0xCB1 JUMP JUMPDEST JUMPDEST PUSH1 0x20 DUP3 MUL SWAP1 POP PUSH1 0x20 DUP2 ADD SWAP1 POP SWAP2 SWAP1 POP JUMP JUMPDEST PUSH0 DUP1 REVERT JUMPDEST PUSH0 PUSH2 0xD6A PUSH2 0xD65 DUP5 PUSH2 0xD29 JUMP JUMPDEST PUSH2 0xD0F JUMP JUMPDEST SWAP1 POP DUP1 DUP4 DUP3 MSTORE PUSH1 0x20 DUP3 ADD SWAP1 POP PUSH1 0x20 DUP5 MUL DUP4 ADD DUP6 DUP2 GT ISZERO PUSH2 0xD8D JUMPI PUSH2 0xD8C PUSH2 0xD54 JUMP JUMPDEST JUMPDEST DUP4 JUMPDEST DUP2 DUP2 LT ISZERO PUSH2 0xDB6 JUMPI DUP1 PUSH2 0xDA2 DUP9 DUP3 PUSH2 0xB7D JUMP JUMPDEST DUP5 MSTORE PUSH1 0x20 DUP5 ADD SWAP4 POP POP PUSH1 0x20 DUP2 ADD SWAP1 POP PUSH2 0xD8F JUMP JUMPDEST POP POP POP SWAP4 SWAP3 POP POP POP JUMP JUMPDEST PUSH0 DUP3 PUSH1 0x1F DUP4 ADD SLT PUSH2 0xDD4 JUMPI PUSH2 0xDD3 PUSH2 0xCAD JUMP JUMPDEST JUMPDEST DUP2 CALLDATALOAD PUSH2 0xDE4 DUP5 DUP3 PUSH1 0x20 DUP7 ADD PUSH2 0xD58 JUMP JUMPDEST SWAP2 POP POP SWAP3 SWAP2 POP POP JUMP JUMPDEST PUSH0 DUP1 PUSH1 0x40 DUP4 DUP6 SUB SLT ISZERO PUSH2 0xE03 JUMPI PUSH2 0xE02 PUSH2 0xB2F JUMP JUMPDEST JUMPDEST PUSH0 DUP4 ADD CALLDATALOAD PUSH8 0xFFFFFFFFFFFFFFFF DUP2 GT ISZERO PUSH2 0xE20 JUMPI PUSH2 0xE1F PUSH2 0xB33 JUMP JUMPDEST JUMPDEST PUSH2 0xE2C DUP6 DUP3 DUP7 ADD PUSH2 0xDC0 JUMP JUMPDEST SWAP3 POP POP PUSH1 0x20 PUSH2 0xE3D DUP6 DUP3 DUP7 ADD PUSH2 0xBB0 JUMP JUMPDEST SWAP2 POP POP SWAP3 POP SWAP3 SWAP1 POP JUMP JUMPDEST PUSH0 PUSH1 0xFF DUP3 AND SWAP1 POP SWAP2 SWAP1 POP JUMP JUMPDEST PUSH2 0xE5C DUP2 PUSH2 0xE47 JUMP JUMPDEST DUP3 MSTORE POP POP JUMP JUMPDEST PUSH0 PUSH1 0x20 DUP3 ADD SWAP1 POP PUSH2 0xE75 PUSH0 DUP4 ADD DUP5 PUSH2 0xE53 JUMP JUMPDEST SWAP3 SWAP2 POP POP JUMP JUMPDEST PUSH0 PUSH1 0x20 DUP3 DUP5 SUB SLT ISZERO PUSH2 0xE90 JUMPI PUSH2 0xE8F PUSH2 0xB2F JUMP JUMPDEST JUMPDEST PUSH0 PUSH2 0xE9D DUP5 DUP3 DUP6 ADD PUSH2 0xB7D JUMP JUMPDEST SWAP2 POP POP SWAP3 SWAP2 POP POP JUMP JUMPDEST PUSH0 DUP1 PUSH1 0x40 DUP4 DUP6 SUB SLT ISZERO PUSH2 0xEBC JUMPI PUSH2 0xEBB PUSH2 0xB2F JUMP JUMPDEST JUMPDEST PUSH0 PUSH2 0xEC9 DUP6 DUP3 DUP7 ADD PUSH2 0xB7D JUMP JUMPDEST SWAP3 POP POP PUSH1 0x20 PUSH2 0xEDA DUP6 DUP3 DUP7 ADD PUSH2 0xB7D JUMP JUMPDEST SWAP2 POP POP SWAP3 POP SWAP3 SWAP1 POP JUMP JUMPDEST PUSH32 0x4E487B7100000000000000000000000000000000000000000000000000000000 PUSH0 MSTORE PUSH1 0x22 PUSH1 0x4 MSTORE PUSH1 0x24 PUSH0 REVERT JUMPDEST PUSH0 PUSH1 0x2 DUP3 DIV SWAP1 POP PUSH1 0x1 DUP3 AND DUP1 PUSH2 0xF28 JUMPI PUSH1 0x7F DUP3 AND SWAP2 POP JUMPDEST PUSH1 0x20 DUP3 LT DUP2 SUB PUSH2 0xF3B JUMPI PUSH2 0xF3A PUSH2 0xEE4 JUMP JUMPDEST JUMPDEST POP SWAP2 SWAP1 POP JUMP JUMPDEST PUSH32 0x4E487B7100000000000000000000000000000000000000000000000000000000 PUSH0 MSTORE PUSH1 0x32 PUSH1 0x4 MSTORE PUSH1 0x24 PUSH0 REVERT JUMPDEST PUSH32 0x617070726F76652066726F6D2074686520302061646472657373000000000000 PUSH0 DUP3 ADD MSTORE POP JUMP JUMPDEST PUSH0 PUSH2 0xFA2 PUSH1 0x1A DUP4 PUSH2 0xAA0 JUMP JUMPDEST SWAP2 POP PUSH2 0xFAD DUP3 PUSH2 0xF6E JUMP JUMPDEST PUSH1 0x20 DUP3 ADD SWAP1 POP SWAP2 SWAP1 POP JUMP JUMPDEST PUSH0 PUSH1 0x20 DUP3 ADD SWAP1 POP DUP2 DUP2 SUB PUSH0 DUP4 ADD MSTORE PUSH2 0xFCF DUP2 PUSH2 0xF96 JUMP JUMPDEST SWAP1 POP SWAP2 SWAP1 POP JUMP JUMPDEST PUSH32 0x617070726F766520746F20746865203020616464726573730000000000000000 PUSH0 DUP3 ADD MSTORE POP JUMP JUMPDEST PUSH0 PUSH2 0x100A PUSH1 0x18 DUP4 PUSH2 0xAA0 JUMP JUMPDEST SWAP2 POP PUSH2 0x1015 DUP3 PUSH2 0xFD6 JUMP JUMPDEST PUSH1 0x20 DUP3 ADD SWAP1 POP SWAP2 SWAP1 POP JUMP JUMPDEST PUSH0 PUSH1 0x20 DUP3 ADD SWAP1 POP DUP2 DUP2 SUB PUSH0 DUP4 ADD MSTORE PUSH2 0x1037 DUP2 PUSH2 0xFFE JUMP JUMPDEST SWAP1 POP SWAP2 SWAP1 POP JUMP JUMPDEST PUSH32 0x696E73756666696369656E7420616C6C6F77616E636500000000000000000000 PUSH0 DUP3 ADD MSTORE POP JUMP JUMPDEST PUSH0 PUSH2 0x1072 PUSH1 0x16 DUP4 PUSH2 0xAA0 JUMP JUMPDEST SWAP2 POP PUSH2 0x107D DUP3 PUSH2 0x103E JUMP JUMPDEST PUSH1 0x20 DUP3 ADD SWAP1 POP SWAP2 SWAP1 POP JUMP JUMPDEST PUSH0 PUSH1 0x20 DUP3 ADD SWAP1 POP DUP2 DUP2 SUB PUSH0 DUP4 ADD MSTORE PUSH2 0x109F DUP2 PUSH2 0x1066 JUMP JUMPDEST SWAP1 POP SWAP2 SWAP1 POP JUMP JUMPDEST PUSH32 0x5472616E736665722066726F6D20616464726573732030000000000000000000 PUSH0 DUP3 ADD MSTORE POP JUMP JUMPDEST PUSH0 PUSH2 0x10DA PUSH1 0x17 DUP4 PUSH2 0xAA0 JUMP JUMPDEST SWAP2 POP PUSH2 0x10E5 DUP3 PUSH2 0x10A6 JUMP JUMPDEST PUSH1 0x20 DUP3 ADD SWAP1 POP SWAP2 SWAP1 POP JUMP JUMPDEST PUSH0 PUSH1 0x20 DUP3 ADD SWAP1 POP DUP2 DUP2 SUB PUSH0 DUP4 ADD MSTORE PUSH2 0x1107 DUP2 PUSH2 0x10CE JUMP JUMPDEST SWAP1 POP SWAP2 SWAP1 POP JUMP JUMPDEST PUSH32 0x5472616E7366657220746F206164647265737320300000000000000000000000 PUSH0 DUP3 ADD MSTORE POP JUMP JUMPDEST PUSH0 PUSH2 0x1142 PUSH1 0x15 DUP4 PUSH2 0xAA0 JUMP JUMPDEST SWAP2 POP PUSH2 0x114D DUP3 PUSH2 0x110E JUMP JUMPDEST PUSH1 0x20 DUP3 ADD SWAP1 POP SWAP2 SWAP1 POP JUMP JUMPDEST PUSH0 PUSH1 0x20 DUP3 ADD SWAP1 POP DUP2 DUP2 SUB PUSH0 DUP4 ADD MSTORE PUSH2 0x116F DUP2 PUSH2 0x1136 JUMP JUMPDEST SWAP1 POP SWAP2 SWAP1 POP JUMP JUMPDEST PUSH32 0x42616C616E636520657863656564656400000000000000000000000000000000 PUSH0 DUP3 ADD MSTORE POP JUMP JUMPDEST PUSH0 PUSH2 0x11AA PUSH1 0x10 DUP4 PUSH2 0xAA0 JUMP JUMPDEST SWAP2 POP PUSH2 0x11B5 DUP3 PUSH2 0x1176 JUMP JUMPDEST PUSH1 0x20 DUP3 ADD SWAP1 POP SWAP2 SWAP1 POP JUMP JUMPDEST PUSH0 PUSH1 0x20 DUP3 ADD SWAP1 POP DUP2 DUP2 SUB PUSH0 DUP4 ADD MSTORE PUSH2 0x11D7 DUP2 PUSH2 0x119E JUMP JUMPDEST SWAP1 POP SWAP2 SWAP1 POP JUMP JUMPDEST PUSH32 0x6D696E7420746F20746865203020616464726573730000000000000000000000 PUSH0 DUP3 ADD MSTORE POP JUMP JUMPDEST PUSH0 PUSH2 0x1212 PUSH1 0x15 DUP4 PUSH2 0xAA0 JUMP JUMPDEST SWAP2 POP PUSH2 0x121D DUP3 PUSH2 0x11DE JUMP JUMPDEST PUSH1 0x20 DUP3 ADD SWAP1 POP SWAP2 SWAP1 POP JUMP JUMPDEST PUSH0 PUSH1 0x20 DUP3 ADD SWAP1 POP DUP2 DUP2 SUB PUSH0 DUP4 ADD MSTORE PUSH2 0x123F DUP2 PUSH2 0x1206 JUMP JUMPDEST SWAP1 POP SWAP2 SWAP1 POP JUMP JUMPDEST PUSH32 0x4E487B7100000000000000000000000000000000000000000000000000000000 PUSH0 MSTORE PUSH1 0x11 PUSH1 0x4 MSTORE PUSH1 0x24 PUSH0 REVERT JUMPDEST PUSH0 PUSH2 0x127D DUP3 PUSH2 0xB91 JUMP JUMPDEST SWAP2 POP PUSH2 0x1288 DUP4 PUSH2 0xB91 JUMP JUMPDEST SWAP3 POP DUP3 DUP3 ADD SWAP1 POP DUP1 DUP3 GT ISZERO PUSH2 0x12A0 JUMPI PUSH2 0x129F PUSH2 0x1246 JUMP JUMPDEST JUMPDEST SWAP3 SWAP2 POP POP JUMP INVALID LOG2 PUSH5 0x6970667358 0x22 SLT KECCAK256 JUMPI LOG0 0xB2 0x2E 0xFC LOG3 LOG3 SMOD SLT DUP6 0xB2 0xAE 0xB6 0xD3 0x1F 0xCA PUSH10 0x82271883B7CA50890482 SAR MSTORE8 0xBB SWAP14 PUSH4 0x64736F6C PUSH4 0x4300081A STOP CALLER "
				},
				"gasEstimates": {
					"creation": {
						"codeDepositCost": "965600",
						"executionCost": "infinite",
						"totalCost": "infinite"
					},
					"external": {
						"allowance(address,address)": "infinite",
						"approve(address,uint256)": "infinite",
						"balanceOf(address)": "2851",
						"decimals()": "338",
						"distributeTokens(address[],uint256)": "infinite",
						"name()": "infinite",
						"symbol()": "infinite",
						"totalSupply()": "2477",
						"transfer(address,uint256)": "infinite",
						"transferFrom(address,address,uint256)": "infinite"
					},
					"internal": {
						"_approve(address,address,uint256)": "infinite",
						"_mint(address,uint256)": "infinite",
						"_spendAllowance(address,address,uint256)": "infinite",
						"_transfer(address,address,uint256)": "infinite"
					}
				},
				"methodIdentifiers": {
					"allowance(address,address)": "dd62ed3e",
					"approve(address,uint256)": "095ea7b3",
					"balanceOf(address)": "70a08231",
					"decimals()": "313ce567",
					"distributeTokens(address[],uint256)": "256fa241",
					"name()": "06fdde03",
					"symbol()": "95d89b41",
					"totalSupply()": "18160ddd",
					"transfer(address,uint256)": "a9059cbb",
					"transferFrom(address,address,uint256)": "23b872dd"
				}
			},
			"storageLayout": {
				"storage": [
					{
						"astId": 871,
						"contract": "JERC20.sol:MyToken",
						"label": "_balances",
						"offset": 0,
						"slot": "0",
						"type": "t_mapping(t_address,t_uint256)"
					},
					{
						"astId": 877,
						"contract": "JERC20.sol:MyToken",
						"label": "_allowances",
						"offset": 0,
						"slot": "1",
						"type": "t_mapping(t_address,t_mapping(t_address,t_uint256))"
					},
					{
						"astId": 879,
						"contract": "JERC20.sol:MyToken",
						"label": "_totalSupply",
						"offset": 0,
						"slot": "2",
						"type": "t_uint256"
					},
					{
						"astId": 881,
						"contract": "JERC20.sol:MyToken",
						"label": "_name",
						"offset": 0,
						"slot": "3",
						"type": "t_string_storage"
					},
					{
						"astId": 883,
						"contract": "JERC20.sol:MyToken",
						"label": "_symbol",
						"offset": 0,
						"slot": "4",
						"type": "t_string_storage"
					}
				],
				"types": {
					"t_address": {
						"encoding": "inplace",
						"label": "address",
						"numberOfBytes": "20"
					},
					"t_mapping(t_address,t_mapping(t_address,t_uint256))": {
						"encoding": "mapping",
						"key": "t_address",
						"label": "mapping(address => mapping(address => uint256))",
						"numberOfBytes": "32",
						"value": "t_mapping(t_address,t_uint256)"
					},
					"t_mapping(t_address,t_uint256)": {
						"encoding": "mapping",
						"key": "t_address",
						"label": "mapping(address => uint256)",
						"numberOfBytes": "32",
						"value": "t_uint256"
					},
					"t_string_storage": {
						"encoding": "bytes",
						"label": "string",
						"numberOfBytes": "32"
					},
					"t_uint256": {
						"encoding": "inplace",
						"label": "uint256",
						"numberOfBytes": "32"
					}
				}
			},
			"userdoc": {
				"kind": "user",
				"methods": {
					"allowance(address,address)": {
						"notice": "Returns the remaining number of tokens that `spender` will be allowed to spend on behalf of `owner` through {transferFrom}  default 0"
					},
					"approve(address,uint256)": {
						"notice": "Sets `amount` as the allowance of `spender` over the caller's tokens."
					},
					"balanceOf(address)": {
						"notice": "Returns account balance of tokens"
					},
					"constructor": {
						"notice": "Constructs the token with a name and symbol"
					},
					"distributeTokens(address[],uint256)": {
						"notice": "Transfers `amount` tokens from `from` to `to`."
					},
					"name()": {
						"notice": "Returns token name"
					},
					"symbol()": {
						"notice": "Returns token symbol"
					},
					"transfer(address,uint256)": {
						"notice": "Transfers tokens from the caller to another address."
					},
					"transferFrom(address,address,uint256)": {
						"notice": "Moves `amount` tokens from `from` to `to` using the allowance mechanism. `amount` is then deducted from the caller's allowance"
					}
				},
				"version": 1
			}
		}
	}
}