{
	"Staking.sol": {
		"Staking": {
			"abi": [
				{
					"inputs": [],
					"stateMutability": "nonpayable",
					"type": "constructor"
				},
				{
					"inputs": [],
					"name": "InvalidDuration",
					"type": "error"
				},
				{
					"inputs": [],
					"name": "NoStakeFound",
					"type": "error"
				},
				{
					"inputs": [],
					"name": "StakeNotMature",
					"type": "error"
				},
				{
					"anonymous": false,
					"inputs": [
						{
							"indexed": true,
							"internalType": "address",
							"name": "owner",
							"type": "address"
						},
						{
							"indexed": false,
							"internalType": "uint256",
							"name": "amount",
							"type": "uint256"
						}
					],
					"name": "OwnerDeposit",
					"type": "event"
				},
				{
					"anonymous": false,
					"inputs": [
						{
							"indexed": true,
							"internalType": "address",
							"name": "user",
							"type": "address"
						},
						{
							"indexed": false,
							"internalType": "uint256",
							"name": "amount",
							"type": "uint256"
						}
					],
					"name": "RewardsClaimed",
					"type": "event"
				},
				{
					"anonymous": false,
					"inputs": [
						{
							"indexed": true,
							"internalType": "address",
							"name": "user",
							"type": "address"
						},
						{
							"indexed": false,
							"internalType": "uint256",
							"name": "amount",
							"type": "uint256"
						},
						{
							"indexed": false,
							"internalType": "uint256",
							"name": "duration",
							"type": "uint256"
						}
					],
					"name": "Staked",
					"type": "event"
				},
				{
					"anonymous": false,
					"inputs": [
						{
							"indexed": true,
							"internalType": "address",
							"name": "user",
							"type": "address"
						},
						{
							"indexed": false,
							"internalType": "uint256",
							"name": "amount",
							"type": "uint256"
						}
					],
					"name": "Unstaked",
					"type": "event"
				},
				{
					"inputs": [],
					"name": "claimReward",
					"outputs": [
						{
							"internalType": "uint256",
							"name": "",
							"type": "uint256"
						}
					],
					"stateMutability": "nonpayable",
					"type": "function"
				},
				{
					"inputs": [
						{
							"internalType": "address",
							"name": "_userAddress",
							"type": "address"
						}
					],
					"name": "getStaker",
					"outputs": [
						{
							"internalType": "uint256",
							"name": "",
							"type": "uint256"
						},
						{
							"internalType": "address",
							"name": "",
							"type": "address"
						}
					],
					"stateMutability": "view",
					"type": "function"
				},
				{
					"inputs": [],
					"name": "owner",
					"outputs": [
						{
							"internalType": "address",
							"name": "",
							"type": "address"
						}
					],
					"stateMutability": "view",
					"type": "function"
				},
				{
					"inputs": [
						{
							"internalType": "uint256",
							"name": "_amount",
							"type": "uint256"
						}
					],
					"name": "ownerDeposit",
					"outputs": [],
					"stateMutability": "nonpayable",
					"type": "function"
				},
				{
					"inputs": [
						{
							"internalType": "uint256",
							"name": "_amount",
							"type": "uint256"
						},
						{
							"internalType": "uint256",
							"name": "_duration",
							"type": "uint256"
						}
					],
					"name": "stake",
					"outputs": [
						{
							"internalType": "uint256",
							"name": "",
							"type": "uint256"
						},
						{
							"internalType": "address",
							"name": "",
							"type": "address"
						}
					],
					"stateMutability": "nonpayable",
					"type": "function"
				},
				{
					"inputs": [],
					"name": "token",
					"outputs": [
						{
							"internalType": "contract IERC20",
							"name": "",
							"type": "address"
						}
					],
					"stateMutability": "view",
					"type": "function"
				},
				{
					"inputs": [],
					"name": "unStake",
					"outputs": [],
					"stateMutability": "nonpayable",
					"type": "function"
				}
			],
			"devdoc": {
				"kind": "dev",
				"methods": {
					"claimReward()": {
						"returns": {
							"_0": "reward"
						}
					},
					"getStaker(address)": {
						"params": {
							"_userAddress": "The address of the user."
						},
						"returns": {
							"_0": "amount The amount of tokens staked by the user.",
							"_1": "stakerAddress The address of the user who staked the tokens."
						}
					},
					"ownerDeposit(uint256)": {
						"params": {
							"_amount": "The amount of tokens to deposit"
						}
					},
					"stake(uint256,uint256)": {
						"params": {
							"_amount": "The amount of tokens to stake",
							"_duration": "The duration of the stake in years (1, 2, or 3)"
						}
					},
					"unStake()": {
						"details": "If the user unstakes before the duration, they will only get the staked amount If the user unstakes after the duration, they will get the staked amount plus the rewards"
					}
				},
				"version": 1
			},
			"evm": {
				"assembly": "    /* \"Staking.sol\":110:4464  contract Staking is IStaking {... */\n  mstore(0x40, 0xa0)\n    /* \"Staking.sol\":273:541  constructor() {... */\n  callvalue\n  dup1\n  iszero\n  tag_1\n  jumpi\n  0x00\n  dup1\n  revert\ntag_1:\n  pop\n    /* \"Staking.sol\":297:318  address _tokenAddress */\n  0x00\n    /* \"Staking.sol\":329:371  0xd9145CCE52D386f254917e481eB44e9943F39138 */\n  0xd9145cce52d386f254917e481eb44e9943f39138\n    /* \"Staking.sol\":297:372  address _tokenAddress = address(0xd9145CCE52D386f254917e481eB44e9943F39138) */\n  swap1\n  pop\n    /* \"Staking.sol\":419:432  _tokenAddress */\n  dup1\n    /* \"Staking.sol\":404:433  token = IERC20(_tokenAddress) */\n  0xffffffffffffffffffffffffffffffffffffffff\n  and\n  0x80\n  dup2\n  0xffffffffffffffffffffffffffffffffffffffff\n  and\n  dup2\n  mstore\n  pop\n  pop\n    /* \"Staking.sol\":495:505  msg.sender */\n  caller\n    /* \"Staking.sol\":487:492  owner */\n  0x00\n  dup1\n    /* \"Staking.sol\":487:505  owner = msg.sender */\n  0x0100\n  exp\n  dup2\n  sload\n  dup2\n  0xffffffffffffffffffffffffffffffffffffffff\n  mul\n  not\n  and\n  swap1\n  dup4\n  0xffffffffffffffffffffffffffffffffffffffff\n  and\n  mul\n  or\n  swap1\n  sstore\n  pop\n    /* \"Staking.sol\":287:541  {... */\n  pop\n    /* \"Staking.sol\":110:4464  contract Staking is IStaking {... */\n  mload(0x80)\n  codecopy(0x00, dataOffset(sub_0), dataSize(sub_0))\n  0x00\n  assignImmutable(\"0xbf08d8a2d7c7780024ba6e6dbe12d3d5a5a747ea3071fca63d8a2ede50d3472a\")\n  return(0x00, dataSize(sub_0))\nstop\n\nsub_0: assembly {\n        /* \"Staking.sol\":110:4464  contract Staking is IStaking {... */\n      mstore(0x40, 0x80)\n      callvalue\n      dup1\n      iszero\n      tag_1\n      jumpi\n      0x00\n      dup1\n      revert\n    tag_1:\n      pop\n      jumpi(tag_2, lt(calldatasize, 0x04))\n      shr(0xe0, calldataload(0x00))\n      dup1\n      0x8da5cb5b\n      gt\n      tag_10\n      jumpi\n      dup1\n      0x8da5cb5b\n      eq\n      tag_6\n      jumpi\n      dup1\n      0xa23c44b1\n      eq\n      tag_7\n      jumpi\n      dup1\n      0xb88a802f\n      eq\n      tag_8\n      jumpi\n      dup1\n      0xfc0c546a\n      eq\n      tag_9\n      jumpi\n      jump(tag_2)\n    tag_10:\n      dup1\n      0x141833dc\n      eq\n      tag_3\n      jumpi\n      dup1\n      0x73cf575a\n      eq\n      tag_4\n      jumpi\n      dup1\n      0x7b0472f0\n      eq\n      tag_5\n      jumpi\n    tag_2:\n      0x00\n      dup1\n      revert\n        /* \"Staking.sol\":1671:1848  function ownerDeposit(uint256 _amount) external onlyOwner {... */\n    tag_3:\n      tag_11\n      0x04\n      dup1\n      calldatasize\n      sub\n      dup2\n      add\n      swap1\n      tag_12\n      swap2\n      swap1\n      tag_13\n      jump\t// in\n    tag_12:\n      tag_14\n      jump\t// in\n    tag_11:\n      stop\n        /* \"Staking.sol\":3227:3852  function unStake() external {... */\n    tag_4:\n      tag_15\n      tag_16\n      jump\t// in\n    tag_15:\n      stop\n        /* \"Staking.sol\":828:1525  function stake(uint256 _amount, uint256 _duration)... */\n    tag_5:\n      tag_17\n      0x04\n      dup1\n      calldatasize\n      sub\n      dup2\n      add\n      swap1\n      tag_18\n      swap2\n      swap1\n      tag_19\n      jump\t// in\n    tag_18:\n      tag_20\n      jump\t// in\n    tag_17:\n      mload(0x40)\n      tag_21\n      swap3\n      swap2\n      swap1\n      tag_22\n      jump\t// in\n    tag_21:\n      mload(0x40)\n      dup1\n      swap2\n      sub\n      swap1\n      return\n        /* \"Staking.sol\":216:236  address public owner */\n    tag_6:\n      tag_23\n      tag_24\n      jump\t// in\n    tag_23:\n      mload(0x40)\n      tag_25\n      swap2\n      swap1\n      tag_26\n      jump\t// in\n    tag_25:\n      mload(0x40)\n      dup1\n      swap2\n      sub\n      swap1\n      return\n        /* \"Staking.sol\":4153:4366  function getStaker(address _userAddress)... */\n    tag_7:\n      tag_27\n      0x04\n      dup1\n      calldatasize\n      sub\n      dup2\n      add\n      swap1\n      tag_28\n      swap2\n      swap1\n      tag_29\n      jump\t// in\n    tag_28:\n      tag_30\n      jump\t// in\n    tag_27:\n      mload(0x40)\n      tag_31\n      swap3\n      swap2\n      swap1\n      tag_22\n      jump\t// in\n    tag_31:\n      mload(0x40)\n      dup1\n      swap2\n      sub\n      swap1\n      return\n        /* \"Staking.sol\":2510:2983  function claimReward() external returns (uint256) {... */\n    tag_8:\n      tag_32\n      tag_33\n      jump\t// in\n    tag_32:\n      mload(0x40)\n      tag_34\n      swap2\n      swap1\n      tag_35\n      jump\t// in\n    tag_34:\n      mload(0x40)\n      dup1\n      swap2\n      sub\n      swap1\n      return\n        /* \"Staking.sol\":145:174  IERC20 public immutable token */\n    tag_9:\n      tag_36\n      tag_37\n      jump\t// in\n    tag_36:\n      mload(0x40)\n      tag_38\n      swap2\n      swap1\n      tag_39\n      jump\t// in\n    tag_38:\n      mload(0x40)\n      dup1\n      swap2\n      sub\n      swap1\n      return\n        /* \"Staking.sol\":1671:1848  function ownerDeposit(uint256 _amount) external onlyOwner {... */\n    tag_14:\n        /* \"Staking.sol\":4425:4430  owner */\n      0x00\n      dup1\n      sload\n      swap1\n      0x0100\n      exp\n      swap1\n      div\n      0xffffffffffffffffffffffffffffffffffffffff\n      and\n        /* \"Staking.sol\":4411:4430  msg.sender == owner */\n      0xffffffffffffffffffffffffffffffffffffffff\n      and\n        /* \"Staking.sol\":4411:4421  msg.sender */\n      caller\n        /* \"Staking.sol\":4411:4430  msg.sender == owner */\n      0xffffffffffffffffffffffffffffffffffffffff\n      and\n      eq\n        /* \"Staking.sol\":4403:4444  require(msg.sender == owner, \"Not owner\") */\n      tag_41\n      jumpi\n      mload(0x40)\n      0x08c379a000000000000000000000000000000000000000000000000000000000\n      dup2\n      mstore\n      0x04\n      add\n      tag_42\n      swap1\n      tag_43\n      jump\t// in\n    tag_42:\n      mload(0x40)\n      dup1\n      swap2\n      sub\n      swap1\n      revert\n    tag_41:\n        /* \"Staking.sol\":1739:1744  token */\n      immutable(\"0xbf08d8a2d7c7780024ba6e6dbe12d3d5a5a747ea3071fca63d8a2ede50d3472a\")\n        /* \"Staking.sol\":1739:1757  token.transferFrom */\n      0xffffffffffffffffffffffffffffffffffffffff\n      and\n      0x23b872dd\n        /* \"Staking.sol\":1758:1768  msg.sender */\n      caller\n        /* \"Staking.sol\":1778:1782  this */\n      address\n        /* \"Staking.sol\":1785:1792  _amount */\n      dup5\n        /* \"Staking.sol\":1739:1793  token.transferFrom(msg.sender, address(this), _amount) */\n      mload(0x40)\n      dup5\n      0xffffffff\n      and\n      0xe0\n      shl\n      dup2\n      mstore\n      0x04\n      add\n      tag_45\n      swap4\n      swap3\n      swap2\n      swap1\n      tag_46\n      jump\t// in\n    tag_45:\n      0x20\n      mload(0x40)\n      dup1\n      dup4\n      sub\n      dup2\n      0x00\n      dup8\n      gas\n      call\n      iszero\n      dup1\n      iszero\n      tag_48\n      jumpi\n      returndatasize\n      0x00\n      dup1\n      returndatacopy\n      revert(0x00, returndatasize)\n    tag_48:\n      pop\n      pop\n      pop\n      pop\n      mload(0x40)\n      returndatasize\n      not(0x1f)\n      0x1f\n      dup3\n      add\n      and\n      dup3\n      add\n      dup1\n      0x40\n      mstore\n      pop\n      dup2\n      add\n      swap1\n      tag_49\n      swap2\n      swap1\n      tag_50\n      jump\t// in\n    tag_49:\n      pop\n        /* \"Staking.sol\":1821:1831  msg.sender */\n      caller\n        /* \"Staking.sol\":1808:1841  OwnerDeposit(msg.sender, _amount) */\n      0xffffffffffffffffffffffffffffffffffffffff\n      and\n      0xc286f3b83e4f244dafdd6f12a30c1792eb5c99ba0ee6cb1181aaf6eac30286e8\n        /* \"Staking.sol\":1833:1840  _amount */\n      dup3\n        /* \"Staking.sol\":1808:1841  OwnerDeposit(msg.sender, _amount) */\n      mload(0x40)\n      tag_51\n      swap2\n      swap1\n      tag_35\n      jump\t// in\n    tag_51:\n      mload(0x40)\n      dup1\n      swap2\n      sub\n      swap1\n      log2\n        /* \"Staking.sol\":1671:1848  function ownerDeposit(uint256 _amount) external onlyOwner {... */\n      pop\n      jump\t// out\n        /* \"Staking.sol\":3227:3852  function unStake() external {... */\n    tag_16:\n        /* \"Staking.sol\":3265:3288  Stake storage userStake */\n      0x00\n        /* \"Staking.sol\":3291:3297  stakes */\n      0x01\n        /* \"Staking.sol\":3291:3309  stakes[msg.sender] */\n      0x00\n        /* \"Staking.sol\":3298:3308  msg.sender */\n      caller\n        /* \"Staking.sol\":3291:3309  stakes[msg.sender] */\n      0xffffffffffffffffffffffffffffffffffffffff\n      and\n      0xffffffffffffffffffffffffffffffffffffffff\n      and\n      dup2\n      mstore\n      0x20\n      add\n      swap1\n      dup2\n      mstore\n      0x20\n      add\n      0x00\n      keccak256\n        /* \"Staking.sol\":3265:3309  Stake storage userStake = stakes[msg.sender] */\n      swap1\n      pop\n        /* \"Staking.sol\":3343:3344  0 */\n      0x00\n        /* \"Staking.sol\":3323:3332  userStake */\n      dup2\n        /* \"Staking.sol\":3323:3339  userStake.amount */\n      0x00\n      add\n      sload\n        /* \"Staking.sol\":3323:3344  userStake.amount == 0 */\n      sub\n        /* \"Staking.sol\":3319:3392  if (userStake.amount == 0) {... */\n      tag_53\n      jumpi\n        /* \"Staking.sol\":3367:3381  NoStakeFound() */\n      mload(0x40)\n      0x59be8f0200000000000000000000000000000000000000000000000000000000\n      dup2\n      mstore\n      0x04\n      add\n      mload(0x40)\n      dup1\n      swap2\n      sub\n      swap1\n      revert\n        /* \"Staking.sol\":3319:3392  if (userStake.amount == 0) {... */\n    tag_53:\n        /* \"Staking.sol\":3402:3416  uint256 reward */\n      0x00\n        /* \"Staking.sol\":3419:3446  calculateReward(msg.sender) */\n      tag_54\n        /* \"Staking.sol\":3435:3445  msg.sender */\n      caller\n        /* \"Staking.sol\":3419:3434  calculateReward */\n      tag_55\n        /* \"Staking.sol\":3419:3446  calculateReward(msg.sender) */\n      jump\t// in\n    tag_54:\n        /* \"Staking.sol\":3402:3446  uint256 reward = calculateReward(msg.sender) */\n      swap1\n      pop\n        /* \"Staking.sol\":3456:3475  uint256 totalAmount */\n      0x00\n        /* \"Staking.sol\":3497:3503  reward */\n      dup2\n        /* \"Staking.sol\":3478:3487  userStake */\n      dup4\n        /* \"Staking.sol\":3478:3494  userStake.amount */\n      0x00\n      add\n      sload\n        /* \"Staking.sol\":3478:3503  userStake.amount + reward */\n      tag_56\n      swap2\n      swap1\n      tag_57\n      jump\t// in\n    tag_56:\n        /* \"Staking.sol\":3456:3503  uint256 totalAmount = userStake.amount + reward */\n      swap1\n      pop\n        /* \"Staking.sol\":3571:3580  userStake */\n      dup3\n        /* \"Staking.sol\":3571:3589  userStake.duration */\n      0x02\n      add\n      sload\n        /* \"Staking.sol\":3549:3558  userStake */\n      dup4\n        /* \"Staking.sol\":3549:3568  userStake.startTime */\n      0x01\n      add\n      sload\n        /* \"Staking.sol\":3549:3589  userStake.startTime + userStake.duration */\n      tag_58\n      swap2\n      swap1\n      tag_57\n      jump\t// in\n    tag_58:\n        /* \"Staking.sol\":3531:3546  block.timestamp */\n      timestamp\n        /* \"Staking.sol\":3531:3589  block.timestamp < userStake.startTime + userStake.duration */\n      lt\n        /* \"Staking.sol\":3531:3615  block.timestamp < userStake.startTime + userStake.duration &&... */\n      dup1\n      iszero\n      tag_59\n      jumpi\n      pop\n        /* \"Staking.sol\":3614:3615  0 */\n      0x00\n        /* \"Staking.sol\":3605:3611  reward */\n      dup3\n        /* \"Staking.sol\":3605:3615  reward > 0 */\n      gt\n        /* \"Staking.sol\":3531:3615  block.timestamp < userStake.startTime + userStake.duration &&... */\n    tag_59:\n        /* \"Staking.sol\":3514:3713  if (... */\n      iszero\n      tag_60\n      jumpi\n        /* \"Staking.sol\":3654:3663  userStake */\n      dup3\n        /* \"Staking.sol\":3654:3670  userStake.amount */\n      0x00\n      add\n      sload\n        /* \"Staking.sol\":3640:3670  totalAmount = userStake.amount */\n      swap1\n      pop\n        /* \"Staking.sol\":3514:3713  if (... */\n    tag_60:\n        /* \"Staking.sol\":3730:3736  stakes */\n      0x01\n        /* \"Staking.sol\":3730:3748  stakes[msg.sender] */\n      0x00\n        /* \"Staking.sol\":3737:3747  msg.sender */\n      caller\n        /* \"Staking.sol\":3730:3748  stakes[msg.sender] */\n      0xffffffffffffffffffffffffffffffffffffffff\n      and\n      0xffffffffffffffffffffffffffffffffffffffff\n      and\n      dup2\n      mstore\n      0x20\n      add\n      swap1\n      dup2\n      mstore\n      0x20\n      add\n      0x00\n      keccak256\n      0x00\n        /* \"Staking.sol\":3723:3748  delete stakes[msg.sender] */\n      dup1\n      dup3\n      add\n      0x00\n      swap1\n      sstore\n      0x01\n      dup3\n      add\n      0x00\n      swap1\n      sstore\n      0x02\n      dup3\n      add\n      0x00\n      swap1\n      sstore\n      0x03\n      dup3\n      add\n      exp(0x0100, 0x00)\n      dup2\n      sload\n      swap1\n      0xff\n      mul\n      not\n      and\n      swap1\n      sstore\n      pop\n      pop\n        /* \"Staking.sol\":3758:3763  token */\n      immutable(\"0xbf08d8a2d7c7780024ba6e6dbe12d3d5a5a747ea3071fca63d8a2ede50d3472a\")\n        /* \"Staking.sol\":3758:3772  token.transfer */\n      0xffffffffffffffffffffffffffffffffffffffff\n      and\n      0xa9059cbb\n        /* \"Staking.sol\":3773:3783  msg.sender */\n      caller\n        /* \"Staking.sol\":3785:3796  totalAmount */\n      dup4\n        /* \"Staking.sol\":3758:3797  token.transfer(msg.sender, totalAmount) */\n      mload(0x40)\n      dup4\n      0xffffffff\n      and\n      0xe0\n      shl\n      dup2\n      mstore\n      0x04\n      add\n      tag_61\n      swap3\n      swap2\n      swap1\n      tag_62\n      jump\t// in\n    tag_61:\n      0x20\n      mload(0x40)\n      dup1\n      dup4\n      sub\n      dup2\n      0x00\n      dup8\n      gas\n      call\n      iszero\n      dup1\n      iszero\n      tag_64\n      jumpi\n      returndatasize\n      0x00\n      dup1\n      returndatacopy\n      revert(0x00, returndatasize)\n    tag_64:\n      pop\n      pop\n      pop\n      pop\n      mload(0x40)\n      returndatasize\n      not(0x1f)\n      0x1f\n      dup3\n      add\n      and\n      dup3\n      add\n      dup1\n      0x40\n      mstore\n      pop\n      dup2\n      add\n      swap1\n      tag_65\n      swap2\n      swap1\n      tag_50\n      jump\t// in\n    tag_65:\n      pop\n        /* \"Staking.sol\":3821:3831  msg.sender */\n      caller\n        /* \"Staking.sol\":3812:3845  Unstaked(msg.sender, totalAmount) */\n      0xffffffffffffffffffffffffffffffffffffffff\n      and\n      0x0f5bb82176feb1b5e747e28471aa92156a04d9f3ab9f45f28e2d704232b93f75\n        /* \"Staking.sol\":3833:3844  totalAmount */\n      dup3\n        /* \"Staking.sol\":3812:3845  Unstaked(msg.sender, totalAmount) */\n      mload(0x40)\n      tag_66\n      swap2\n      swap1\n      tag_35\n      jump\t// in\n    tag_66:\n      mload(0x40)\n      dup1\n      swap2\n      sub\n      swap1\n      log2\n        /* \"Staking.sol\":3255:3852  {... */\n      pop\n      pop\n      pop\n        /* \"Staking.sol\":3227:3852  function unStake() external {... */\n      jump\t// out\n        /* \"Staking.sol\":828:1525  function stake(uint256 _amount, uint256 _duration)... */\n    tag_20:\n        /* \"Staking.sol\":913:920  uint256 */\n      0x00\n        /* \"Staking.sol\":922:929  address */\n      dup1\n        /* \"Staking.sol\":945:961  uint256 myAmount */\n      0x00\n        /* \"Staking.sol\":971:988  address myAddress */\n      dup1\n        /* \"Staking.sol\":1014:1015  1 */\n      0x01\n        /* \"Staking.sol\":1002:1011  _duration */\n      dup6\n        /* \"Staking.sol\":1002:1015  _duration < 1 */\n      lt\n        /* \"Staking.sol\":1002:1032  _duration < 1 || _duration > 3 */\n      dup1\n      tag_68\n      jumpi\n      pop\n        /* \"Staking.sol\":1031:1032  3 */\n      0x03\n        /* \"Staking.sol\":1019:1028  _duration */\n      dup6\n        /* \"Staking.sol\":1019:1032  _duration > 3 */\n      gt\n        /* \"Staking.sol\":1002:1032  _duration < 1 || _duration > 3 */\n    tag_68:\n        /* \"Staking.sol\":998:1083  if (_duration < 1 || _duration > 3) {... */\n      iszero\n      tag_69\n      jumpi\n        /* \"Staking.sol\":1055:1072  InvalidDuration() */\n      mload(0x40)\n      0x7616640100000000000000000000000000000000000000000000000000000000\n      dup2\n      mstore\n      0x04\n      add\n      mload(0x40)\n      dup1\n      swap2\n      sub\n      swap1\n      revert\n        /* \"Staking.sol\":998:1083  if (_duration < 1 || _duration > 3) {... */\n    tag_69:\n        /* \"Staking.sol\":1093:1098  token */\n      immutable(\"0xbf08d8a2d7c7780024ba6e6dbe12d3d5a5a747ea3071fca63d8a2ede50d3472a\")\n        /* \"Staking.sol\":1093:1111  token.transferFrom */\n      0xffffffffffffffffffffffffffffffffffffffff\n      and\n      0x23b872dd\n        /* \"Staking.sol\":1112:1122  msg.sender */\n      caller\n        /* \"Staking.sol\":1132:1136  this */\n      address\n        /* \"Staking.sol\":1139:1146  _amount */\n      dup10\n        /* \"Staking.sol\":1093:1147  token.transferFrom(msg.sender, address(this), _amount) */\n      mload(0x40)\n      dup5\n      0xffffffff\n      and\n      0xe0\n      shl\n      dup2\n      mstore\n      0x04\n      add\n      tag_70\n      swap4\n      swap3\n      swap2\n      swap1\n      tag_46\n      jump\t// in\n    tag_70:\n      0x20\n      mload(0x40)\n      dup1\n      dup4\n      sub\n      dup2\n      0x00\n      dup8\n      gas\n      call\n      iszero\n      dup1\n      iszero\n      tag_72\n      jumpi\n      returndatasize\n      0x00\n      dup1\n      returndatacopy\n      revert(0x00, returndatasize)\n    tag_72:\n      pop\n      pop\n      pop\n      pop\n      mload(0x40)\n      returndatasize\n      not(0x1f)\n      0x1f\n      dup3\n      add\n      and\n      dup3\n      add\n      dup1\n      0x40\n      mstore\n      pop\n      dup2\n      add\n      swap1\n      tag_73\n      swap2\n      swap1\n      tag_50\n      jump\t// in\n    tag_73:\n      pop\n        /* \"Staking.sol\":1179:1365  Stake({... */\n      mload(0x40)\n      dup1\n      0x80\n      add\n      0x40\n      mstore\n      dup1\n        /* \"Staking.sol\":1207:1214  _amount */\n      dup8\n        /* \"Staking.sol\":1179:1365  Stake({... */\n      dup2\n      mstore\n      0x20\n      add\n        /* \"Staking.sol\":1239:1254  block.timestamp */\n      timestamp\n        /* \"Staking.sol\":1179:1365  Stake({... */\n      dup2\n      mstore\n      0x20\n      add\n        /* \"Staking.sol\":1290:1298  365 days */\n      0x01e13380\n        /* \"Staking.sol\":1278:1287  _duration */\n      dup8\n        /* \"Staking.sol\":1278:1298  _duration * 365 days */\n      tag_74\n      swap2\n      swap1\n      tag_75\n      jump\t// in\n    tag_74:\n        /* \"Staking.sol\":1179:1365  Stake({... */\n      dup2\n      mstore\n      0x20\n      add\n        /* \"Staking.sol\":1349:1354  false */\n      0x00\n        /* \"Staking.sol\":1179:1365  Stake({... */\n      iszero\n      iszero\n      dup2\n      mstore\n      pop\n        /* \"Staking.sol\":1158:1164  stakes */\n      0x01\n        /* \"Staking.sol\":1158:1176  stakes[msg.sender] */\n      0x00\n        /* \"Staking.sol\":1165:1175  msg.sender */\n      caller\n        /* \"Staking.sol\":1158:1176  stakes[msg.sender] */\n      0xffffffffffffffffffffffffffffffffffffffff\n      and\n      0xffffffffffffffffffffffffffffffffffffffff\n      and\n      dup2\n      mstore\n      0x20\n      add\n      swap1\n      dup2\n      mstore\n      0x20\n      add\n      0x00\n      keccak256\n        /* \"Staking.sol\":1158:1365  stakes[msg.sender] = Stake({... */\n      0x00\n      dup3\n      add\n      mload\n      dup2\n      0x00\n      add\n      sstore\n      0x20\n      dup3\n      add\n      mload\n      dup2\n      0x01\n      add\n      sstore\n      0x40\n      dup3\n      add\n      mload\n      dup2\n      0x02\n      add\n      sstore\n      0x60\n      dup3\n      add\n      mload\n      dup2\n      0x03\n      add\n      exp(0x0100, 0x00)\n      dup2\n      sload\n      dup2\n      0xff\n      mul\n      not\n      and\n      swap1\n      dup4\n      iszero\n      iszero\n      mul\n      or\n      swap1\n      sstore\n      pop\n      swap1\n      pop\n      pop\n        /* \"Staking.sol\":1388:1398  msg.sender */\n      caller\n        /* \"Staking.sol\":1381:1419  Staked(msg.sender, _amount, _duration) */\n      0xffffffffffffffffffffffffffffffffffffffff\n      and\n      0x1449c6dd7851abc30abf37f57715f492010519147cc2652fbc38202c18a6ee90\n        /* \"Staking.sol\":1400:1407  _amount */\n      dup8\n        /* \"Staking.sol\":1409:1418  _duration */\n      dup8\n        /* \"Staking.sol\":1381:1419  Staked(msg.sender, _amount, _duration) */\n      mload(0x40)\n      tag_76\n      swap3\n      swap2\n      swap1\n      tag_77\n      jump\t// in\n    tag_76:\n      mload(0x40)\n      dup1\n      swap2\n      sub\n      swap1\n      log2\n        /* \"Staking.sol\":1441:1448  _amount */\n      dup6\n        /* \"Staking.sol\":1430:1448  myAmount = _amount */\n      swap2\n      pop\n        /* \"Staking.sol\":1470:1480  msg.sender */\n      caller\n        /* \"Staking.sol\":1458:1480  myAddress = msg.sender */\n      swap1\n      pop\n        /* \"Staking.sol\":1498:1506  myAmount */\n      dup2\n        /* \"Staking.sol\":1508:1517  myAddress */\n      dup2\n        /* \"Staking.sol\":1490:1518  return (myAmount, myAddress) */\n      swap4\n      pop\n      swap4\n      pop\n      pop\n      pop\n        /* \"Staking.sol\":828:1525  function stake(uint256 _amount, uint256 _duration)... */\n      swap3\n      pop\n      swap3\n      swap1\n      pop\n      jump\t// out\n        /* \"Staking.sol\":216:236  address public owner */\n    tag_24:\n      0x00\n      dup1\n      sload\n      swap1\n      0x0100\n      exp\n      swap1\n      div\n      0xffffffffffffffffffffffffffffffffffffffff\n      and\n      dup2\n      jump\t// out\n        /* \"Staking.sol\":4153:4366  function getStaker(address _userAddress)... */\n    tag_30:\n        /* \"Staking.sol\":4241:4248  uint256 */\n      0x00\n        /* \"Staking.sol\":4250:4257  address */\n      dup1\n        /* \"Staking.sol\":4273:4291  Stake memory staky */\n      0x00\n        /* \"Staking.sol\":4294:4300  stakes */\n      0x01\n        /* \"Staking.sol\":4294:4314  stakes[_userAddress] */\n      0x00\n        /* \"Staking.sol\":4301:4313  _userAddress */\n      dup6\n        /* \"Staking.sol\":4294:4314  stakes[_userAddress] */\n      0xffffffffffffffffffffffffffffffffffffffff\n      and\n      0xffffffffffffffffffffffffffffffffffffffff\n      and\n      dup2\n      mstore\n      0x20\n      add\n      swap1\n      dup2\n      mstore\n      0x20\n      add\n      0x00\n      keccak256\n        /* \"Staking.sol\":4273:4314  Stake memory staky = stakes[_userAddress] */\n      mload(0x40)\n      dup1\n      0x80\n      add\n      0x40\n      mstore\n      swap1\n      dup2\n      0x00\n      dup3\n      add\n      sload\n      dup2\n      mstore\n      0x20\n      add\n      0x01\n      dup3\n      add\n      sload\n      dup2\n      mstore\n      0x20\n      add\n      0x02\n      dup3\n      add\n      sload\n      dup2\n      mstore\n      0x20\n      add\n      0x03\n      dup3\n      add\n      0x00\n      swap1\n      sload\n      swap1\n      0x0100\n      exp\n      swap1\n      div\n      0xff\n      and\n      iszero\n      iszero\n      iszero\n      iszero\n      dup2\n      mstore\n      pop\n      pop\n      swap1\n      pop\n        /* \"Staking.sol\":4332:4337  staky */\n      dup1\n        /* \"Staking.sol\":4332:4344  staky.amount */\n      0x00\n      add\n      mload\n        /* \"Staking.sol\":4346:4358  _userAddress */\n      dup5\n        /* \"Staking.sol\":4324:4359  return (staky.amount, _userAddress) */\n      swap3\n      pop\n      swap3\n      pop\n      pop\n        /* \"Staking.sol\":4153:4366  function getStaker(address _userAddress)... */\n      swap2\n      pop\n      swap2\n      jump\t// out\n        /* \"Staking.sol\":2510:2983  function claimReward() external returns (uint256) {... */\n    tag_33:\n        /* \"Staking.sol\":2551:2558  uint256 */\n      0x00\n        /* \"Staking.sol\":2570:2593  Stake storage userStake */\n      dup1\n        /* \"Staking.sol\":2596:2602  stakes */\n      0x01\n        /* \"Staking.sol\":2596:2614  stakes[msg.sender] */\n      0x00\n        /* \"Staking.sol\":2603:2613  msg.sender */\n      caller\n        /* \"Staking.sol\":2596:2614  stakes[msg.sender] */\n      0xffffffffffffffffffffffffffffffffffffffff\n      and\n      0xffffffffffffffffffffffffffffffffffffffff\n      and\n      dup2\n      mstore\n      0x20\n      add\n      swap1\n      dup2\n      mstore\n      0x20\n      add\n      0x00\n      keccak256\n        /* \"Staking.sol\":2570:2614  Stake storage userStake = stakes[msg.sender] */\n      swap1\n      pop\n        /* \"Staking.sol\":2648:2649  0 */\n      0x00\n        /* \"Staking.sol\":2628:2637  userStake */\n      dup2\n        /* \"Staking.sol\":2628:2644  userStake.amount */\n      0x00\n      add\n      sload\n        /* \"Staking.sol\":2628:2649  userStake.amount == 0 */\n      sub\n        /* \"Staking.sol\":2624:2697  if (userStake.amount == 0) {... */\n      tag_80\n      jumpi\n        /* \"Staking.sol\":2672:2686  NoStakeFound() */\n      mload(0x40)\n      0x59be8f0200000000000000000000000000000000000000000000000000000000\n      dup2\n      mstore\n      0x04\n      add\n      mload(0x40)\n      dup1\n      swap2\n      sub\n      swap1\n      revert\n        /* \"Staking.sol\":2624:2697  if (userStake.amount == 0) {... */\n    tag_80:\n        /* \"Staking.sol\":2707:2721  uint256 reward */\n      0x00\n        /* \"Staking.sol\":2724:2751  calculateReward(msg.sender) */\n      tag_81\n        /* \"Staking.sol\":2740:2750  msg.sender */\n      caller\n        /* \"Staking.sol\":2724:2739  calculateReward */\n      tag_55\n        /* \"Staking.sol\":2724:2751  calculateReward(msg.sender) */\n      jump\t// in\n    tag_81:\n        /* \"Staking.sol\":2707:2751  uint256 reward = calculateReward(msg.sender) */\n      swap1\n      pop\n        /* \"Staking.sol\":2775:2776  0 */\n      0x00\n        /* \"Staking.sol\":2765:2771  reward */\n      dup2\n        /* \"Staking.sol\":2765:2776  reward == 0 */\n      sub\n        /* \"Staking.sol\":2761:2826  if (reward == 0) {... */\n      tag_82\n      jumpi\n        /* \"Staking.sol\":2799:2815  StakeNotMature() */\n      mload(0x40)\n      0xa5a3111c00000000000000000000000000000000000000000000000000000000\n      dup2\n      mstore\n      0x04\n      add\n      mload(0x40)\n      dup1\n      swap2\n      sub\n      swap1\n      revert\n        /* \"Staking.sol\":2761:2826  if (reward == 0) {... */\n    tag_82:\n        /* \"Staking.sol\":2856:2860  true */\n      0x01\n        /* \"Staking.sol\":2836:2845  userStake */\n      dup3\n        /* \"Staking.sol\":2836:2853  userStake.claimed */\n      0x03\n      add\n      0x00\n        /* \"Staking.sol\":2836:2860  userStake.claimed = true */\n      0x0100\n      exp\n      dup2\n      sload\n      dup2\n      0xff\n      mul\n      not\n      and\n      swap1\n      dup4\n      iszero\n      iszero\n      mul\n      or\n      swap1\n      sstore\n      pop\n        /* \"Staking.sol\":2870:2875  token */\n      immutable(\"0xbf08d8a2d7c7780024ba6e6dbe12d3d5a5a747ea3071fca63d8a2ede50d3472a\")\n        /* \"Staking.sol\":2870:2884  token.transfer */\n      0xffffffffffffffffffffffffffffffffffffffff\n      and\n      0xa9059cbb\n        /* \"Staking.sol\":2885:2895  msg.sender */\n      caller\n        /* \"Staking.sol\":2897:2903  reward */\n      dup4\n        /* \"Staking.sol\":2870:2904  token.transfer(msg.sender, reward) */\n      mload(0x40)\n      dup4\n      0xffffffff\n      and\n      0xe0\n      shl\n      dup2\n      mstore\n      0x04\n      add\n      tag_83\n      swap3\n      swap2\n      swap1\n      tag_62\n      jump\t// in\n    tag_83:\n      0x20\n      mload(0x40)\n      dup1\n      dup4\n      sub\n      dup2\n      0x00\n      dup8\n      gas\n      call\n      iszero\n      dup1\n      iszero\n      tag_85\n      jumpi\n      returndatasize\n      0x00\n      dup1\n      returndatacopy\n      revert(0x00, returndatasize)\n    tag_85:\n      pop\n      pop\n      pop\n      pop\n      mload(0x40)\n      returndatasize\n      not(0x1f)\n      0x1f\n      dup3\n      add\n      and\n      dup3\n      add\n      dup1\n      0x40\n      mstore\n      pop\n      dup2\n      add\n      swap1\n      tag_86\n      swap2\n      swap1\n      tag_50\n      jump\t// in\n    tag_86:\n      pop\n        /* \"Staking.sol\":2934:2944  msg.sender */\n      caller\n        /* \"Staking.sol\":2919:2953  RewardsClaimed(msg.sender, reward) */\n      0xffffffffffffffffffffffffffffffffffffffff\n      and\n      0xfc30cddea38e2bf4d6ea7d3f9ed3b6ad7f176419f4963bd81318067a4aee73fe\n        /* \"Staking.sol\":2946:2952  reward */\n      dup3\n        /* \"Staking.sol\":2919:2953  RewardsClaimed(msg.sender, reward) */\n      mload(0x40)\n      tag_87\n      swap2\n      swap1\n      tag_35\n      jump\t// in\n    tag_87:\n      mload(0x40)\n      dup1\n      swap2\n      sub\n      swap1\n      log2\n        /* \"Staking.sol\":2970:2976  reward */\n      dup1\n        /* \"Staking.sol\":2963:2976  return reward */\n      swap3\n      pop\n      pop\n      pop\n        /* \"Staking.sol\":2510:2983  function claimReward() external returns (uint256) {... */\n      swap1\n      jump\t// out\n        /* \"Staking.sol\":145:174  IERC20 public immutable token */\n    tag_37:\n      immutable(\"0xbf08d8a2d7c7780024ba6e6dbe12d3d5a5a747ea3071fca63d8a2ede50d3472a\")\n      dup2\n      jump\t// out\n        /* \"Staking.sol\":2019:2432  function calculateReward(address _user) internal view returns (uint256) {... */\n    tag_55:\n        /* \"Staking.sol\":2082:2089  uint256 */\n      0x00\n        /* \"Staking.sol\":2101:2123  Stake memory userStake */\n      dup1\n        /* \"Staking.sol\":2126:2132  stakes */\n      0x01\n        /* \"Staking.sol\":2126:2139  stakes[_user] */\n      0x00\n        /* \"Staking.sol\":2133:2138  _user */\n      dup5\n        /* \"Staking.sol\":2126:2139  stakes[_user] */\n      0xffffffffffffffffffffffffffffffffffffffff\n      and\n      0xffffffffffffffffffffffffffffffffffffffff\n      and\n      dup2\n      mstore\n      0x20\n      add\n      swap1\n      dup2\n      mstore\n      0x20\n      add\n      0x00\n      keccak256\n        /* \"Staking.sol\":2101:2139  Stake memory userStake = stakes[_user] */\n      mload(0x40)\n      dup1\n      0x80\n      add\n      0x40\n      mstore\n      swap1\n      dup2\n      0x00\n      dup3\n      add\n      sload\n      dup2\n      mstore\n      0x20\n      add\n      0x01\n      dup3\n      add\n      sload\n      dup2\n      mstore\n      0x20\n      add\n      0x02\n      dup3\n      add\n      sload\n      dup2\n      mstore\n      0x20\n      add\n      0x03\n      dup3\n      add\n      0x00\n      swap1\n      sload\n      swap1\n      0x0100\n      exp\n      swap1\n      div\n      0xff\n      and\n      iszero\n      iszero\n      iszero\n      iszero\n      dup2\n      mstore\n      pop\n      pop\n      swap1\n      pop\n        /* \"Staking.sol\":2193:2202  userStake */\n      dup1\n        /* \"Staking.sol\":2193:2211  userStake.duration */\n      0x40\n      add\n      mload\n        /* \"Staking.sol\":2171:2180  userStake */\n      dup2\n        /* \"Staking.sol\":2171:2190  userStake.startTime */\n      0x20\n      add\n      mload\n        /* \"Staking.sol\":2171:2211  userStake.startTime + userStake.duration */\n      tag_89\n      swap2\n      swap1\n      tag_57\n      jump\t// in\n    tag_89:\n        /* \"Staking.sol\":2153:2168  block.timestamp */\n      timestamp\n        /* \"Staking.sol\":2153:2211  block.timestamp < userStake.startTime + userStake.duration */\n      lt\n        /* \"Staking.sol\":2149:2276  if (block.timestamp < userStake.startTime + userStake.duration) {... */\n      iszero\n      tag_90\n      jumpi\n        /* \"Staking.sol\":2234:2235  0 */\n      0x00\n        /* \"Staking.sol\":2227:2235  return 0 */\n      swap2\n      pop\n      pop\n      jump(tag_88)\n        /* \"Staking.sol\":2149:2276  if (block.timestamp < userStake.startTime + userStake.duration) {... */\n    tag_90:\n        /* \"Staking.sol\":2286:2310  uint256 rewardPercentage */\n      0x00\n        /* \"Staking.sol\":2347:2349  25 */\n      0x19\n        /* \"Staking.sol\":2335:2343  365 days */\n      0x01e13380\n        /* \"Staking.sol\":2314:2323  userStake */\n      dup4\n        /* \"Staking.sol\":2314:2332  userStake.duration */\n      0x40\n      add\n      mload\n        /* \"Staking.sol\":2314:2343  userStake.duration / 365 days */\n      tag_91\n      swap2\n      swap1\n      tag_92\n      jump\t// in\n    tag_91:\n        /* \"Staking.sol\":2313:2349  (userStake.duration / 365 days) * 25 */\n      tag_93\n      swap2\n      swap1\n      tag_75\n      jump\t// in\n    tag_93:\n        /* \"Staking.sol\":2286:2349  uint256 rewardPercentage = (userStake.duration / 365 days) * 25 */\n      swap1\n      pop\n        /* \"Staking.sol\":2422:2425  100 */\n      0x64\n        /* \"Staking.sol\":2402:2418  rewardPercentage */\n      dup2\n        /* \"Staking.sol\":2383:2392  userStake */\n      dup4\n        /* \"Staking.sol\":2383:2399  userStake.amount */\n      0x00\n      add\n      mload\n        /* \"Staking.sol\":2383:2418  userStake.amount * rewardPercentage */\n      tag_94\n      swap2\n      swap1\n      tag_75\n      jump\t// in\n    tag_94:\n        /* \"Staking.sol\":2382:2425  (userStake.amount * rewardPercentage) / 100 */\n      tag_95\n      swap2\n      swap1\n      tag_92\n      jump\t// in\n    tag_95:\n        /* \"Staking.sol\":2375:2425  return (userStake.amount * rewardPercentage) / 100 */\n      swap3\n      pop\n      pop\n      pop\n        /* \"Staking.sol\":2019:2432  function calculateReward(address _user) internal view returns (uint256) {... */\n    tag_88:\n      swap2\n      swap1\n      pop\n      jump\t// out\n        /* \"#utility.yul\":88:205   */\n    tag_97:\n        /* \"#utility.yul\":197:198   */\n      0x00\n        /* \"#utility.yul\":194:195   */\n      dup1\n        /* \"#utility.yul\":187:199   */\n      revert\n        /* \"#utility.yul\":334:411   */\n    tag_99:\n        /* \"#utility.yul\":371:378   */\n      0x00\n        /* \"#utility.yul\":400:405   */\n      dup2\n        /* \"#utility.yul\":389:405   */\n      swap1\n      pop\n        /* \"#utility.yul\":334:411   */\n      swap2\n      swap1\n      pop\n      jump\t// out\n        /* \"#utility.yul\":417:539   */\n    tag_100:\n        /* \"#utility.yul\":490:514   */\n      tag_127\n        /* \"#utility.yul\":508:513   */\n      dup2\n        /* \"#utility.yul\":490:514   */\n      tag_99\n      jump\t// in\n    tag_127:\n        /* \"#utility.yul\":483:488   */\n      dup2\n        /* \"#utility.yul\":480:515   */\n      eq\n        /* \"#utility.yul\":470:533   */\n      tag_128\n      jumpi\n        /* \"#utility.yul\":529:530   */\n      0x00\n        /* \"#utility.yul\":526:527   */\n      dup1\n        /* \"#utility.yul\":519:531   */\n      revert\n        /* \"#utility.yul\":470:533   */\n    tag_128:\n        /* \"#utility.yul\":417:539   */\n      pop\n      jump\t// out\n        /* \"#utility.yul\":545:684   */\n    tag_101:\n        /* \"#utility.yul\":591:596   */\n      0x00\n        /* \"#utility.yul\":629:635   */\n      dup2\n        /* \"#utility.yul\":616:636   */\n      calldataload\n        /* \"#utility.yul\":607:636   */\n      swap1\n      pop\n        /* \"#utility.yul\":645:678   */\n      tag_130\n        /* \"#utility.yul\":672:677   */\n      dup2\n        /* \"#utility.yul\":645:678   */\n      tag_100\n      jump\t// in\n    tag_130:\n        /* \"#utility.yul\":545:684   */\n      swap3\n      swap2\n      pop\n      pop\n      jump\t// out\n        /* \"#utility.yul\":690:1019   */\n    tag_13:\n        /* \"#utility.yul\":749:755   */\n      0x00\n        /* \"#utility.yul\":798:800   */\n      0x20\n        /* \"#utility.yul\":786:795   */\n      dup3\n        /* \"#utility.yul\":777:784   */\n      dup5\n        /* \"#utility.yul\":773:796   */\n      sub\n        /* \"#utility.yul\":769:801   */\n      slt\n        /* \"#utility.yul\":766:885   */\n      iszero\n      tag_132\n      jumpi\n        /* \"#utility.yul\":804:883   */\n      tag_133\n      tag_97\n      jump\t// in\n    tag_133:\n        /* \"#utility.yul\":766:885   */\n    tag_132:\n        /* \"#utility.yul\":924:925   */\n      0x00\n        /* \"#utility.yul\":949:1002   */\n      tag_134\n        /* \"#utility.yul\":994:1001   */\n      dup5\n        /* \"#utility.yul\":985:991   */\n      dup3\n        /* \"#utility.yul\":974:983   */\n      dup6\n        /* \"#utility.yul\":970:992   */\n      add\n        /* \"#utility.yul\":949:1002   */\n      tag_101\n      jump\t// in\n    tag_134:\n        /* \"#utility.yul\":939:1002   */\n      swap2\n      pop\n        /* \"#utility.yul\":895:1012   */\n      pop\n        /* \"#utility.yul\":690:1019   */\n      swap3\n      swap2\n      pop\n      pop\n      jump\t// out\n        /* \"#utility.yul\":1025:1499   */\n    tag_19:\n        /* \"#utility.yul\":1093:1099   */\n      0x00\n        /* \"#utility.yul\":1101:1107   */\n      dup1\n        /* \"#utility.yul\":1150:1152   */\n      0x40\n        /* \"#utility.yul\":1138:1147   */\n      dup4\n        /* \"#utility.yul\":1129:1136   */\n      dup6\n        /* \"#utility.yul\":1125:1148   */\n      sub\n        /* \"#utility.yul\":1121:1153   */\n      slt\n        /* \"#utility.yul\":1118:1237   */\n      iszero\n      tag_136\n      jumpi\n        /* \"#utility.yul\":1156:1235   */\n      tag_137\n      tag_97\n      jump\t// in\n    tag_137:\n        /* \"#utility.yul\":1118:1237   */\n    tag_136:\n        /* \"#utility.yul\":1276:1277   */\n      0x00\n        /* \"#utility.yul\":1301:1354   */\n      tag_138\n        /* \"#utility.yul\":1346:1353   */\n      dup6\n        /* \"#utility.yul\":1337:1343   */\n      dup3\n        /* \"#utility.yul\":1326:1335   */\n      dup7\n        /* \"#utility.yul\":1322:1344   */\n      add\n        /* \"#utility.yul\":1301:1354   */\n      tag_101\n      jump\t// in\n    tag_138:\n        /* \"#utility.yul\":1291:1354   */\n      swap3\n      pop\n        /* \"#utility.yul\":1247:1364   */\n      pop\n        /* \"#utility.yul\":1403:1405   */\n      0x20\n        /* \"#utility.yul\":1429:1482   */\n      tag_139\n        /* \"#utility.yul\":1474:1481   */\n      dup6\n        /* \"#utility.yul\":1465:1471   */\n      dup3\n        /* \"#utility.yul\":1454:1463   */\n      dup7\n        /* \"#utility.yul\":1450:1472   */\n      add\n        /* \"#utility.yul\":1429:1482   */\n      tag_101\n      jump\t// in\n    tag_139:\n        /* \"#utility.yul\":1419:1482   */\n      swap2\n      pop\n        /* \"#utility.yul\":1374:1492   */\n      pop\n        /* \"#utility.yul\":1025:1499   */\n      swap3\n      pop\n      swap3\n      swap1\n      pop\n      jump\t// out\n        /* \"#utility.yul\":1505:1623   */\n    tag_102:\n        /* \"#utility.yul\":1592:1616   */\n      tag_141\n        /* \"#utility.yul\":1610:1615   */\n      dup2\n        /* \"#utility.yul\":1592:1616   */\n      tag_99\n      jump\t// in\n    tag_141:\n        /* \"#utility.yul\":1587:1590   */\n      dup3\n        /* \"#utility.yul\":1580:1617   */\n      mstore\n        /* \"#utility.yul\":1505:1623   */\n      pop\n      pop\n      jump\t// out\n        /* \"#utility.yul\":1629:1755   */\n    tag_103:\n        /* \"#utility.yul\":1666:1673   */\n      0x00\n        /* \"#utility.yul\":1706:1748   */\n      0xffffffffffffffffffffffffffffffffffffffff\n        /* \"#utility.yul\":1699:1704   */\n      dup3\n        /* \"#utility.yul\":1695:1749   */\n      and\n        /* \"#utility.yul\":1684:1749   */\n      swap1\n      pop\n        /* \"#utility.yul\":1629:1755   */\n      swap2\n      swap1\n      pop\n      jump\t// out\n        /* \"#utility.yul\":1761:1857   */\n    tag_104:\n        /* \"#utility.yul\":1798:1805   */\n      0x00\n        /* \"#utility.yul\":1827:1851   */\n      tag_144\n        /* \"#utility.yul\":1845:1850   */\n      dup3\n        /* \"#utility.yul\":1827:1851   */\n      tag_103\n      jump\t// in\n    tag_144:\n        /* \"#utility.yul\":1816:1851   */\n      swap1\n      pop\n        /* \"#utility.yul\":1761:1857   */\n      swap2\n      swap1\n      pop\n      jump\t// out\n        /* \"#utility.yul\":1863:1981   */\n    tag_105:\n        /* \"#utility.yul\":1950:1974   */\n      tag_146\n        /* \"#utility.yul\":1968:1973   */\n      dup2\n        /* \"#utility.yul\":1950:1974   */\n      tag_104\n      jump\t// in\n    tag_146:\n        /* \"#utility.yul\":1945:1948   */\n      dup3\n        /* \"#utility.yul\":1938:1975   */\n      mstore\n        /* \"#utility.yul\":1863:1981   */\n      pop\n      pop\n      jump\t// out\n        /* \"#utility.yul\":1987:2319   */\n    tag_22:\n        /* \"#utility.yul\":2108:2112   */\n      0x00\n        /* \"#utility.yul\":2146:2148   */\n      0x40\n        /* \"#utility.yul\":2135:2144   */\n      dup3\n        /* \"#utility.yul\":2131:2149   */\n      add\n        /* \"#utility.yul\":2123:2149   */\n      swap1\n      pop\n        /* \"#utility.yul\":2159:2230   */\n      tag_148\n        /* \"#utility.yul\":2227:2228   */\n      0x00\n        /* \"#utility.yul\":2216:2225   */\n      dup4\n        /* \"#utility.yul\":2212:2229   */\n      add\n        /* \"#utility.yul\":2203:2209   */\n      dup6\n        /* \"#utility.yul\":2159:2230   */\n      tag_102\n      jump\t// in\n    tag_148:\n        /* \"#utility.yul\":2240:2312   */\n      tag_149\n        /* \"#utility.yul\":2308:2310   */\n      0x20\n        /* \"#utility.yul\":2297:2306   */\n      dup4\n        /* \"#utility.yul\":2293:2311   */\n      add\n        /* \"#utility.yul\":2284:2290   */\n      dup5\n        /* \"#utility.yul\":2240:2312   */\n      tag_105\n      jump\t// in\n    tag_149:\n        /* \"#utility.yul\":1987:2319   */\n      swap4\n      swap3\n      pop\n      pop\n      pop\n      jump\t// out\n        /* \"#utility.yul\":2325:2547   */\n    tag_26:\n        /* \"#utility.yul\":2418:2422   */\n      0x00\n        /* \"#utility.yul\":2456:2458   */\n      0x20\n        /* \"#utility.yul\":2445:2454   */\n      dup3\n        /* \"#utility.yul\":2441:2459   */\n      add\n        /* \"#utility.yul\":2433:2459   */\n      swap1\n      pop\n        /* \"#utility.yul\":2469:2540   */\n      tag_151\n        /* \"#utility.yul\":2537:2538   */\n      0x00\n        /* \"#utility.yul\":2526:2535   */\n      dup4\n        /* \"#utility.yul\":2522:2539   */\n      add\n        /* \"#utility.yul\":2513:2519   */\n      dup5\n        /* \"#utility.yul\":2469:2540   */\n      tag_105\n      jump\t// in\n    tag_151:\n        /* \"#utility.yul\":2325:2547   */\n      swap3\n      swap2\n      pop\n      pop\n      jump\t// out\n        /* \"#utility.yul\":2553:2675   */\n    tag_106:\n        /* \"#utility.yul\":2626:2650   */\n      tag_153\n        /* \"#utility.yul\":2644:2649   */\n      dup2\n        /* \"#utility.yul\":2626:2650   */\n      tag_104\n      jump\t// in\n    tag_153:\n        /* \"#utility.yul\":2619:2624   */\n      dup2\n        /* \"#utility.yul\":2616:2651   */\n      eq\n        /* \"#utility.yul\":2606:2669   */\n      tag_154\n      jumpi\n        /* \"#utility.yul\":2665:2666   */\n      0x00\n        /* \"#utility.yul\":2662:2663   */\n      dup1\n        /* \"#utility.yul\":2655:2667   */\n      revert\n        /* \"#utility.yul\":2606:2669   */\n    tag_154:\n        /* \"#utility.yul\":2553:2675   */\n      pop\n      jump\t// out\n        /* \"#utility.yul\":2681:2820   */\n    tag_107:\n        /* \"#utility.yul\":2727:2732   */\n      0x00\n        /* \"#utility.yul\":2765:2771   */\n      dup2\n        /* \"#utility.yul\":2752:2772   */\n      calldataload\n        /* \"#utility.yul\":2743:2772   */\n      swap1\n      pop\n        /* \"#utility.yul\":2781:2814   */\n      tag_156\n        /* \"#utility.yul\":2808:2813   */\n      dup2\n        /* \"#utility.yul\":2781:2814   */\n      tag_106\n      jump\t// in\n    tag_156:\n        /* \"#utility.yul\":2681:2820   */\n      swap3\n      swap2\n      pop\n      pop\n      jump\t// out\n        /* \"#utility.yul\":2826:3155   */\n    tag_29:\n        /* \"#utility.yul\":2885:2891   */\n      0x00\n        /* \"#utility.yul\":2934:2936   */\n      0x20\n        /* \"#utility.yul\":2922:2931   */\n      dup3\n        /* \"#utility.yul\":2913:2920   */\n      dup5\n        /* \"#utility.yul\":2909:2932   */\n      sub\n        /* \"#utility.yul\":2905:2937   */\n      slt\n        /* \"#utility.yul\":2902:3021   */\n      iszero\n      tag_158\n      jumpi\n        /* \"#utility.yul\":2940:3019   */\n      tag_159\n      tag_97\n      jump\t// in\n    tag_159:\n        /* \"#utility.yul\":2902:3021   */\n    tag_158:\n        /* \"#utility.yul\":3060:3061   */\n      0x00\n        /* \"#utility.yul\":3085:3138   */\n      tag_160\n        /* \"#utility.yul\":3130:3137   */\n      dup5\n        /* \"#utility.yul\":3121:3127   */\n      dup3\n        /* \"#utility.yul\":3110:3119   */\n      dup6\n        /* \"#utility.yul\":3106:3128   */\n      add\n        /* \"#utility.yul\":3085:3138   */\n      tag_107\n      jump\t// in\n    tag_160:\n        /* \"#utility.yul\":3075:3138   */\n      swap2\n      pop\n        /* \"#utility.yul\":3031:3148   */\n      pop\n        /* \"#utility.yul\":2826:3155   */\n      swap3\n      swap2\n      pop\n      pop\n      jump\t// out\n        /* \"#utility.yul\":3161:3383   */\n    tag_35:\n        /* \"#utility.yul\":3254:3258   */\n      0x00\n        /* \"#utility.yul\":3292:3294   */\n      0x20\n        /* \"#utility.yul\":3281:3290   */\n      dup3\n        /* \"#utility.yul\":3277:3295   */\n      add\n        /* \"#utility.yul\":3269:3295   */\n      swap1\n      pop\n        /* \"#utility.yul\":3305:3376   */\n      tag_162\n        /* \"#utility.yul\":3373:3374   */\n      0x00\n        /* \"#utility.yul\":3362:3371   */\n      dup4\n        /* \"#utility.yul\":3358:3375   */\n      add\n        /* \"#utility.yul\":3349:3355   */\n      dup5\n        /* \"#utility.yul\":3305:3376   */\n      tag_102\n      jump\t// in\n    tag_162:\n        /* \"#utility.yul\":3161:3383   */\n      swap3\n      swap2\n      pop\n      pop\n      jump\t// out\n        /* \"#utility.yul\":3389:3449   */\n    tag_108:\n        /* \"#utility.yul\":3417:3420   */\n      0x00\n        /* \"#utility.yul\":3438:3443   */\n      dup2\n        /* \"#utility.yul\":3431:3443   */\n      swap1\n      pop\n        /* \"#utility.yul\":3389:3449   */\n      swap2\n      swap1\n      pop\n      jump\t// out\n        /* \"#utility.yul\":3455:3597   */\n    tag_109:\n        /* \"#utility.yul\":3505:3514   */\n      0x00\n        /* \"#utility.yul\":3538:3591   */\n      tag_165\n        /* \"#utility.yul\":3556:3590   */\n      tag_166\n        /* \"#utility.yul\":3565:3589   */\n      tag_167\n        /* \"#utility.yul\":3583:3588   */\n      dup5\n        /* \"#utility.yul\":3565:3589   */\n      tag_103\n      jump\t// in\n    tag_167:\n        /* \"#utility.yul\":3556:3590   */\n      tag_108\n      jump\t// in\n    tag_166:\n        /* \"#utility.yul\":3538:3591   */\n      tag_103\n      jump\t// in\n    tag_165:\n        /* \"#utility.yul\":3525:3591   */\n      swap1\n      pop\n        /* \"#utility.yul\":3455:3597   */\n      swap2\n      swap1\n      pop\n      jump\t// out\n        /* \"#utility.yul\":3603:3729   */\n    tag_110:\n        /* \"#utility.yul\":3653:3662   */\n      0x00\n        /* \"#utility.yul\":3686:3723   */\n      tag_169\n        /* \"#utility.yul\":3717:3722   */\n      dup3\n        /* \"#utility.yul\":3686:3723   */\n      tag_109\n      jump\t// in\n    tag_169:\n        /* \"#utility.yul\":3673:3723   */\n      swap1\n      pop\n        /* \"#utility.yul\":3603:3729   */\n      swap2\n      swap1\n      pop\n      jump\t// out\n        /* \"#utility.yul\":3735:3874   */\n    tag_111:\n        /* \"#utility.yul\":3798:3807   */\n      0x00\n        /* \"#utility.yul\":3831:3868   */\n      tag_171\n        /* \"#utility.yul\":3862:3867   */\n      dup3\n        /* \"#utility.yul\":3831:3868   */\n      tag_110\n      jump\t// in\n    tag_171:\n        /* \"#utility.yul\":3818:3868   */\n      swap1\n      pop\n        /* \"#utility.yul\":3735:3874   */\n      swap2\n      swap1\n      pop\n      jump\t// out\n        /* \"#utility.yul\":3880:4037   */\n    tag_112:\n        /* \"#utility.yul\":3980:4030   */\n      tag_173\n        /* \"#utility.yul\":4024:4029   */\n      dup2\n        /* \"#utility.yul\":3980:4030   */\n      tag_111\n      jump\t// in\n    tag_173:\n        /* \"#utility.yul\":3975:3978   */\n      dup3\n        /* \"#utility.yul\":3968:4031   */\n      mstore\n        /* \"#utility.yul\":3880:4037   */\n      pop\n      pop\n      jump\t// out\n        /* \"#utility.yul\":4043:4291   */\n    tag_39:\n        /* \"#utility.yul\":4149:4153   */\n      0x00\n        /* \"#utility.yul\":4187:4189   */\n      0x20\n        /* \"#utility.yul\":4176:4185   */\n      dup3\n        /* \"#utility.yul\":4172:4190   */\n      add\n        /* \"#utility.yul\":4164:4190   */\n      swap1\n      pop\n        /* \"#utility.yul\":4200:4284   */\n      tag_175\n        /* \"#utility.yul\":4281:4282   */\n      0x00\n        /* \"#utility.yul\":4270:4279   */\n      dup4\n        /* \"#utility.yul\":4266:4283   */\n      add\n        /* \"#utility.yul\":4257:4263   */\n      dup5\n        /* \"#utility.yul\":4200:4284   */\n      tag_112\n      jump\t// in\n    tag_175:\n        /* \"#utility.yul\":4043:4291   */\n      swap3\n      swap2\n      pop\n      pop\n      jump\t// out\n        /* \"#utility.yul\":4297:4466   */\n    tag_113:\n        /* \"#utility.yul\":4381:4392   */\n      0x00\n        /* \"#utility.yul\":4415:4421   */\n      dup3\n        /* \"#utility.yul\":4410:4413   */\n      dup3\n        /* \"#utility.yul\":4403:4422   */\n      mstore\n        /* \"#utility.yul\":4455:4459   */\n      0x20\n        /* \"#utility.yul\":4450:4453   */\n      dup3\n        /* \"#utility.yul\":4446:4460   */\n      add\n        /* \"#utility.yul\":4431:4460   */\n      swap1\n      pop\n        /* \"#utility.yul\":4297:4466   */\n      swap3\n      swap2\n      pop\n      pop\n      jump\t// out\n        /* \"#utility.yul\":4472:4631   */\n    tag_114:\n        /* \"#utility.yul\":4612:4623   */\n      0x4e6f74206f776e65720000000000000000000000000000000000000000000000\n        /* \"#utility.yul\":4608:4609   */\n      0x00\n        /* \"#utility.yul\":4600:4606   */\n      dup3\n        /* \"#utility.yul\":4596:4610   */\n      add\n        /* \"#utility.yul\":4589:4624   */\n      mstore\n        /* \"#utility.yul\":4472:4631   */\n      pop\n      jump\t// out\n        /* \"#utility.yul\":4637:5002   */\n    tag_115:\n        /* \"#utility.yul\":4779:4782   */\n      0x00\n        /* \"#utility.yul\":4800:4866   */\n      tag_179\n        /* \"#utility.yul\":4864:4865   */\n      0x09\n        /* \"#utility.yul\":4859:4862   */\n      dup4\n        /* \"#utility.yul\":4800:4866   */\n      tag_113\n      jump\t// in\n    tag_179:\n        /* \"#utility.yul\":4793:4866   */\n      swap2\n      pop\n        /* \"#utility.yul\":4875:4968   */\n      tag_180\n        /* \"#utility.yul\":4964:4967   */\n      dup3\n        /* \"#utility.yul\":4875:4968   */\n      tag_114\n      jump\t// in\n    tag_180:\n        /* \"#utility.yul\":4993:4995   */\n      0x20\n        /* \"#utility.yul\":4988:4991   */\n      dup3\n        /* \"#utility.yul\":4984:4996   */\n      add\n        /* \"#utility.yul\":4977:4996   */\n      swap1\n      pop\n        /* \"#utility.yul\":4637:5002   */\n      swap2\n      swap1\n      pop\n      jump\t// out\n        /* \"#utility.yul\":5008:5427   */\n    tag_43:\n        /* \"#utility.yul\":5174:5178   */\n      0x00\n        /* \"#utility.yul\":5212:5214   */\n      0x20\n        /* \"#utility.yul\":5201:5210   */\n      dup3\n        /* \"#utility.yul\":5197:5215   */\n      add\n        /* \"#utility.yul\":5189:5215   */\n      swap1\n      pop\n        /* \"#utility.yul\":5261:5270   */\n      dup2\n        /* \"#utility.yul\":5255:5259   */\n      dup2\n        /* \"#utility.yul\":5251:5271   */\n      sub\n        /* \"#utility.yul\":5247:5248   */\n      0x00\n        /* \"#utility.yul\":5236:5245   */\n      dup4\n        /* \"#utility.yul\":5232:5249   */\n      add\n        /* \"#utility.yul\":5225:5272   */\n      mstore\n        /* \"#utility.yul\":5289:5420   */\n      tag_182\n        /* \"#utility.yul\":5415:5419   */\n      dup2\n        /* \"#utility.yul\":5289:5420   */\n      tag_115\n      jump\t// in\n    tag_182:\n        /* \"#utility.yul\":5281:5420   */\n      swap1\n      pop\n        /* \"#utility.yul\":5008:5427   */\n      swap2\n      swap1\n      pop\n      jump\t// out\n        /* \"#utility.yul\":5433:5875   */\n    tag_46:\n        /* \"#utility.yul\":5582:5586   */\n      0x00\n        /* \"#utility.yul\":5620:5622   */\n      0x60\n        /* \"#utility.yul\":5609:5618   */\n      dup3\n        /* \"#utility.yul\":5605:5623   */\n      add\n        /* \"#utility.yul\":5597:5623   */\n      swap1\n      pop\n        /* \"#utility.yul\":5633:5704   */\n      tag_184\n        /* \"#utility.yul\":5701:5702   */\n      0x00\n        /* \"#utility.yul\":5690:5699   */\n      dup4\n        /* \"#utility.yul\":5686:5703   */\n      add\n        /* \"#utility.yul\":5677:5683   */\n      dup7\n        /* \"#utility.yul\":5633:5704   */\n      tag_105\n      jump\t// in\n    tag_184:\n        /* \"#utility.yul\":5714:5786   */\n      tag_185\n        /* \"#utility.yul\":5782:5784   */\n      0x20\n        /* \"#utility.yul\":5771:5780   */\n      dup4\n        /* \"#utility.yul\":5767:5785   */\n      add\n        /* \"#utility.yul\":5758:5764   */\n      dup6\n        /* \"#utility.yul\":5714:5786   */\n      tag_105\n      jump\t// in\n    tag_185:\n        /* \"#utility.yul\":5796:5868   */\n      tag_186\n        /* \"#utility.yul\":5864:5866   */\n      0x40\n        /* \"#utility.yul\":5853:5862   */\n      dup4\n        /* \"#utility.yul\":5849:5867   */\n      add\n        /* \"#utility.yul\":5840:5846   */\n      dup5\n        /* \"#utility.yul\":5796:5868   */\n      tag_102\n      jump\t// in\n    tag_186:\n        /* \"#utility.yul\":5433:5875   */\n      swap5\n      swap4\n      pop\n      pop\n      pop\n      pop\n      jump\t// out\n        /* \"#utility.yul\":5881:5971   */\n    tag_116:\n        /* \"#utility.yul\":5915:5922   */\n      0x00\n        /* \"#utility.yul\":5958:5963   */\n      dup2\n        /* \"#utility.yul\":5951:5964   */\n      iszero\n        /* \"#utility.yul\":5944:5965   */\n      iszero\n        /* \"#utility.yul\":5933:5965   */\n      swap1\n      pop\n        /* \"#utility.yul\":5881:5971   */\n      swap2\n      swap1\n      pop\n      jump\t// out\n        /* \"#utility.yul\":5977:6093   */\n    tag_117:\n        /* \"#utility.yul\":6047:6068   */\n      tag_189\n        /* \"#utility.yul\":6062:6067   */\n      dup2\n        /* \"#utility.yul\":6047:6068   */\n      tag_116\n      jump\t// in\n    tag_189:\n        /* \"#utility.yul\":6040:6045   */\n      dup2\n        /* \"#utility.yul\":6037:6069   */\n      eq\n        /* \"#utility.yul\":6027:6087   */\n      tag_190\n      jumpi\n        /* \"#utility.yul\":6083:6084   */\n      0x00\n        /* \"#utility.yul\":6080:6081   */\n      dup1\n        /* \"#utility.yul\":6073:6085   */\n      revert\n        /* \"#utility.yul\":6027:6087   */\n    tag_190:\n        /* \"#utility.yul\":5977:6093   */\n      pop\n      jump\t// out\n        /* \"#utility.yul\":6099:6236   */\n    tag_118:\n        /* \"#utility.yul\":6153:6158   */\n      0x00\n        /* \"#utility.yul\":6184:6190   */\n      dup2\n        /* \"#utility.yul\":6178:6191   */\n      mload\n        /* \"#utility.yul\":6169:6191   */\n      swap1\n      pop\n        /* \"#utility.yul\":6200:6230   */\n      tag_192\n        /* \"#utility.yul\":6224:6229   */\n      dup2\n        /* \"#utility.yul\":6200:6230   */\n      tag_117\n      jump\t// in\n    tag_192:\n        /* \"#utility.yul\":6099:6236   */\n      swap3\n      swap2\n      pop\n      pop\n      jump\t// out\n        /* \"#utility.yul\":6242:6587   */\n    tag_50:\n        /* \"#utility.yul\":6309:6315   */\n      0x00\n        /* \"#utility.yul\":6358:6360   */\n      0x20\n        /* \"#utility.yul\":6346:6355   */\n      dup3\n        /* \"#utility.yul\":6337:6344   */\n      dup5\n        /* \"#utility.yul\":6333:6356   */\n      sub\n        /* \"#utility.yul\":6329:6361   */\n      slt\n        /* \"#utility.yul\":6326:6445   */\n      iszero\n      tag_194\n      jumpi\n        /* \"#utility.yul\":6364:6443   */\n      tag_195\n      tag_97\n      jump\t// in\n    tag_195:\n        /* \"#utility.yul\":6326:6445   */\n    tag_194:\n        /* \"#utility.yul\":6484:6485   */\n      0x00\n        /* \"#utility.yul\":6509:6570   */\n      tag_196\n        /* \"#utility.yul\":6562:6569   */\n      dup5\n        /* \"#utility.yul\":6553:6559   */\n      dup3\n        /* \"#utility.yul\":6542:6551   */\n      dup6\n        /* \"#utility.yul\":6538:6560   */\n      add\n        /* \"#utility.yul\":6509:6570   */\n      tag_118\n      jump\t// in\n    tag_196:\n        /* \"#utility.yul\":6499:6570   */\n      swap2\n      pop\n        /* \"#utility.yul\":6455:6580   */\n      pop\n        /* \"#utility.yul\":6242:6587   */\n      swap3\n      swap2\n      pop\n      pop\n      jump\t// out\n        /* \"#utility.yul\":6593:6773   */\n    tag_119:\n        /* \"#utility.yul\":6641:6718   */\n      0x4e487b7100000000000000000000000000000000000000000000000000000000\n        /* \"#utility.yul\":6638:6639   */\n      0x00\n        /* \"#utility.yul\":6631:6719   */\n      mstore\n        /* \"#utility.yul\":6738:6742   */\n      0x11\n        /* \"#utility.yul\":6735:6736   */\n      0x04\n        /* \"#utility.yul\":6728:6743   */\n      mstore\n        /* \"#utility.yul\":6762:6766   */\n      0x24\n        /* \"#utility.yul\":6759:6760   */\n      0x00\n        /* \"#utility.yul\":6752:6767   */\n      revert\n        /* \"#utility.yul\":6779:6970   */\n    tag_57:\n        /* \"#utility.yul\":6819:6822   */\n      0x00\n        /* \"#utility.yul\":6838:6858   */\n      tag_199\n        /* \"#utility.yul\":6856:6857   */\n      dup3\n        /* \"#utility.yul\":6838:6858   */\n      tag_99\n      jump\t// in\n    tag_199:\n        /* \"#utility.yul\":6833:6858   */\n      swap2\n      pop\n        /* \"#utility.yul\":6872:6892   */\n      tag_200\n        /* \"#utility.yul\":6890:6891   */\n      dup4\n        /* \"#utility.yul\":6872:6892   */\n      tag_99\n      jump\t// in\n    tag_200:\n        /* \"#utility.yul\":6867:6892   */\n      swap3\n      pop\n        /* \"#utility.yul\":6915:6916   */\n      dup3\n        /* \"#utility.yul\":6912:6913   */\n      dup3\n        /* \"#utility.yul\":6908:6917   */\n      add\n        /* \"#utility.yul\":6901:6917   */\n      swap1\n      pop\n        /* \"#utility.yul\":6936:6939   */\n      dup1\n        /* \"#utility.yul\":6933:6934   */\n      dup3\n        /* \"#utility.yul\":6930:6940   */\n      gt\n        /* \"#utility.yul\":6927:6963   */\n      iszero\n      tag_201\n      jumpi\n        /* \"#utility.yul\":6943:6961   */\n      tag_202\n      tag_119\n      jump\t// in\n    tag_202:\n        /* \"#utility.yul\":6927:6963   */\n    tag_201:\n        /* \"#utility.yul\":6779:6970   */\n      swap3\n      swap2\n      pop\n      pop\n      jump\t// out\n        /* \"#utility.yul\":6976:7308   */\n    tag_62:\n        /* \"#utility.yul\":7097:7101   */\n      0x00\n        /* \"#utility.yul\":7135:7137   */\n      0x40\n        /* \"#utility.yul\":7124:7133   */\n      dup3\n        /* \"#utility.yul\":7120:7138   */\n      add\n        /* \"#utility.yul\":7112:7138   */\n      swap1\n      pop\n        /* \"#utility.yul\":7148:7219   */\n      tag_204\n        /* \"#utility.yul\":7216:7217   */\n      0x00\n        /* \"#utility.yul\":7205:7214   */\n      dup4\n        /* \"#utility.yul\":7201:7218   */\n      add\n        /* \"#utility.yul\":7192:7198   */\n      dup6\n        /* \"#utility.yul\":7148:7219   */\n      tag_105\n      jump\t// in\n    tag_204:\n        /* \"#utility.yul\":7229:7301   */\n      tag_205\n        /* \"#utility.yul\":7297:7299   */\n      0x20\n        /* \"#utility.yul\":7286:7295   */\n      dup4\n        /* \"#utility.yul\":7282:7300   */\n      add\n        /* \"#utility.yul\":7273:7279   */\n      dup5\n        /* \"#utility.yul\":7229:7301   */\n      tag_102\n      jump\t// in\n    tag_205:\n        /* \"#utility.yul\":6976:7308   */\n      swap4\n      swap3\n      pop\n      pop\n      pop\n      jump\t// out\n        /* \"#utility.yul\":7314:7724   */\n    tag_75:\n        /* \"#utility.yul\":7354:7361   */\n      0x00\n        /* \"#utility.yul\":7377:7397   */\n      tag_207\n        /* \"#utility.yul\":7395:7396   */\n      dup3\n        /* \"#utility.yul\":7377:7397   */\n      tag_99\n      jump\t// in\n    tag_207:\n        /* \"#utility.yul\":7372:7397   */\n      swap2\n      pop\n        /* \"#utility.yul\":7411:7431   */\n      tag_208\n        /* \"#utility.yul\":7429:7430   */\n      dup4\n        /* \"#utility.yul\":7411:7431   */\n      tag_99\n      jump\t// in\n    tag_208:\n        /* \"#utility.yul\":7406:7431   */\n      swap3\n      pop\n        /* \"#utility.yul\":7466:7467   */\n      dup3\n        /* \"#utility.yul\":7463:7464   */\n      dup3\n        /* \"#utility.yul\":7459:7468   */\n      mul\n        /* \"#utility.yul\":7488:7518   */\n      tag_209\n        /* \"#utility.yul\":7506:7517   */\n      dup2\n        /* \"#utility.yul\":7488:7518   */\n      tag_99\n      jump\t// in\n    tag_209:\n        /* \"#utility.yul\":7477:7518   */\n      swap2\n      pop\n        /* \"#utility.yul\":7667:7668   */\n      dup3\n        /* \"#utility.yul\":7658:7665   */\n      dup3\n        /* \"#utility.yul\":7654:7669   */\n      div\n        /* \"#utility.yul\":7651:7652   */\n      dup5\n        /* \"#utility.yul\":7648:7670   */\n      eq\n        /* \"#utility.yul\":7628:7629   */\n      dup4\n        /* \"#utility.yul\":7621:7630   */\n      iszero\n        /* \"#utility.yul\":7601:7684   */\n      or\n        /* \"#utility.yul\":7578:7717   */\n      tag_210\n      jumpi\n        /* \"#utility.yul\":7697:7715   */\n      tag_211\n      tag_119\n      jump\t// in\n    tag_211:\n        /* \"#utility.yul\":7578:7717   */\n    tag_210:\n        /* \"#utility.yul\":7362:7724   */\n      pop\n        /* \"#utility.yul\":7314:7724   */\n      swap3\n      swap2\n      pop\n      pop\n      jump\t// out\n        /* \"#utility.yul\":7730:8062   */\n    tag_77:\n        /* \"#utility.yul\":7851:7855   */\n      0x00\n        /* \"#utility.yul\":7889:7891   */\n      0x40\n        /* \"#utility.yul\":7878:7887   */\n      dup3\n        /* \"#utility.yul\":7874:7892   */\n      add\n        /* \"#utility.yul\":7866:7892   */\n      swap1\n      pop\n        /* \"#utility.yul\":7902:7973   */\n      tag_213\n        /* \"#utility.yul\":7970:7971   */\n      0x00\n        /* \"#utility.yul\":7959:7968   */\n      dup4\n        /* \"#utility.yul\":7955:7972   */\n      add\n        /* \"#utility.yul\":7946:7952   */\n      dup6\n        /* \"#utility.yul\":7902:7973   */\n      tag_102\n      jump\t// in\n    tag_213:\n        /* \"#utility.yul\":7983:8055   */\n      tag_214\n        /* \"#utility.yul\":8051:8053   */\n      0x20\n        /* \"#utility.yul\":8040:8049   */\n      dup4\n        /* \"#utility.yul\":8036:8054   */\n      add\n        /* \"#utility.yul\":8027:8033   */\n      dup5\n        /* \"#utility.yul\":7983:8055   */\n      tag_102\n      jump\t// in\n    tag_214:\n        /* \"#utility.yul\":7730:8062   */\n      swap4\n      swap3\n      pop\n      pop\n      pop\n      jump\t// out\n        /* \"#utility.yul\":8068:8248   */\n    tag_120:\n        /* \"#utility.yul\":8116:8193   */\n      0x4e487b7100000000000000000000000000000000000000000000000000000000\n        /* \"#utility.yul\":8113:8114   */\n      0x00\n        /* \"#utility.yul\":8106:8194   */\n      mstore\n        /* \"#utility.yul\":8213:8217   */\n      0x12\n        /* \"#utility.yul\":8210:8211   */\n      0x04\n        /* \"#utility.yul\":8203:8218   */\n      mstore\n        /* \"#utility.yul\":8237:8241   */\n      0x24\n        /* \"#utility.yul\":8234:8235   */\n      0x00\n        /* \"#utility.yul\":8227:8242   */\n      revert\n        /* \"#utility.yul\":8254:8439   */\n    tag_92:\n        /* \"#utility.yul\":8294:8295   */\n      0x00\n        /* \"#utility.yul\":8311:8331   */\n      tag_217\n        /* \"#utility.yul\":8329:8330   */\n      dup3\n        /* \"#utility.yul\":8311:8331   */\n      tag_99\n      jump\t// in\n    tag_217:\n        /* \"#utility.yul\":8306:8331   */\n      swap2\n      pop\n        /* \"#utility.yul\":8345:8365   */\n      tag_218\n        /* \"#utility.yul\":8363:8364   */\n      dup4\n        /* \"#utility.yul\":8345:8365   */\n      tag_99\n      jump\t// in\n    tag_218:\n        /* \"#utility.yul\":8340:8365   */\n      swap3\n      pop\n        /* \"#utility.yul\":8384:8385   */\n      dup3\n        /* \"#utility.yul\":8374:8409   */\n      tag_219\n      jumpi\n        /* \"#utility.yul\":8389:8407   */\n      tag_220\n      tag_120\n      jump\t// in\n    tag_220:\n        /* \"#utility.yul\":8374:8409   */\n    tag_219:\n        /* \"#utility.yul\":8431:8432   */\n      dup3\n        /* \"#utility.yul\":8428:8429   */\n      dup3\n        /* \"#utility.yul\":8424:8433   */\n      div\n        /* \"#utility.yul\":8419:8433   */\n      swap1\n      pop\n        /* \"#utility.yul\":8254:8439   */\n      swap3\n      swap2\n      pop\n      pop\n      jump\t// out\n\n    auxdata: 0xa2646970667358221220c585afa8d2e633c3ae3089588eb5a51e7ab3b0b0d1b834390f54e02bc9923c9564736f6c634300081a0033\n}\n",
				"bytecode": {
					"linkReferences": {},
					"object": "60a0604052348015600e575f80fd5b505f73d9145cce52d386f254917e481eb44e9943f3913890508073ffffffffffffffffffffffffffffffffffffffff1660808173ffffffffffffffffffffffffffffffffffffffff1681525050335f806101000a81548173ffffffffffffffffffffffffffffffffffffffff021916908373ffffffffffffffffffffffffffffffffffffffff16021790555050608051610f2c6100cf5f395f81816101f00152818161040d015281816105460152818161088a015261097c0152610f2c5ff3fe608060405234801561000f575f80fd5b506004361061007b575f3560e01c80638da5cb5b116100595780638da5cb5b146100d6578063a23c44b1146100f4578063b88a802f14610125578063fc0c546a146101435761007b565b8063141833dc1461007f57806373cf575a1461009b5780637b0472f0146100a5575b5f80fd5b61009960048036038101906100949190610ac4565b610161565b005b6100a36102dd565b005b6100bf60048036038101906100ba9190610aef565b6104fa565b6040516100cd929190610b7b565b60405180910390f35b6100de6106f4565b6040516100eb9190610ba2565b60405180910390f35b61010e60048036038101906101099190610be5565b610717565b60405161011c929190610b7b565b60405180910390f35b61012d6107aa565b60405161013a9190610c10565b60405180910390f35b61014b61097a565b6040516101589190610c84565b60405180910390f35b5f8054906101000a900473ffffffffffffffffffffffffffffffffffffffff1673ffffffffffffffffffffffffffffffffffffffff163373ffffffffffffffffffffffffffffffffffffffff16146101ee576040517f08c379a00000000000000000000000000000000000000000000000000000000081526004016101e590610cf7565b60405180910390fd5b7f000000000000000000000000000000000000000000000000000000000000000073ffffffffffffffffffffffffffffffffffffffff166323b872dd3330846040518463ffffffff1660e01b815260040161024b93929190610d15565b6020604051808303815f875af1158015610267573d5f803e3d5ffd5b505050506040513d601f19601f8201168201806040525081019061028b9190610d7f565b503373ffffffffffffffffffffffffffffffffffffffff167fc286f3b83e4f244dafdd6f12a30c1792eb5c99ba0ee6cb1181aaf6eac30286e8826040516102d29190610c10565b60405180910390a250565b5f60015f3373ffffffffffffffffffffffffffffffffffffffff1673ffffffffffffffffffffffffffffffffffffffff1681526020019081526020015f2090505f815f015403610359576040517f59be8f0200000000000000000000000000000000000000000000000000000000815260040160405180910390fd5b5f6103633361099e565b90505f81835f01546103759190610dd7565b90508260020154836001015461038b9190610dd7565b4210801561039857505f82115b156103a457825f015490505b60015f3373ffffffffffffffffffffffffffffffffffffffff1673ffffffffffffffffffffffffffffffffffffffff1681526020019081526020015f205f8082015f9055600182015f9055600282015f9055600382015f6101000a81549060ff021916905550507f000000000000000000000000000000000000000000000000000000000000000073ffffffffffffffffffffffffffffffffffffffff1663a9059cbb33836040518363ffffffff1660e01b8152600401610466929190610e0a565b6020604051808303815f875af1158015610482573d5f803e3d5ffd5b505050506040513d601f19601f820116820180604052508101906104a69190610d7f565b503373ffffffffffffffffffffffffffffffffffffffff167f0f5bb82176feb1b5e747e28471aa92156a04d9f3ab9f45f28e2d704232b93f75826040516104ed9190610c10565b60405180910390a2505050565b5f805f80600185108061050d5750600385115b15610544576040517f7616640100000000000000000000000000000000000000000000000000000000815260040160405180910390fd5b7f000000000000000000000000000000000000000000000000000000000000000073ffffffffffffffffffffffffffffffffffffffff166323b872dd3330896040518463ffffffff1660e01b81526004016105a193929190610d15565b6020604051808303815f875af11580156105bd573d5f803e3d5ffd5b505050506040513d601f19601f820116820180604052508101906105e19190610d7f565b5060405180608001604052808781526020014281526020016301e13380876106099190610e31565b81526020015f151581525060015f3373ffffffffffffffffffffffffffffffffffffffff1673ffffffffffffffffffffffffffffffffffffffff1681526020019081526020015f205f820151815f015560208201518160010155604082015181600201556060820151816003015f6101000a81548160ff0219169083151502179055509050503373ffffffffffffffffffffffffffffffffffffffff167f1449c6dd7851abc30abf37f57715f492010519147cc2652fbc38202c18a6ee9087876040516106d7929190610e72565b60405180910390a285915033905081819350935050509250929050565b5f8054906101000a900473ffffffffffffffffffffffffffffffffffffffff1681565b5f805f60015f8573ffffffffffffffffffffffffffffffffffffffff1673ffffffffffffffffffffffffffffffffffffffff1681526020019081526020015f206040518060800160405290815f82015481526020016001820154815260200160028201548152602001600382015f9054906101000a900460ff1615151515815250509050805f0151849250925050915091565b5f8060015f3373ffffffffffffffffffffffffffffffffffffffff1673ffffffffffffffffffffffffffffffffffffffff1681526020019081526020015f2090505f815f015403610827576040517f59be8f0200000000000000000000000000000000000000000000000000000000815260040160405180910390fd5b5f6108313361099e565b90505f810361086c576040517fa5a3111c00000000000000000000000000000000000000000000000000000000815260040160405180910390fd5b6001826003015f6101000a81548160ff0219169083151502179055507f000000000000000000000000000000000000000000000000000000000000000073ffffffffffffffffffffffffffffffffffffffff1663a9059cbb33836040518363ffffffff1660e01b81526004016108e3929190610e0a565b6020604051808303815f875af11580156108ff573d5f803e3d5ffd5b505050506040513d601f19601f820116820180604052508101906109239190610d7f565b503373ffffffffffffffffffffffffffffffffffffffff167ffc30cddea38e2bf4d6ea7d3f9ed3b6ad7f176419f4963bd81318067a4aee73fe8260405161096a9190610c10565b60405180910390a2809250505090565b7f000000000000000000000000000000000000000000000000000000000000000081565b5f8060015f8473ffffffffffffffffffffffffffffffffffffffff1673ffffffffffffffffffffffffffffffffffffffff1681526020019081526020015f206040518060800160405290815f82015481526020016001820154815260200160028201548152602001600382015f9054906101000a900460ff161515151581525050905080604001518160200151610a359190610dd7565b421015610a45575f915050610a88565b5f60196301e133808360400151610a5c9190610ec6565b610a669190610e31565b9050606481835f0151610a799190610e31565b610a839190610ec6565b925050505b919050565b5f80fd5b5f819050919050565b610aa381610a91565b8114610aad575f80fd5b50565b5f81359050610abe81610a9a565b92915050565b5f60208284031215610ad957610ad8610a8d565b5b5f610ae684828501610ab0565b91505092915050565b5f8060408385031215610b0557610b04610a8d565b5b5f610b1285828601610ab0565b9250506020610b2385828601610ab0565b9150509250929050565b610b3681610a91565b82525050565b5f73ffffffffffffffffffffffffffffffffffffffff82169050919050565b5f610b6582610b3c565b9050919050565b610b7581610b5b565b82525050565b5f604082019050610b8e5f830185610b2d565b610b9b6020830184610b6c565b9392505050565b5f602082019050610bb55f830184610b6c565b92915050565b610bc481610b5b565b8114610bce575f80fd5b50565b5f81359050610bdf81610bbb565b92915050565b5f60208284031215610bfa57610bf9610a8d565b5b5f610c0784828501610bd1565b91505092915050565b5f602082019050610c235f830184610b2d565b92915050565b5f819050919050565b5f610c4c610c47610c4284610b3c565b610c29565b610b3c565b9050919050565b5f610c5d82610c32565b9050919050565b5f610c6e82610c53565b9050919050565b610c7e81610c64565b82525050565b5f602082019050610c975f830184610c75565b92915050565b5f82825260208201905092915050565b7f4e6f74206f776e657200000000000000000000000000000000000000000000005f82015250565b5f610ce1600983610c9d565b9150610cec82610cad565b602082019050919050565b5f6020820190508181035f830152610d0e81610cd5565b9050919050565b5f606082019050610d285f830186610b6c565b610d356020830185610b6c565b610d426040830184610b2d565b949350505050565b5f8115159050919050565b610d5e81610d4a565b8114610d68575f80fd5b50565b5f81519050610d7981610d55565b92915050565b5f60208284031215610d9457610d93610a8d565b5b5f610da184828501610d6b565b91505092915050565b7f4e487b71000000000000000000000000000000000000000000000000000000005f52601160045260245ffd5b5f610de182610a91565b9150610dec83610a91565b9250828201905080821115610e0457610e03610daa565b5b92915050565b5f604082019050610e1d5f830185610b6c565b610e2a6020830184610b2d565b9392505050565b5f610e3b82610a91565b9150610e4683610a91565b9250828202610e5481610a91565b91508282048414831517610e6b57610e6a610daa565b5b5092915050565b5f604082019050610e855f830185610b2d565b610e926020830184610b2d565b9392505050565b7f4e487b71000000000000000000000000000000000000000000000000000000005f52601260045260245ffd5b5f610ed082610a91565b9150610edb83610a91565b925082610eeb57610eea610e99565b5b82820490509291505056fea2646970667358221220c585afa8d2e633c3ae3089588eb5a51e7ab3b0b0d1b834390f54e02bc9923c9564736f6c634300081a0033",
					"opcodes": "PUSH1 0xA0 PUSH1 0x40 MSTORE CALLVALUE DUP1 ISZERO PUSH1 0xE JUMPI PUSH0 DUP1 REVERT JUMPDEST POP PUSH0 PUSH20 0xD9145CCE52D386F254917E481EB44E9943F39138 SWAP1 POP DUP1 PUSH20 0xFFFFFFFFFFFFFFFFFFFFFFFFFFFFFFFFFFFFFFFF AND PUSH1 0x80 DUP2 PUSH20 0xFFFFFFFFFFFFFFFFFFFFFFFFFFFFFFFFFFFFFFFF AND DUP2 MSTORE POP POP CALLER PUSH0 DUP1 PUSH2 0x100 EXP DUP2 SLOAD DUP2 PUSH20 0xFFFFFFFFFFFFFFFFFFFFFFFFFFFFFFFFFFFFFFFF MUL NOT AND SWAP1 DUP4 PUSH20 0xFFFFFFFFFFFFFFFFFFFFFFFFFFFFFFFFFFFFFFFF AND MUL OR SWAP1 SSTORE POP POP PUSH1 0x80 MLOAD PUSH2 0xF2C PUSH2 0xCF PUSH0 CODECOPY PUSH0 DUP2 DUP2 PUSH2 0x1F0 ADD MSTORE DUP2 DUP2 PUSH2 0x40D ADD MSTORE DUP2 DUP2 PUSH2 0x546 ADD MSTORE DUP2 DUP2 PUSH2 0x88A ADD MSTORE PUSH2 0x97C ADD MSTORE PUSH2 0xF2C PUSH0 RETURN INVALID PUSH1 0x80 PUSH1 0x40 MSTORE CALLVALUE DUP1 ISZERO PUSH2 0xF JUMPI PUSH0 DUP1 REVERT JUMPDEST POP PUSH1 0x4 CALLDATASIZE LT PUSH2 0x7B JUMPI PUSH0 CALLDATALOAD PUSH1 0xE0 SHR DUP1 PUSH4 0x8DA5CB5B GT PUSH2 0x59 JUMPI DUP1 PUSH4 0x8DA5CB5B EQ PUSH2 0xD6 JUMPI DUP1 PUSH4 0xA23C44B1 EQ PUSH2 0xF4 JUMPI DUP1 PUSH4 0xB88A802F EQ PUSH2 0x125 JUMPI DUP1 PUSH4 0xFC0C546A EQ PUSH2 0x143 JUMPI PUSH2 0x7B JUMP JUMPDEST DUP1 PUSH4 0x141833DC EQ PUSH2 0x7F JUMPI DUP1 PUSH4 0x73CF575A EQ PUSH2 0x9B JUMPI DUP1 PUSH4 0x7B0472F0 EQ PUSH2 0xA5 JUMPI JUMPDEST PUSH0 DUP1 REVERT JUMPDEST PUSH2 0x99 PUSH1 0x4 DUP1 CALLDATASIZE SUB DUP2 ADD SWAP1 PUSH2 0x94 SWAP2 SWAP1 PUSH2 0xAC4 JUMP JUMPDEST PUSH2 0x161 JUMP JUMPDEST STOP JUMPDEST PUSH2 0xA3 PUSH2 0x2DD JUMP JUMPDEST STOP JUMPDEST PUSH2 0xBF PUSH1 0x4 DUP1 CALLDATASIZE SUB DUP2 ADD SWAP1 PUSH2 0xBA SWAP2 SWAP1 PUSH2 0xAEF JUMP JUMPDEST PUSH2 0x4FA JUMP JUMPDEST PUSH1 0x40 MLOAD PUSH2 0xCD SWAP3 SWAP2 SWAP1 PUSH2 0xB7B JUMP JUMPDEST PUSH1 0x40 MLOAD DUP1 SWAP2 SUB SWAP1 RETURN JUMPDEST PUSH2 0xDE PUSH2 0x6F4 JUMP JUMPDEST PUSH1 0x40 MLOAD PUSH2 0xEB SWAP2 SWAP1 PUSH2 0xBA2 JUMP JUMPDEST PUSH1 0x40 MLOAD DUP1 SWAP2 SUB SWAP1 RETURN JUMPDEST PUSH2 0x10E PUSH1 0x4 DUP1 CALLDATASIZE SUB DUP2 ADD SWAP1 PUSH2 0x109 SWAP2 SWAP1 PUSH2 0xBE5 JUMP JUMPDEST PUSH2 0x717 JUMP JUMPDEST PUSH1 0x40 MLOAD PUSH2 0x11C SWAP3 SWAP2 SWAP1 PUSH2 0xB7B JUMP JUMPDEST PUSH1 0x40 MLOAD DUP1 SWAP2 SUB SWAP1 RETURN JUMPDEST PUSH2 0x12D PUSH2 0x7AA JUMP JUMPDEST PUSH1 0x40 MLOAD PUSH2 0x13A SWAP2 SWAP1 PUSH2 0xC10 JUMP JUMPDEST PUSH1 0x40 MLOAD DUP1 SWAP2 SUB SWAP1 RETURN JUMPDEST PUSH2 0x14B PUSH2 0x97A JUMP JUMPDEST PUSH1 0x40 MLOAD PUSH2 0x158 SWAP2 SWAP1 PUSH2 0xC84 JUMP JUMPDEST PUSH1 0x40 MLOAD DUP1 SWAP2 SUB SWAP1 RETURN JUMPDEST PUSH0 DUP1 SLOAD SWAP1 PUSH2 0x100 EXP SWAP1 DIV PUSH20 0xFFFFFFFFFFFFFFFFFFFFFFFFFFFFFFFFFFFFFFFF AND PUSH20 0xFFFFFFFFFFFFFFFFFFFFFFFFFFFFFFFFFFFFFFFF AND CALLER PUSH20 0xFFFFFFFFFFFFFFFFFFFFFFFFFFFFFFFFFFFFFFFF AND EQ PUSH2 0x1EE JUMPI PUSH1 0x40 MLOAD PUSH32 0x8C379A000000000000000000000000000000000000000000000000000000000 DUP2 MSTORE PUSH1 0x4 ADD PUSH2 0x1E5 SWAP1 PUSH2 0xCF7 JUMP JUMPDEST PUSH1 0x40 MLOAD DUP1 SWAP2 SUB SWAP1 REVERT JUMPDEST PUSH32 0x0 PUSH20 0xFFFFFFFFFFFFFFFFFFFFFFFFFFFFFFFFFFFFFFFF AND PUSH4 0x23B872DD CALLER ADDRESS DUP5 PUSH1 0x40 MLOAD DUP5 PUSH4 0xFFFFFFFF AND PUSH1 0xE0 SHL DUP2 MSTORE PUSH1 0x4 ADD PUSH2 0x24B SWAP4 SWAP3 SWAP2 SWAP1 PUSH2 0xD15 JUMP JUMPDEST PUSH1 0x20 PUSH1 0x40 MLOAD DUP1 DUP4 SUB DUP2 PUSH0 DUP8 GAS CALL ISZERO DUP1 ISZERO PUSH2 0x267 JUMPI RETURNDATASIZE PUSH0 DUP1 RETURNDATACOPY RETURNDATASIZE PUSH0 REVERT JUMPDEST POP POP POP POP PUSH1 0x40 MLOAD RETURNDATASIZE PUSH1 0x1F NOT PUSH1 0x1F DUP3 ADD AND DUP3 ADD DUP1 PUSH1 0x40 MSTORE POP DUP2 ADD SWAP1 PUSH2 0x28B SWAP2 SWAP1 PUSH2 0xD7F JUMP JUMPDEST POP CALLER PUSH20 0xFFFFFFFFFFFFFFFFFFFFFFFFFFFFFFFFFFFFFFFF AND PUSH32 0xC286F3B83E4F244DAFDD6F12A30C1792EB5C99BA0EE6CB1181AAF6EAC30286E8 DUP3 PUSH1 0x40 MLOAD PUSH2 0x2D2 SWAP2 SWAP1 PUSH2 0xC10 JUMP JUMPDEST PUSH1 0x40 MLOAD DUP1 SWAP2 SUB SWAP1 LOG2 POP JUMP JUMPDEST PUSH0 PUSH1 0x1 PUSH0 CALLER PUSH20 0xFFFFFFFFFFFFFFFFFFFFFFFFFFFFFFFFFFFFFFFF AND PUSH20 0xFFFFFFFFFFFFFFFFFFFFFFFFFFFFFFFFFFFFFFFF AND DUP2 MSTORE PUSH1 0x20 ADD SWAP1 DUP2 MSTORE PUSH1 0x20 ADD PUSH0 KECCAK256 SWAP1 POP PUSH0 DUP2 PUSH0 ADD SLOAD SUB PUSH2 0x359 JUMPI PUSH1 0x40 MLOAD PUSH32 0x59BE8F0200000000000000000000000000000000000000000000000000000000 DUP2 MSTORE PUSH1 0x4 ADD PUSH1 0x40 MLOAD DUP1 SWAP2 SUB SWAP1 REVERT JUMPDEST PUSH0 PUSH2 0x363 CALLER PUSH2 0x99E JUMP JUMPDEST SWAP1 POP PUSH0 DUP2 DUP4 PUSH0 ADD SLOAD PUSH2 0x375 SWAP2 SWAP1 PUSH2 0xDD7 JUMP JUMPDEST SWAP1 POP DUP3 PUSH1 0x2 ADD SLOAD DUP4 PUSH1 0x1 ADD SLOAD PUSH2 0x38B SWAP2 SWAP1 PUSH2 0xDD7 JUMP JUMPDEST TIMESTAMP LT DUP1 ISZERO PUSH2 0x398 JUMPI POP PUSH0 DUP3 GT JUMPDEST ISZERO PUSH2 0x3A4 JUMPI DUP3 PUSH0 ADD SLOAD SWAP1 POP JUMPDEST PUSH1 0x1 PUSH0 CALLER PUSH20 0xFFFFFFFFFFFFFFFFFFFFFFFFFFFFFFFFFFFFFFFF AND PUSH20 0xFFFFFFFFFFFFFFFFFFFFFFFFFFFFFFFFFFFFFFFF AND DUP2 MSTORE PUSH1 0x20 ADD SWAP1 DUP2 MSTORE PUSH1 0x20 ADD PUSH0 KECCAK256 PUSH0 DUP1 DUP3 ADD PUSH0 SWAP1 SSTORE PUSH1 0x1 DUP3 ADD PUSH0 SWAP1 SSTORE PUSH1 0x2 DUP3 ADD PUSH0 SWAP1 SSTORE PUSH1 0x3 DUP3 ADD PUSH0 PUSH2 0x100 EXP DUP2 SLOAD SWAP1 PUSH1 0xFF MUL NOT AND SWAP1 SSTORE POP POP PUSH32 0x0 PUSH20 0xFFFFFFFFFFFFFFFFFFFFFFFFFFFFFFFFFFFFFFFF AND PUSH4 0xA9059CBB CALLER DUP4 PUSH1 0x40 MLOAD DUP4 PUSH4 0xFFFFFFFF AND PUSH1 0xE0 SHL DUP2 MSTORE PUSH1 0x4 ADD PUSH2 0x466 SWAP3 SWAP2 SWAP1 PUSH2 0xE0A JUMP JUMPDEST PUSH1 0x20 PUSH1 0x40 MLOAD DUP1 DUP4 SUB DUP2 PUSH0 DUP8 GAS CALL ISZERO DUP1 ISZERO PUSH2 0x482 JUMPI RETURNDATASIZE PUSH0 DUP1 RETURNDATACOPY RETURNDATASIZE PUSH0 REVERT JUMPDEST POP POP POP POP PUSH1 0x40 MLOAD RETURNDATASIZE PUSH1 0x1F NOT PUSH1 0x1F DUP3 ADD AND DUP3 ADD DUP1 PUSH1 0x40 MSTORE POP DUP2 ADD SWAP1 PUSH2 0x4A6 SWAP2 SWAP1 PUSH2 0xD7F JUMP JUMPDEST POP CALLER PUSH20 0xFFFFFFFFFFFFFFFFFFFFFFFFFFFFFFFFFFFFFFFF AND PUSH32 0xF5BB82176FEB1B5E747E28471AA92156A04D9F3AB9F45F28E2D704232B93F75 DUP3 PUSH1 0x40 MLOAD PUSH2 0x4ED SWAP2 SWAP1 PUSH2 0xC10 JUMP JUMPDEST PUSH1 0x40 MLOAD DUP1 SWAP2 SUB SWAP1 LOG2 POP POP POP JUMP JUMPDEST PUSH0 DUP1 PUSH0 DUP1 PUSH1 0x1 DUP6 LT DUP1 PUSH2 0x50D JUMPI POP PUSH1 0x3 DUP6 GT JUMPDEST ISZERO PUSH2 0x544 JUMPI PUSH1 0x40 MLOAD PUSH32 0x7616640100000000000000000000000000000000000000000000000000000000 DUP2 MSTORE PUSH1 0x4 ADD PUSH1 0x40 MLOAD DUP1 SWAP2 SUB SWAP1 REVERT JUMPDEST PUSH32 0x0 PUSH20 0xFFFFFFFFFFFFFFFFFFFFFFFFFFFFFFFFFFFFFFFF AND PUSH4 0x23B872DD CALLER ADDRESS DUP10 PUSH1 0x40 MLOAD DUP5 PUSH4 0xFFFFFFFF AND PUSH1 0xE0 SHL DUP2 MSTORE PUSH1 0x4 ADD PUSH2 0x5A1 SWAP4 SWAP3 SWAP2 SWAP1 PUSH2 0xD15 JUMP JUMPDEST PUSH1 0x20 PUSH1 0x40 MLOAD DUP1 DUP4 SUB DUP2 PUSH0 DUP8 GAS CALL ISZERO DUP1 ISZERO PUSH2 0x5BD JUMPI RETURNDATASIZE PUSH0 DUP1 RETURNDATACOPY RETURNDATASIZE PUSH0 REVERT JUMPDEST POP POP POP POP PUSH1 0x40 MLOAD RETURNDATASIZE PUSH1 0x1F NOT PUSH1 0x1F DUP3 ADD AND DUP3 ADD DUP1 PUSH1 0x40 MSTORE POP DUP2 ADD SWAP1 PUSH2 0x5E1 SWAP2 SWAP1 PUSH2 0xD7F JUMP JUMPDEST POP PUSH1 0x40 MLOAD DUP1 PUSH1 0x80 ADD PUSH1 0x40 MSTORE DUP1 DUP8 DUP2 MSTORE PUSH1 0x20 ADD TIMESTAMP DUP2 MSTORE PUSH1 0x20 ADD PUSH4 0x1E13380 DUP8 PUSH2 0x609 SWAP2 SWAP1 PUSH2 0xE31 JUMP JUMPDEST DUP2 MSTORE PUSH1 0x20 ADD PUSH0 ISZERO ISZERO DUP2 MSTORE POP PUSH1 0x1 PUSH0 CALLER PUSH20 0xFFFFFFFFFFFFFFFFFFFFFFFFFFFFFFFFFFFFFFFF AND PUSH20 0xFFFFFFFFFFFFFFFFFFFFFFFFFFFFFFFFFFFFFFFF AND DUP2 MSTORE PUSH1 0x20 ADD SWAP1 DUP2 MSTORE PUSH1 0x20 ADD PUSH0 KECCAK256 PUSH0 DUP3 ADD MLOAD DUP2 PUSH0 ADD SSTORE PUSH1 0x20 DUP3 ADD MLOAD DUP2 PUSH1 0x1 ADD SSTORE PUSH1 0x40 DUP3 ADD MLOAD DUP2 PUSH1 0x2 ADD SSTORE PUSH1 0x60 DUP3 ADD MLOAD DUP2 PUSH1 0x3 ADD PUSH0 PUSH2 0x100 EXP DUP2 SLOAD DUP2 PUSH1 0xFF MUL NOT AND SWAP1 DUP4 ISZERO ISZERO MUL OR SWAP1 SSTORE POP SWAP1 POP POP CALLER PUSH20 0xFFFFFFFFFFFFFFFFFFFFFFFFFFFFFFFFFFFFFFFF AND PUSH32 0x1449C6DD7851ABC30ABF37F57715F492010519147CC2652FBC38202C18A6EE90 DUP8 DUP8 PUSH1 0x40 MLOAD PUSH2 0x6D7 SWAP3 SWAP2 SWAP1 PUSH2 0xE72 JUMP JUMPDEST PUSH1 0x40 MLOAD DUP1 SWAP2 SUB SWAP1 LOG2 DUP6 SWAP2 POP CALLER SWAP1 POP DUP2 DUP2 SWAP4 POP SWAP4 POP POP POP SWAP3 POP SWAP3 SWAP1 POP JUMP JUMPDEST PUSH0 DUP1 SLOAD SWAP1 PUSH2 0x100 EXP SWAP1 DIV PUSH20 0xFFFFFFFFFFFFFFFFFFFFFFFFFFFFFFFFFFFFFFFF AND DUP2 JUMP JUMPDEST PUSH0 DUP1 PUSH0 PUSH1 0x1 PUSH0 DUP6 PUSH20 0xFFFFFFFFFFFFFFFFFFFFFFFFFFFFFFFFFFFFFFFF AND PUSH20 0xFFFFFFFFFFFFFFFFFFFFFFFFFFFFFFFFFFFFFFFF AND DUP2 MSTORE PUSH1 0x20 ADD SWAP1 DUP2 MSTORE PUSH1 0x20 ADD PUSH0 KECCAK256 PUSH1 0x40 MLOAD DUP1 PUSH1 0x80 ADD PUSH1 0x40 MSTORE SWAP1 DUP2 PUSH0 DUP3 ADD SLOAD DUP2 MSTORE PUSH1 0x20 ADD PUSH1 0x1 DUP3 ADD SLOAD DUP2 MSTORE PUSH1 0x20 ADD PUSH1 0x2 DUP3 ADD SLOAD DUP2 MSTORE PUSH1 0x20 ADD PUSH1 0x3 DUP3 ADD PUSH0 SWAP1 SLOAD SWAP1 PUSH2 0x100 EXP SWAP1 DIV PUSH1 0xFF AND ISZERO ISZERO ISZERO ISZERO DUP2 MSTORE POP POP SWAP1 POP DUP1 PUSH0 ADD MLOAD DUP5 SWAP3 POP SWAP3 POP POP SWAP2 POP SWAP2 JUMP JUMPDEST PUSH0 DUP1 PUSH1 0x1 PUSH0 CALLER PUSH20 0xFFFFFFFFFFFFFFFFFFFFFFFFFFFFFFFFFFFFFFFF AND PUSH20 0xFFFFFFFFFFFFFFFFFFFFFFFFFFFFFFFFFFFFFFFF AND DUP2 MSTORE PUSH1 0x20 ADD SWAP1 DUP2 MSTORE PUSH1 0x20 ADD PUSH0 KECCAK256 SWAP1 POP PUSH0 DUP2 PUSH0 ADD SLOAD SUB PUSH2 0x827 JUMPI PUSH1 0x40 MLOAD PUSH32 0x59BE8F0200000000000000000000000000000000000000000000000000000000 DUP2 MSTORE PUSH1 0x4 ADD PUSH1 0x40 MLOAD DUP1 SWAP2 SUB SWAP1 REVERT JUMPDEST PUSH0 PUSH2 0x831 CALLER PUSH2 0x99E JUMP JUMPDEST SWAP1 POP PUSH0 DUP2 SUB PUSH2 0x86C JUMPI PUSH1 0x40 MLOAD PUSH32 0xA5A3111C00000000000000000000000000000000000000000000000000000000 DUP2 MSTORE PUSH1 0x4 ADD PUSH1 0x40 MLOAD DUP1 SWAP2 SUB SWAP1 REVERT JUMPDEST PUSH1 0x1 DUP3 PUSH1 0x3 ADD PUSH0 PUSH2 0x100 EXP DUP2 SLOAD DUP2 PUSH1 0xFF MUL NOT AND SWAP1 DUP4 ISZERO ISZERO MUL OR SWAP1 SSTORE POP PUSH32 0x0 PUSH20 0xFFFFFFFFFFFFFFFFFFFFFFFFFFFFFFFFFFFFFFFF AND PUSH4 0xA9059CBB CALLER DUP4 PUSH1 0x40 MLOAD DUP4 PUSH4 0xFFFFFFFF AND PUSH1 0xE0 SHL DUP2 MSTORE PUSH1 0x4 ADD PUSH2 0x8E3 SWAP3 SWAP2 SWAP1 PUSH2 0xE0A JUMP JUMPDEST PUSH1 0x20 PUSH1 0x40 MLOAD DUP1 DUP4 SUB DUP2 PUSH0 DUP8 GAS CALL ISZERO DUP1 ISZERO PUSH2 0x8FF JUMPI RETURNDATASIZE PUSH0 DUP1 RETURNDATACOPY RETURNDATASIZE PUSH0 REVERT JUMPDEST POP POP POP POP PUSH1 0x40 MLOAD RETURNDATASIZE PUSH1 0x1F NOT PUSH1 0x1F DUP3 ADD AND DUP3 ADD DUP1 PUSH1 0x40 MSTORE POP DUP2 ADD SWAP1 PUSH2 0x923 SWAP2 SWAP1 PUSH2 0xD7F JUMP JUMPDEST POP CALLER PUSH20 0xFFFFFFFFFFFFFFFFFFFFFFFFFFFFFFFFFFFFFFFF AND PUSH32 0xFC30CDDEA38E2BF4D6EA7D3F9ED3B6AD7F176419F4963BD81318067A4AEE73FE DUP3 PUSH1 0x40 MLOAD PUSH2 0x96A SWAP2 SWAP1 PUSH2 0xC10 JUMP JUMPDEST PUSH1 0x40 MLOAD DUP1 SWAP2 SUB SWAP1 LOG2 DUP1 SWAP3 POP POP POP SWAP1 JUMP JUMPDEST PUSH32 0x0 DUP2 JUMP JUMPDEST PUSH0 DUP1 PUSH1 0x1 PUSH0 DUP5 PUSH20 0xFFFFFFFFFFFFFFFFFFFFFFFFFFFFFFFFFFFFFFFF AND PUSH20 0xFFFFFFFFFFFFFFFFFFFFFFFFFFFFFFFFFFFFFFFF AND DUP2 MSTORE PUSH1 0x20 ADD SWAP1 DUP2 MSTORE PUSH1 0x20 ADD PUSH0 KECCAK256 PUSH1 0x40 MLOAD DUP1 PUSH1 0x80 ADD PUSH1 0x40 MSTORE SWAP1 DUP2 PUSH0 DUP3 ADD SLOAD DUP2 MSTORE PUSH1 0x20 ADD PUSH1 0x1 DUP3 ADD SLOAD DUP2 MSTORE PUSH1 0x20 ADD PUSH1 0x2 DUP3 ADD SLOAD DUP2 MSTORE PUSH1 0x20 ADD PUSH1 0x3 DUP3 ADD PUSH0 SWAP1 SLOAD SWAP1 PUSH2 0x100 EXP SWAP1 DIV PUSH1 0xFF AND ISZERO ISZERO ISZERO ISZERO DUP2 MSTORE POP POP SWAP1 POP DUP1 PUSH1 0x40 ADD MLOAD DUP2 PUSH1 0x20 ADD MLOAD PUSH2 0xA35 SWAP2 SWAP1 PUSH2 0xDD7 JUMP JUMPDEST TIMESTAMP LT ISZERO PUSH2 0xA45 JUMPI PUSH0 SWAP2 POP POP PUSH2 0xA88 JUMP JUMPDEST PUSH0 PUSH1 0x19 PUSH4 0x1E13380 DUP4 PUSH1 0x40 ADD MLOAD PUSH2 0xA5C SWAP2 SWAP1 PUSH2 0xEC6 JUMP JUMPDEST PUSH2 0xA66 SWAP2 SWAP1 PUSH2 0xE31 JUMP JUMPDEST SWAP1 POP PUSH1 0x64 DUP2 DUP4 PUSH0 ADD MLOAD PUSH2 0xA79 SWAP2 SWAP1 PUSH2 0xE31 JUMP JUMPDEST PUSH2 0xA83 SWAP2 SWAP1 PUSH2 0xEC6 JUMP JUMPDEST SWAP3 POP POP POP JUMPDEST SWAP2 SWAP1 POP JUMP JUMPDEST PUSH0 DUP1 REVERT JUMPDEST PUSH0 DUP2 SWAP1 POP SWAP2 SWAP1 POP JUMP JUMPDEST PUSH2 0xAA3 DUP2 PUSH2 0xA91 JUMP JUMPDEST DUP2 EQ PUSH2 0xAAD JUMPI PUSH0 DUP1 REVERT JUMPDEST POP JUMP JUMPDEST PUSH0 DUP2 CALLDATALOAD SWAP1 POP PUSH2 0xABE DUP2 PUSH2 0xA9A JUMP JUMPDEST SWAP3 SWAP2 POP POP JUMP JUMPDEST PUSH0 PUSH1 0x20 DUP3 DUP5 SUB SLT ISZERO PUSH2 0xAD9 JUMPI PUSH2 0xAD8 PUSH2 0xA8D JUMP JUMPDEST JUMPDEST PUSH0 PUSH2 0xAE6 DUP5 DUP3 DUP6 ADD PUSH2 0xAB0 JUMP JUMPDEST SWAP2 POP POP SWAP3 SWAP2 POP POP JUMP JUMPDEST PUSH0 DUP1 PUSH1 0x40 DUP4 DUP6 SUB SLT ISZERO PUSH2 0xB05 JUMPI PUSH2 0xB04 PUSH2 0xA8D JUMP JUMPDEST JUMPDEST PUSH0 PUSH2 0xB12 DUP6 DUP3 DUP7 ADD PUSH2 0xAB0 JUMP JUMPDEST SWAP3 POP POP PUSH1 0x20 PUSH2 0xB23 DUP6 DUP3 DUP7 ADD PUSH2 0xAB0 JUMP JUMPDEST SWAP2 POP POP SWAP3 POP SWAP3 SWAP1 POP JUMP JUMPDEST PUSH2 0xB36 DUP2 PUSH2 0xA91 JUMP JUMPDEST DUP3 MSTORE POP POP JUMP JUMPDEST PUSH0 PUSH20 0xFFFFFFFFFFFFFFFFFFFFFFFFFFFFFFFFFFFFFFFF DUP3 AND SWAP1 POP SWAP2 SWAP1 POP JUMP JUMPDEST PUSH0 PUSH2 0xB65 DUP3 PUSH2 0xB3C JUMP JUMPDEST SWAP1 POP SWAP2 SWAP1 POP JUMP JUMPDEST PUSH2 0xB75 DUP2 PUSH2 0xB5B JUMP JUMPDEST DUP3 MSTORE POP POP JUMP JUMPDEST PUSH0 PUSH1 0x40 DUP3 ADD SWAP1 POP PUSH2 0xB8E PUSH0 DUP4 ADD DUP6 PUSH2 0xB2D JUMP JUMPDEST PUSH2 0xB9B PUSH1 0x20 DUP4 ADD DUP5 PUSH2 0xB6C JUMP JUMPDEST SWAP4 SWAP3 POP POP POP JUMP JUMPDEST PUSH0 PUSH1 0x20 DUP3 ADD SWAP1 POP PUSH2 0xBB5 PUSH0 DUP4 ADD DUP5 PUSH2 0xB6C JUMP JUMPDEST SWAP3 SWAP2 POP POP JUMP JUMPDEST PUSH2 0xBC4 DUP2 PUSH2 0xB5B JUMP JUMPDEST DUP2 EQ PUSH2 0xBCE JUMPI PUSH0 DUP1 REVERT JUMPDEST POP JUMP JUMPDEST PUSH0 DUP2 CALLDATALOAD SWAP1 POP PUSH2 0xBDF DUP2 PUSH2 0xBBB JUMP JUMPDEST SWAP3 SWAP2 POP POP JUMP JUMPDEST PUSH0 PUSH1 0x20 DUP3 DUP5 SUB SLT ISZERO PUSH2 0xBFA JUMPI PUSH2 0xBF9 PUSH2 0xA8D JUMP JUMPDEST JUMPDEST PUSH0 PUSH2 0xC07 DUP5 DUP3 DUP6 ADD PUSH2 0xBD1 JUMP JUMPDEST SWAP2 POP POP SWAP3 SWAP2 POP POP JUMP JUMPDEST PUSH0 PUSH1 0x20 DUP3 ADD SWAP1 POP PUSH2 0xC23 PUSH0 DUP4 ADD DUP5 PUSH2 0xB2D JUMP JUMPDEST SWAP3 SWAP2 POP POP JUMP JUMPDEST PUSH0 DUP2 SWAP1 POP SWAP2 SWAP1 POP JUMP JUMPDEST PUSH0 PUSH2 0xC4C PUSH2 0xC47 PUSH2 0xC42 DUP5 PUSH2 0xB3C JUMP JUMPDEST PUSH2 0xC29 JUMP JUMPDEST PUSH2 0xB3C JUMP JUMPDEST SWAP1 POP SWAP2 SWAP1 POP JUMP JUMPDEST PUSH0 PUSH2 0xC5D DUP3 PUSH2 0xC32 JUMP JUMPDEST SWAP1 POP SWAP2 SWAP1 POP JUMP JUMPDEST PUSH0 PUSH2 0xC6E DUP3 PUSH2 0xC53 JUMP JUMPDEST SWAP1 POP SWAP2 SWAP1 POP JUMP JUMPDEST PUSH2 0xC7E DUP2 PUSH2 0xC64 JUMP JUMPDEST DUP3 MSTORE POP POP JUMP JUMPDEST PUSH0 PUSH1 0x20 DUP3 ADD SWAP1 POP PUSH2 0xC97 PUSH0 DUP4 ADD DUP5 PUSH2 0xC75 JUMP JUMPDEST SWAP3 SWAP2 POP POP JUMP JUMPDEST PUSH0 DUP3 DUP3 MSTORE PUSH1 0x20 DUP3 ADD SWAP1 POP SWAP3 SWAP2 POP POP JUMP JUMPDEST PUSH32 0x4E6F74206F776E65720000000000000000000000000000000000000000000000 PUSH0 DUP3 ADD MSTORE POP JUMP JUMPDEST PUSH0 PUSH2 0xCE1 PUSH1 0x9 DUP4 PUSH2 0xC9D JUMP JUMPDEST SWAP2 POP PUSH2 0xCEC DUP3 PUSH2 0xCAD JUMP JUMPDEST PUSH1 0x20 DUP3 ADD SWAP1 POP SWAP2 SWAP1 POP JUMP JUMPDEST PUSH0 PUSH1 0x20 DUP3 ADD SWAP1 POP DUP2 DUP2 SUB PUSH0 DUP4 ADD MSTORE PUSH2 0xD0E DUP2 PUSH2 0xCD5 JUMP JUMPDEST SWAP1 POP SWAP2 SWAP1 POP JUMP JUMPDEST PUSH0 PUSH1 0x60 DUP3 ADD SWAP1 POP PUSH2 0xD28 PUSH0 DUP4 ADD DUP7 PUSH2 0xB6C JUMP JUMPDEST PUSH2 0xD35 PUSH1 0x20 DUP4 ADD DUP6 PUSH2 0xB6C JUMP JUMPDEST PUSH2 0xD42 PUSH1 0x40 DUP4 ADD DUP5 PUSH2 0xB2D JUMP JUMPDEST SWAP5 SWAP4 POP POP POP POP JUMP JUMPDEST PUSH0 DUP2 ISZERO ISZERO SWAP1 POP SWAP2 SWAP1 POP JUMP JUMPDEST PUSH2 0xD5E DUP2 PUSH2 0xD4A JUMP JUMPDEST DUP2 EQ PUSH2 0xD68 JUMPI PUSH0 DUP1 REVERT JUMPDEST POP JUMP JUMPDEST PUSH0 DUP2 MLOAD SWAP1 POP PUSH2 0xD79 DUP2 PUSH2 0xD55 JUMP JUMPDEST SWAP3 SWAP2 POP POP JUMP JUMPDEST PUSH0 PUSH1 0x20 DUP3 DUP5 SUB SLT ISZERO PUSH2 0xD94 JUMPI PUSH2 0xD93 PUSH2 0xA8D JUMP JUMPDEST JUMPDEST PUSH0 PUSH2 0xDA1 DUP5 DUP3 DUP6 ADD PUSH2 0xD6B JUMP JUMPDEST SWAP2 POP POP SWAP3 SWAP2 POP POP JUMP JUMPDEST PUSH32 0x4E487B7100000000000000000000000000000000000000000000000000000000 PUSH0 MSTORE PUSH1 0x11 PUSH1 0x4 MSTORE PUSH1 0x24 PUSH0 REVERT JUMPDEST PUSH0 PUSH2 0xDE1 DUP3 PUSH2 0xA91 JUMP JUMPDEST SWAP2 POP PUSH2 0xDEC DUP4 PUSH2 0xA91 JUMP JUMPDEST SWAP3 POP DUP3 DUP3 ADD SWAP1 POP DUP1 DUP3 GT ISZERO PUSH2 0xE04 JUMPI PUSH2 0xE03 PUSH2 0xDAA JUMP JUMPDEST JUMPDEST SWAP3 SWAP2 POP POP JUMP JUMPDEST PUSH0 PUSH1 0x40 DUP3 ADD SWAP1 POP PUSH2 0xE1D PUSH0 DUP4 ADD DUP6 PUSH2 0xB6C JUMP JUMPDEST PUSH2 0xE2A PUSH1 0x20 DUP4 ADD DUP5 PUSH2 0xB2D JUMP JUMPDEST SWAP4 SWAP3 POP POP POP JUMP JUMPDEST PUSH0 PUSH2 0xE3B DUP3 PUSH2 0xA91 JUMP JUMPDEST SWAP2 POP PUSH2 0xE46 DUP4 PUSH2 0xA91 JUMP JUMPDEST SWAP3 POP DUP3 DUP3 MUL PUSH2 0xE54 DUP2 PUSH2 0xA91 JUMP JUMPDEST SWAP2 POP DUP3 DUP3 DIV DUP5 EQ DUP4 ISZERO OR PUSH2 0xE6B JUMPI PUSH2 0xE6A PUSH2 0xDAA JUMP JUMPDEST JUMPDEST POP SWAP3 SWAP2 POP POP JUMP JUMPDEST PUSH0 PUSH1 0x40 DUP3 ADD SWAP1 POP PUSH2 0xE85 PUSH0 DUP4 ADD DUP6 PUSH2 0xB2D JUMP JUMPDEST PUSH2 0xE92 PUSH1 0x20 DUP4 ADD DUP5 PUSH2 0xB2D JUMP JUMPDEST SWAP4 SWAP3 POP POP POP JUMP JUMPDEST PUSH32 0x4E487B7100000000000000000000000000000000000000000000000000000000 PUSH0 MSTORE PUSH1 0x12 PUSH1 0x4 MSTORE PUSH1 0x24 PUSH0 REVERT JUMPDEST PUSH0 PUSH2 0xED0 DUP3 PUSH2 0xA91 JUMP JUMPDEST SWAP2 POP PUSH2 0xEDB DUP4 PUSH2 0xA91 JUMP JUMPDEST SWAP3 POP DUP3 PUSH2 0xEEB JUMPI PUSH2 0xEEA PUSH2 0xE99 JUMP JUMPDEST JUMPDEST DUP3 DUP3 DIV SWAP1 POP SWAP3 SWAP2 POP POP JUMP INVALID LOG2 PUSH5 0x6970667358 0x22 SLT KECCAK256 0xC5 DUP6 0xAF 0xA8 0xD2 0xE6 CALLER 0xC3 0xAE ADDRESS DUP10 PC DUP15 0xB5 0xA5 0x1E PUSH27 0xB3B0B0D1B834390F54E02BC9923C9564736F6C634300081A003300 "
				},
				"gasEstimates": {
					"creation": {
						"codeDepositCost": "776800",
						"executionCost": "infinite",
						"totalCost": "infinite"
					},
					"external": {
						"claimReward()": "infinite",
						"getStaker(address)": "infinite",
						"owner()": "2505",
						"ownerDeposit(uint256)": "infinite",
						"stake(uint256,uint256)": "infinite",
						"token()": "infinite",
						"unStake()": "infinite"
					},
					"internal": {
						"calculateReward(address)": "infinite"
					}
				},
				"methodIdentifiers": {
					"claimReward()": "b88a802f",
					"getStaker(address)": "a23c44b1",
					"owner()": "8da5cb5b",
					"ownerDeposit(uint256)": "141833dc",
					"stake(uint256,uint256)": "7b0472f0",
					"token()": "fc0c546a",
					"unStake()": "73cf575a"
				}
			},
			"storageLayout": {
				"storage": [
					{
						"astId": 170,
						"contract": "Staking.sol:Staking",
						"label": "owner",
						"offset": 0,
						"slot": "0",
						"type": "t_address"
					},
					{
						"astId": 197,
						"contract": "Staking.sol:Staking",
						"label": "stakes",
						"offset": 0,
						"slot": "1",
						"type": "t_mapping(t_address,t_struct(Stake)88_storage)"
					}
				],
				"types": {
					"t_address": {
						"encoding": "inplace",
						"label": "address",
						"numberOfBytes": "20"
					},
					"t_bool": {
						"encoding": "inplace",
						"label": "bool",
						"numberOfBytes": "1"
					},
					"t_mapping(t_address,t_struct(Stake)88_storage)": {
						"encoding": "mapping",
						"key": "t_address",
						"label": "mapping(address => struct Stake)",
						"numberOfBytes": "32",
						"value": "t_struct(Stake)88_storage"
					},
					"t_struct(Stake)88_storage": {
						"encoding": "inplace",
						"label": "struct Stake",
						"members": [
							{
								"astId": 81,
								"contract": "Staking.sol:Staking",
								"label": "amount",
								"offset": 0,
								"slot": "0",
								"type": "t_uint256"
							},
							{
								"astId": 83,
								"contract": "Staking.sol:Staking",
								"label": "startTime",
								"offset": 0,
								"slot": "1",
								"type": "t_uint256"
							},
							{
								"astId": 85,
								"contract": "Staking.sol:Staking",
								"label": "duration",
								"offset": 0,
								"slot": "2",
								"type": "t_uint256"
							},
							{
								"astId": 87,
								"contract": "Staking.sol:Staking",
								"label": "claimed",
								"offset": 0,
								"slot": "3",
								"type": "t_bool"
							}
						],
						"numberOfBytes": "128"
					},
					"t_uint256": {
						"encoding": "inplace",
						"label": "uint256",
						"numberOfBytes": "32"
					}
				}
			},
			"userdoc": {
				"kind": "user",
				"methods": {
					"claimReward()": {
						"notice": "Claim the rewards"
					},
					"getStaker(address)": {
						"notice": "Get the staked amount and the address of the staker for a specific user."
					},
					"ownerDeposit(uint256)": {
						"notice": "Allows the owner to deposit tokens to ensure liquidity"
					},
					"stake(uint256,uint256)": {
						"notice": "Stake a certain amount of tokens for a certain duration"
					},
					"unStake()": {
						"notice": "Unstake the tokens"
					}
				},
				"version": 1
			}
		}
	}
}